{
  "_format": "hh-sol-artifact-1",
  "contractName": "DenariusStaking",
  "sourceName": "contracts/DenariusStaking.sol",
  "abi": [
    {
      "inputs": [
        {
          "internalType": "address",
          "name": "_token",
          "type": "address"
        },
        {
          "internalType": "uint8",
          "name": "_fixedAPY",
          "type": "uint8"
        },
        {
          "internalType": "uint256",
          "name": "_durationInDays",
          "type": "uint256"
        },
        {
          "internalType": "uint256",
          "name": "_lockDurationInDays",
          "type": "uint256"
        },
        {
          "internalType": "uint256",
          "name": "_maxAmountStaked",
          "type": "uint256"
        }
      ],
      "stateMutability": "nonpayable",
      "type": "constructor"
    },
    {
      "anonymous": false,
      "inputs": [
        {
          "indexed": true,
          "internalType": "address",
          "name": "stakeHolder",
          "type": "address"
        },
        {
          "indexed": false,
          "internalType": "uint256",
          "name": "amount",
          "type": "uint256"
        }
      ],
      "name": "Claim",
      "type": "event"
    },
    {
      "anonymous": false,
      "inputs": [
        {
          "indexed": true,
          "internalType": "address",
          "name": "owner",
          "type": "address"
        },
        {
          "indexed": false,
          "internalType": "uint256",
          "name": "amount",
          "type": "uint256"
        }
      ],
      "name": "Deposit",
      "type": "event"
    },
    {
      "anonymous": false,
      "inputs": [
        {
          "indexed": true,
          "internalType": "address",
          "name": "previousOwner",
          "type": "address"
        },
        {
          "indexed": true,
          "internalType": "address",
          "name": "newOwner",
          "type": "address"
        }
      ],
      "name": "OwnershipTransferred",
      "type": "event"
    },
    {
      "anonymous": false,
      "inputs": [
        {
          "indexed": false,
          "internalType": "uint256",
          "name": "startPeriod",
          "type": "uint256"
        },
        {
          "indexed": false,
          "internalType": "uint256",
          "name": "lockupPeriod",
          "type": "uint256"
        },
        {
          "indexed": false,
          "internalType": "uint256",
          "name": "endingPeriod",
          "type": "uint256"
        }
      ],
      "name": "StartStaking",
      "type": "event"
    },
    {
      "anonymous": false,
      "inputs": [
        {
          "indexed": true,
          "internalType": "address",
          "name": "owner",
          "type": "address"
        },
        {
          "indexed": false,
          "internalType": "uint256",
          "name": "amount",
          "type": "uint256"
        }
      ],
      "name": "Withdraw",
      "type": "event"
    },
    {
      "inputs": [
        {
          "internalType": "address",
          "name": "stakeHolder",
          "type": "address"
        }
      ],
      "name": "amountStaked",
      "outputs": [
        {
          "internalType": "uint256",
          "name": "",
          "type": "uint256"
        }
      ],
      "stateMutability": "view",
      "type": "function"
    },
    {
      "inputs": [],
      "name": "claimRewards",
      "outputs": [],
      "stateMutability": "nonpayable",
      "type": "function"
    },
    {
      "inputs": [
        {
          "internalType": "uint256",
          "name": "amount",
          "type": "uint256"
        }
      ],
      "name": "deposit",
      "outputs": [],
      "stateMutability": "nonpayable",
      "type": "function"
    },
    {
      "inputs": [],
      "name": "endPeriod",
      "outputs": [
        {
          "internalType": "uint256",
          "name": "",
          "type": "uint256"
        }
      ],
      "stateMutability": "view",
      "type": "function"
    },
    {
      "inputs": [],
      "name": "fixedAPY",
      "outputs": [
        {
          "internalType": "uint8",
          "name": "",
          "type": "uint8"
        }
      ],
      "stateMutability": "view",
      "type": "function"
    },
    {
      "inputs": [],
      "name": "lockupDuration",
      "outputs": [
        {
          "internalType": "uint256",
          "name": "",
          "type": "uint256"
        }
      ],
      "stateMutability": "view",
      "type": "function"
    },
    {
      "inputs": [],
      "name": "lockupPeriod",
      "outputs": [
        {
          "internalType": "uint256",
          "name": "",
          "type": "uint256"
        }
      ],
      "stateMutability": "view",
      "type": "function"
    },
    {
      "inputs": [],
      "name": "owner",
      "outputs": [
        {
          "internalType": "address",
          "name": "",
          "type": "address"
        }
      ],
      "stateMutability": "view",
      "type": "function"
    },
    {
      "inputs": [],
      "name": "renounceOwnership",
      "outputs": [],
      "stateMutability": "nonpayable",
      "type": "function"
    },
    {
      "inputs": [
        {
          "internalType": "address",
          "name": "stakeHolder",
          "type": "address"
        }
      ],
      "name": "rewardOf",
      "outputs": [
        {
          "internalType": "uint256",
          "name": "",
          "type": "uint256"
        }
      ],
      "stateMutability": "view",
      "type": "function"
    },
    {
      "inputs": [
        {
          "internalType": "address",
          "name": "",
          "type": "address"
        }
      ],
      "name": "staked",
      "outputs": [
        {
          "internalType": "uint256",
          "name": "",
          "type": "uint256"
        }
      ],
      "stateMutability": "view",
      "type": "function"
    },
    {
      "inputs": [],
      "name": "stakingDuration",
      "outputs": [
        {
          "internalType": "uint256",
          "name": "",
          "type": "uint256"
        }
      ],
      "stateMutability": "view",
      "type": "function"
    },
    {
      "inputs": [],
      "name": "stakingMax",
      "outputs": [
        {
          "internalType": "uint256",
          "name": "",
          "type": "uint256"
        }
      ],
      "stateMutability": "view",
      "type": "function"
    },
    {
      "inputs": [],
      "name": "startPeriod",
      "outputs": [
        {
          "internalType": "uint256",
          "name": "",
          "type": "uint256"
        }
      ],
      "stateMutability": "view",
      "type": "function"
    },
    {
      "inputs": [],
      "name": "startStaking",
      "outputs": [],
      "stateMutability": "nonpayable",
      "type": "function"
    },
    {
      "inputs": [],
      "name": "token",
      "outputs": [
        {
          "internalType": "contract IERC20",
          "name": "",
          "type": "address"
        }
      ],
      "stateMutability": "view",
      "type": "function"
    },
    {
      "inputs": [],
      "name": "totalDeposited",
      "outputs": [
        {
          "internalType": "uint256",
          "name": "",
          "type": "uint256"
        }
      ],
      "stateMutability": "view",
      "type": "function"
    },
    {
      "inputs": [
        {
          "internalType": "address",
          "name": "newOwner",
          "type": "address"
        }
      ],
      "name": "transferOwnership",
      "outputs": [],
      "stateMutability": "nonpayable",
      "type": "function"
    },
    {
      "inputs": [
        {
          "internalType": "uint256",
          "name": "amount",
          "type": "uint256"
        }
      ],
      "name": "withdraw",
      "outputs": [],
      "stateMutability": "nonpayable",
      "type": "function"
    },
    {
      "inputs": [],
      "name": "withdrawAll",
      "outputs": [],
      "stateMutability": "nonpayable",
      "type": "function"
    },
    {
      "inputs": [],
      "name": "withdrawResidualBalance",
      "outputs": [],
      "stateMutability": "nonpayable",
      "type": "function"
    }
  ],
  "bytecode": "0x610120604052620f424060055534801561001857600080fd5b50604051611517380380611517833981016040819052610037916100b6565b61004033610066565b60c09290925260e0526001600160a01b0390921660805260ff1660a0526101005261011b565b600080546001600160a01b038381166001600160a01b0319831681178455604051919092169283917f8be0079c531659141344cd1fd0a4f28419497f9722a3daafe3b4186f6b6457e09190a35050565b600080600080600060a086880312156100ce57600080fd5b85516001600160a01b03811681146100e557600080fd5b602087015190955060ff811681146100fc57600080fd5b6040870151606088015160809098015196999198509695945092505050565b60805160a05160c05160e051610100516113646101b3600039600081816102bf015261076d0152600081816101410152818161059201526105f5015260008181610206015281816105bf01528181610e5a01528181610e8201528181610efc0152610f2c0152600081816101b40152610b7e015260008181610301015281816104b2015281816108ac0152610a0701526113646000f3fe608060405234801561001057600080fd5b50600436106101375760003560e01c8063853828b6116100b8578063ef40a6701161007c578063ef40a67014610291578063f0316bc8146102ba578063f2fde38b146102e1578063fb468ac3146102f4578063fc0c546a146102fc578063ff50abdc1461032357600080fd5b8063853828b6146102285780638da5cb5b1461023057806398807d8414610255578063b6b55f2514610275578063ee947a7c1461028857600080fd5b806348c9eaaf116100ff57806348c9eaaf146101af5780635faa65ff146101e8578063715018a6146101f157806371b0cbfa146101f95780638005a7de1461020157600080fd5b80631ada70a81461013c5780631d62ebd9146101765780632e1a7d4d1461018957806330bfb9bb1461019e578063372500ab146101a7575b600080fd5b6101637f000000000000000000000000000000000000000000000000000000000000000081565b6040519081526020015b60405180910390f35b6101636101843660046111c9565b61032b565b61019c6101973660046111f2565b61033c565b005b61016360015481565b61019c610512565b6101d67f000000000000000000000000000000000000000000000000000000000000000081565b60405160ff909116815260200161016d565b61016360035481565b61019c61051c565b61019c61052e565b6101637f000000000000000000000000000000000000000000000000000000000000000081565b61019c61064e565b6000546001600160a01b03165b6040516001600160a01b03909116815260200161016d565b6101636102633660046111c9565b60066020526000908152604090205481565b61019c6102833660046111f2565b610718565b61016360025481565b61016361029f3660046111c9565b6001600160a01b031660009081526006602052604090205490565b6101637f000000000000000000000000000000000000000000000000000000000000000081565b61019c6102ef3660046111c9565b61090e565b61019c610987565b61023d7f000000000000000000000000000000000000000000000000000000000000000081565b600454610163565b600061033682610af7565b92915050565b6002544210156103935760405162461bcd60e51b815260206004820152601d60248201527f4e6f20776974686472617720756e74696c206c6f636b757020656e647300000060448201526064015b60405180910390fd5b600081116103e35760405162461bcd60e51b815260206004820152601d60248201527f416d6f756e74206d7573742062652067726561746572207468616e2030000000604482015260640161038a565b336000908152600660205260409020548111156104425760405162461bcd60e51b815260206004820152601f60248201527f416d6f756e7420686967686572207468616e207374616b6564416d6f756e7400604482015260640161038a565b61044a610bc2565b336000908152600760205260409020541561046757610467610c01565b80600460008282546104799190611221565b9091555050336000908152600660205260408120805483929061049d908490611221565b909155506104d99050335b6001600160a01b037f0000000000000000000000000000000000000000000000000000000000000000169083610ca4565b60405181815233907f884edad9ce6fa2440d8a54cc123490eb96d2768479d49ff9c7366125a9424364906020015b60405180910390a250565b61051a610c01565b565b610524610d0c565b61051a6000610d66565b610536610d0c565b600154156105865760405162461bcd60e51b815260206004820152601b60248201527f5374616b696e672068617320616c726561647920737461727465640000000000604482015260640161038a565b4260018190556105b7907f000000000000000000000000000000000000000000000000000000000000000090611234565b6002556105e47f000000000000000000000000000000000000000000000000000000000000000042611234565b6003819055600154604080519182527f000000000000000000000000000000000000000000000000000000000000000060208301528101919091527f0cdba3fb0a2020e0c9dc500b2679007a9c91cfcf35acab0eb46766c1200b42cd9060600160405180910390a1565b6002544210156106a05760405162461bcd60e51b815260206004820152601d60248201527f4e6f20776974686472617720756e74696c206c6f636b757020656e6473000000604482015260640161038a565b6106a8610bc2565b33600090815260076020526040902054156106c5576106c5610c01565b336000908152600860209081526040808320839055600690915281205460048054919290916106f5908490611221565b90915550503360008181526006602052604081208054919055906104d9906104a8565b6003541580610728575042600354115b61076b5760405162461bcd60e51b815260206004820152601460248201527314dd185ada5b99c81c195c9a5bd908195b99195960621b604482015260640161038a565b7f00000000000000000000000000000000000000000000000000000000000000008160045461079a9190611234565b11156107e85760405162461bcd60e51b815260206004820152601e60248201527f416d6f756e74207374616b65642065786365656473204d61785374616b650000604482015260640161038a565b600081116108385760405162461bcd60e51b815260206004820152601d60248201527f416d6f756e74206d7573742062652067726561746572207468616e2030000000604482015260640161038a565b336000908152600860205260408120549003610861573360009081526008602052604090204290555b610869610bc2565b3360009081526006602052604081208054839290610888908490611234565b9250508190555080600460008282546108a19190611234565b909155506108dc90507f00000000000000000000000000000000000000000000000000000000000000006001600160a01b0316333084610db6565b60405181815233907fe1fffcc4923d04b559f4d29a8bfc6cda04eb5b0d3c460751c2402c5c5cc9109c90602001610507565b610916610d0c565b6001600160a01b03811661097b5760405162461bcd60e51b815260206004820152602660248201527f4f776e61626c653a206e6577206f776e657220697320746865207a65726f206160448201526564647265737360d01b606482015260840161038a565b61098481610d66565b50565b61098f610d0c565b6003546109a0906301e13380611234565b4210156109ef5760405162461bcd60e51b815260206004820152601e60248201527f576974686472617720317965617220616674657220656e64506572696f640000604482015260640161038a565b6040516370a0823160e01b81523060048201526000907f00000000000000000000000000000000000000000000000000000000000000006001600160a01b0316906370a0823190602401602060405180830381865afa158015610a56573d6000803e3d6000fd5b505050506040513d601f19601f82011682018060405250810190610a7a9190611247565b9050600060045482610a8c9190611221565b905060008111610ade5760405162461bcd60e51b815260206004820152601f60248201527f4e6f20726573696475616c2042616c616e636520746f20776974686472617700604482015260640161038a565b610af36104a86000546001600160a01b031690565b5050565b600060015460001480610b2057506001600160a01b038216600090815260066020526040902054155b15610b2d57506000919050565b6001600160a01b038216600090815260076020526040902054600554610b54906064611260565b610b5d84610df4565b6001600160a01b038516600090815260066020526040902054610ba49060ff7f00000000000000000000000000000000000000000000000000000000000000001690611260565b610bae9190611260565b610bb89190611277565b6103369190611234565b610bcb33610af7565b33600090815260076020526040902055600354421015610beb5742610bef565b6003545b33600090815260086020526040902055565b610c09610bc2565b3360009081526007602052604090205480610c595760405162461bcd60e51b815260206004820152601060248201526f4e6f7468696e6720746f20636c61696d60801b604482015260640161038a565b33600081815260076020526040812055610c72906104a8565b60405181815233907f47cee97cb7acd717b3c0aa1435d004cd5b3c8c57d70dbceb4e4458bbd60e39d490602001610507565b6040516001600160a01b038316602482015260448101829052610d0790849063a9059cbb60e01b906064015b60408051601f198184030181529190526020810180516001600160e01b03166001600160e01b031990931692909217909152610f74565b505050565b6000546001600160a01b0316331461051a5760405162461bcd60e51b815260206004820181905260248201527f4f776e61626c653a2063616c6c6572206973206e6f7420746865206f776e6572604482015260640161038a565b600080546001600160a01b038381166001600160a01b0319831681178455604051919092169283917f8be0079c531659141344cd1fd0a4f28419497f9722a3daafe3b4186f6b6457e09190a35050565b6040516001600160a01b0380851660248301528316604482015260648101829052610dee9085906323b872dd60e01b90608401610cd0565b50505050565b6001600160a01b0381166000908152600860205260408120546001546003549110908290421015610ecb5781610e42576001600160a01b038416600090815260086020526040902054610e46565b6001545b90506000610e548242611221565b610e7e907f0000000000000000000000000000000000000000000000000000000000000000611221565b90507f0000000000000000000000000000000000000000000000000000000000000000610eab8282611221565b600554610eb89190611260565b610ec29190611277565b95945050505050565b81610f25576001600160a01b038416600090815260086020526040902054600354610ef69190611221565b610f20907f0000000000000000000000000000000000000000000000000000000000000000611221565b610f28565b60005b90507f0000000000000000000000000000000000000000000000000000000000000000610f558282611221565b600554610f629190611260565b610f6c9190611277565b949350505050565b6000610fc9826040518060400160405280602081526020017f5361666545524332303a206c6f772d6c6576656c2063616c6c206661696c6564815250856001600160a01b03166110469092919063ffffffff16565b805190915015610d075780806020019051810190610fe79190611299565b610d075760405162461bcd60e51b815260206004820152602a60248201527f5361666545524332303a204552433230206f7065726174696f6e20646964206e6044820152691bdd081cdd58d8d9595960b21b606482015260840161038a565b6060611055848460008561105f565b90505b9392505050565b6060824710156110c05760405162461bcd60e51b815260206004820152602660248201527f416464726573733a20696e73756666696369656e742062616c616e636520666f6044820152651c8818d85b1b60d21b606482015260840161038a565b6001600160a01b0385163b6111175760405162461bcd60e51b815260206004820152601d60248201527f416464726573733a2063616c6c20746f206e6f6e2d636f6e7472616374000000604482015260640161038a565b600080866001600160a01b0316858760405161113391906112df565b60006040518083038185875af1925050503d8060008114611170576040519150601f19603f3d011682016040523d82523d6000602084013e611175565b606091505b5091509150611185828286611190565b979650505050505050565b6060831561119f575081611058565b8251156111af5782518084602001fd5b8160405162461bcd60e51b815260040161038a91906112fb565b6000602082840312156111db57600080fd5b81356001600160a01b038116811461105857600080fd5b60006020828403121561120457600080fd5b5035919050565b634e487b7160e01b600052601160045260246000fd5b818103818111156103365761033661120b565b808201808211156103365761033661120b565b60006020828403121561125957600080fd5b5051919050565b80820281158282048414176103365761033661120b565b60008261129457634e487b7160e01b600052601260045260246000fd5b500490565b6000602082840312156112ab57600080fd5b8151801515811461105857600080fd5b60005b838110156112d65781810151838201526020016112be565b50506000910152565b600082516112f18184602087016112bb565b9190910192915050565b602081526000825180602084015261131a8160408501602087016112bb565b601f01601f1916919091016040019291505056fea2646970667358221220d3b11b4940ec886d62bcd49d652334e58a0ce596e254793e0c285749b62befac64736f6c63430008110033",
  "linkReferences": {},
  "deployedLinkReferences": {}
}