{"contracts/ICO.sol":{"ICO":{"abi":[{"inputs":[{"internalType":"address","name":"_token","type":"address"},{"internalType":"address","name":"_usdc","type":"address"},{"internalType":"uint256","name":"_openingTimeRound1","type":"uint256"},{"internalType":"uint256","name":"_closingTimeRound1","type":"uint256"},{"internalType":"uint256","name":"_openingTimeRound2","type":"uint256"},{"internalType":"uint256","name":"_closingTimeRound2","type":"uint256"},{"internalType":"uint256","name":"_openingTimeRound3","type":"uint256"},{"internalType":"uint256","name":"_closingTimeRound3","type":"uint256"}],"stateMutability":"nonpayable","type":"constructor"},{"anonymous":false,"inputs":[{"indexed":true,"internalType":"address","name":"previousOwner","type":"address"},{"indexed":true,"internalType":"address","name":"newOwner","type":"address"}],"name":"OwnershipTransferred","type":"event"},{"anonymous":false,"inputs":[{"indexed":true,"internalType":"address","name":"claimer","type":"address"}],"name":"TokenClaim","type":"event"},{"anonymous":false,"inputs":[{"indexed":true,"internalType":"address","name":"purchaser","type":"address"},{"indexed":false,"internalType":"uint256","name":"amount","type":"uint256"}],"name":"TokenPurchase","type":"event"},{"inputs":[{"internalType":"address","name":"","type":"address"}],"name":"balances","outputs":[{"internalType":"uint256","name":"","type":"uint256"}],"stateMutability":"view","type":"function"},{"inputs":[{"internalType":"address","name":"","type":"address"}],"name":"balancesToken1","outputs":[{"internalType":"uint256","name":"","type":"uint256"}],"stateMutability":"view","type":"function"},{"inputs":[{"internalType":"address","name":"","type":"address"}],"name":"balancesToken2","outputs":[{"internalType":"uint256","name":"","type":"uint256"}],"stateMutability":"view","type":"function"},{"inputs":[{"internalType":"address","name":"","type":"address"}],"name":"balancesToken3","outputs":[{"internalType":"uint256","name":"","type":"uint256"}],"stateMutability":"view","type":"function"},{"inputs":[],"name":"buyTokensRound1","outputs":[],"stateMutability":"payable","type":"function"},{"inputs":[],"name":"buyTokensRound2","outputs":[],"stateMutability":"payable","type":"function"},{"inputs":[],"name":"buyTokensRound3","outputs":[],"stateMutability":"payable","type":"function"},{"inputs":[{"internalType":"uint256","name":"_closingTimeRound1","type":"uint256"}],"name":"changeClosingTimeRound1","outputs":[],"stateMutability":"nonpayable","type":"function"},{"inputs":[{"internalType":"uint256","name":"_closingTimeRound2","type":"uint256"}],"name":"changeClosingTimeRound2","outputs":[],"stateMutability":"nonpayable","type":"function"},{"inputs":[{"internalType":"uint256","name":"_closingTimeRound3","type":"uint256"}],"name":"changeClosingTimeRound3","outputs":[],"stateMutability":"nonpayable","type":"function"},{"inputs":[],"name":"closingTimeRound1","outputs":[{"internalType":"uint256","name":"","type":"uint256"}],"stateMutability":"view","type":"function"},{"inputs":[],"name":"closingTimeRound2","outputs":[{"internalType":"uint256","name":"","type":"uint256"}],"stateMutability":"view","type":"function"},{"inputs":[],"name":"closingTimeRound3","outputs":[{"internalType":"uint256","name":"","type":"uint256"}],"stateMutability":"view","type":"function"},{"inputs":[],"name":"getBalance","outputs":[{"internalType":"uint256","name":"","type":"uint256"}],"stateMutability":"view","type":"function"},{"inputs":[],"name":"getBalanceToken1","outputs":[{"internalType":"uint256","name":"","type":"uint256"}],"stateMutability":"view","type":"function"},{"inputs":[],"name":"getBalanceToken2","outputs":[{"internalType":"uint256","name":"","type":"uint256"}],"stateMutability":"view","type":"function"},{"inputs":[],"name":"getBalanceToken3","outputs":[{"internalType":"uint256","name":"","type":"uint256"}],"stateMutability":"view","type":"function"},{"inputs":[],"name":"hardCapRound1","outputs":[{"internalType":"uint256","name":"","type":"uint256"}],"stateMutability":"view","type":"function"},{"inputs":[],"name":"hardCapRound2","outputs":[{"internalType":"uint256","name":"","type":"uint256"}],"stateMutability":"view","type":"function"},{"inputs":[],"name":"hardCapRound3","outputs":[{"internalType":"uint256","name":"","type":"uint256"}],"stateMutability":"view","type":"function"},{"inputs":[],"name":"openingTimeRound1","outputs":[{"internalType":"uint256","name":"","type":"uint256"}],"stateMutability":"view","type":"function"},{"inputs":[],"name":"openingTimeRound2","outputs":[{"internalType":"uint256","name":"","type":"uint256"}],"stateMutability":"view","type":"function"},{"inputs":[],"name":"openingTimeRound3","outputs":[{"internalType":"uint256","name":"","type":"uint256"}],"stateMutability":"view","type":"function"},{"inputs":[],"name":"owner","outputs":[{"internalType":"address","name":"","type":"address"}],"stateMutability":"view","type":"function"},{"inputs":[],"name":"raisedAmount","outputs":[{"internalType":"uint256","name":"","type":"uint256"}],"stateMutability":"view","type":"function"},{"inputs":[],"name":"rateRound1","outputs":[{"internalType":"uint256","name":"","type":"uint256"}],"stateMutability":"view","type":"function"},{"inputs":[],"name":"rateRound2","outputs":[{"internalType":"uint256","name":"","type":"uint256"}],"stateMutability":"view","type":"function"},{"inputs":[],"name":"rateRound3","outputs":[{"internalType":"uint256","name":"","type":"uint256"}],"stateMutability":"view","type":"function"},{"inputs":[],"name":"renounceOwnership","outputs":[],"stateMutability":"nonpayable","type":"function"},{"inputs":[],"name":"tokenAmountRound1","outputs":[{"internalType":"uint256","name":"","type":"uint256"}],"stateMutability":"view","type":"function"},{"inputs":[],"name":"tokenAmountRound2","outputs":[{"internalType":"uint256","name":"","type":"uint256"}],"stateMutability":"view","type":"function"},{"inputs":[],"name":"tokenAmountRound3","outputs":[{"internalType":"uint256","name":"","type":"uint256"}],"stateMutability":"view","type":"function"},{"inputs":[{"internalType":"address","name":"newOwner","type":"address"}],"name":"transferOwnership","outputs":[],"stateMutability":"nonpayable","type":"function"},{"inputs":[],"name":"withdrawTokensRound1","outputs":[],"stateMutability":"nonpayable","type":"function"},{"inputs":[],"name":"withdrawTokensRound2","outputs":[],"stateMutability":"nonpayable","type":"function"},{"inputs":[],"name":"withdrawTokensRound3","outputs":[],"stateMutability":"nonpayable","type":"function"}],"evm":{"bytecode":{"linkReferences":{},"object":"60806040526019601355602360145560326015553480156200002057600080fd5b506040516200119538038062001195833981016040819052620000439162000286565b6200004e3362000219565b6001600160a01b0388166200009f5760405162461bcd60e51b81526020600482015260126024820152710546f6b656e206164647265737320697320360741b60448201526064015b60405180910390fd5b858511620000df5760405162461bcd60e51b815260206004820152601f602482015260008051602062001175833981519152604482015260640162000096565b8383116200011f5760405162461bcd60e51b815260206004820152601f602482015260008051602062001175833981519152604482015260640162000096565b8181116200015f5760405162461bcd60e51b815260206004820152601f602482015260008051602062001175833981519152604482015260640162000096565b600a601354620001709190620002f7565b6003556014546200018490600a90620002f7565b6004556015546200019890600a90620002f7565b600555600180546001600160a01b03998a166001600160a01b0319918216179091556002805498909916971696909617909655600693909355600791909155600855600955600a91909155600b556a0f8277896582678ac00000600c556a094e47b8d6817153400000600d556a06342fd08f00f637800000600e556200031a565b600080546001600160a01b038381166001600160a01b0319831681178455604051919092169283917f8be0079c531659141344cd1fd0a4f28419497f9722a3daafe3b4186f6b6457e09190a35050565b80516001600160a01b03811681146200028157600080fd5b919050565b600080600080600080600080610100898b031215620002a457600080fd5b620002af8962000269565b9750620002bf60208a0162000269565b60408a015160608b015160808c015160a08d015160c08e015160e0909e01519c9f949e50929c919b909a509198509650945092505050565b6000826200031557634e487b7160e01b600052601260045260246000fd5b500490565b610e4b806200032a6000396000f3fe60806040526004361061020f5760003560e01c80637c6186f911610118578063d9c9ce10116100a0578063e7e879df1161006f578063e7e879df14610541578063ec0be9581461056e578063eccbaf7e14610583578063f2fde38b14610599578063fe6154df146105b957600080fd5b8063d9c9ce10146104f7578063dbabeb25146104ff578063dc372b5a14610515578063e744e9c61461052b57600080fd5b8063a680abcf116100e7578063a680abcf14610469578063bbce00591461047f578063bbda36c514610487578063c59ee1dc146104b4578063cfa1a7ec146104ca57600080fd5b80637c6186f9146103ff5780638da5cb5b146104155780638dadc69f1461043d57806390d98d751461045357600080fd5b806346fc8a771161019b5780635badf43a1161016a5780635badf43a146103965780635d41363f1461039e5780635f7add42146103b4578063715018a6146103ca5780637a09fc70146103df57600080fd5b806346fc8a7714610329578063514d50711461034b578063521ff4ce146103605780635b9c476f1461038057600080fd5b806312065fe0116101e257806312065fe01461028b5780631b3057cf146102ad57806327e235e3146102cf5780632e58e582146102fc5780632eb795d91461031357600080fd5b80630a564a03146102145780630af0e7961461023d578063102cc3ea1461025f578063118ab17814610275575b600080fd5b34801561022057600080fd5b5061022a60045481565b6040519081526020015b60405180910390f35b34801561024957600080fd5b503360009081526018602052604090205461022a565b34801561026b57600080fd5b5061022a600c5481565b34801561028157600080fd5b5061022a60055481565b34801561029757600080fd5b503360009081526016602052604090205461022a565b3480156102b957600080fd5b503360009081526019602052604090205461022a565b3480156102db57600080fd5b5061022a6102ea366004610cea565b60166020526000908152604090205481565b34801561030857600080fd5b506103116105d9565b005b34801561031f57600080fd5b5061022a60105481565b34801561033557600080fd5b503360009081526017602052604090205461022a565b34801561035757600080fd5b506103116106aa565b34801561036c57600080fd5b5061031161037b366004610d1a565b61072f565b34801561038c57600080fd5b5061022a600b5481565b61031161073c565b3480156103aa57600080fd5b5061022a60035481565b3480156103c057600080fd5b5061022a600a5481565b3480156103d657600080fd5b50610311610857565b3480156103eb57600080fd5b506103116103fa366004610d1a565b61086b565b34801561040b57600080fd5b5061022a60065481565b34801561042157600080fd5b506000546040516001600160a01b039091168152602001610234565b34801561044957600080fd5b5061022a60095481565b34801561045f57600080fd5b5061022a60125481565b34801561047557600080fd5b5061022a60075481565b610311610878565b34801561049357600080fd5b5061022a6104a2366004610cea565b60196020526000908152604090205481565b3480156104c057600080fd5b5061022a600f5481565b3480156104d657600080fd5b5061022a6104e5366004610cea565b60176020526000908152604090205481565b610311610a05565b34801561050b57600080fd5b5061022a60115481565b34801561052157600080fd5b5061022a600d5481565b34801561053757600080fd5b5061022a600e5481565b34801561054d57600080fd5b5061022a61055c366004610cea565b60186020526000908152604090205481565b34801561057a57600080fd5b50610311610b14565b34801561058f57600080fd5b5061022a60085481565b3480156105a557600080fd5b506103116105b4366004610cea565b610b99565b3480156105c557600080fd5b506103116105d4366004610d1a565b610c12565b60095442116106035760405162461bcd60e51b81526004016105fa90610d33565b60405180910390fd5b336000908152601860205260409020548061061d57600080fd5b3360008181526018602052604080822091909155600154905163a9059cbb60e01b81526004810192909252602482018390526001600160a01b03169063a9059cbb906044015b6020604051808303816000875af1158015610682573d6000803e3d6000fd5b505050506040513d601f19601f820116820180604052508101906106a69190610d5b565b5050565b60075442116106cb5760405162461bcd60e51b81526004016105fa90610d33565b33600090815260176020526040902054806106e557600080fd5b3360008181526017602052604080822091909155600154905163a9059cbb60e01b81526004810192909252602482018390526001600160a01b03169063a9059cbb90604401610663565b610737610c1f565b600755565b600854421015801561075057506009544211155b61076c5760405162461bcd60e51b81526004016105fa90610d7d565b600d546011541061078f5760405162461bcd60e51b81526004016105fa90610da3565b60045434906000906107a2908390610c79565b600f549091506107b29083610c8e565b600f556011546107c29082610c8e565b601155336000908152601660205260409020546107df9083610c8e565b336000908152601660209081526040808320939093556018905220546108059082610c8e565b33600081815260186020526040908190209290925590517ff4b351c7293f3c20fc9912c61adbe9823a6de3162bde18c98eb6feeae232f8619061084b9084815260200190565b60405180910390a25050565b61085f610c1f565b6108696000610c9a565b565b610873610c1f565b600b55565b600654421015801561088c57506007544211155b6108a85760405162461bcd60e51b81526004016105fa90610d7d565b600c54601054106108cb5760405162461bcd60e51b81526004016105fa90610da3565b60035434906000906108de908390610c79565b600f549091506108ee9083610c8e565b600f556010546108fe9082610c8e565b6010553360009081526016602052604090205461091b9083610c8e565b336000908152601660209081526040808320939093556017905220546109419082610c8e565b33600081815260176020526040908190209290925560025491516323b872dd60e01b81526004810191909152306024820152604481018490526001600160a01b03909116906323b872dd906064016020604051808303816000875af11580156109ae573d6000803e3d6000fd5b505050506040513d601f19601f820116820180604052508101906109d29190610d5b565b5060405181815233907ff4b351c7293f3c20fc9912c61adbe9823a6de3162bde18c98eb6feeae232f8619060200161084b565b600a544210158015610a195750600b544211155b610a355760405162461bcd60e51b81526004016105fa90610d7d565b600e5460125410610a585760405162461bcd60e51b81526004016105fa90610da3565b6005543490600090610a6b908390610c79565b600f54909150610a7b9083610c8e565b600f55601254610a8b9082610c8e565b60125533600090815260166020526040902054610aa89083610c8e565b33600090815260166020908152604080832093909355601990522054610ace9082610c8e565b33600081815260196020526040908190209290925590517ff4b351c7293f3c20fc9912c61adbe9823a6de3162bde18c98eb6feeae232f8619061084b9084815260200190565b600b544211610b355760405162461bcd60e51b81526004016105fa90610d33565b3360009081526019602052604090205480610b4f57600080fd5b3360008181526019602052604080822091909155600154905163a9059cbb60e01b81526004810192909252602482018390526001600160a01b03169063a9059cbb90604401610663565b610ba1610c1f565b6001600160a01b038116610c065760405162461bcd60e51b815260206004820152602660248201527f4f776e61626c653a206e6577206f776e657220697320746865207a65726f206160448201526564647265737360d01b60648201526084016105fa565b610c0f81610c9a565b50565b610c1a610c1f565b600955565b6000546001600160a01b031633146108695760405162461bcd60e51b815260206004820181905260248201527f4f776e61626c653a2063616c6c6572206973206e6f7420746865206f776e657260448201526064016105fa565b6000610c858284610de3565b90505b92915050565b6000610c858284610e02565b600080546001600160a01b038381166001600160a01b0319831681178455604051919092169283917f8be0079c531659141344cd1fd0a4f28419497f9722a3daafe3b4186f6b6457e09190a35050565b600060208284031215610cfc57600080fd5b81356001600160a01b0381168114610d1357600080fd5b9392505050565b600060208284031215610d2c57600080fd5b5035919050565b6020808252600e908201526d092869e40dcdee840ccd2dcd2e6d60931b604082015260600190565b600060208284031215610d6d57600080fd5b81518015158114610d1357600080fd5b6020808252600c908201526b24a1a7903737ba1037b832b760a11b604082015260600190565b60208082526010908201526f12185c990810d85c081c995858da195960821b604082015260600190565b634e487b7160e01b600052601160045260246000fd5b6000816000190483118215151615610dfd57610dfd610dcd565b500290565b80820180821115610c8857610c88610dcd56fea2646970667358221220c880ec488964f50ad295eb8282bbb4d36ed64b34349408968de7c354cd00d1cc64736f6c63430008100033436c6f73696e6754696d65206e65656420746f206265207375706572696f7200","opcodes":"PUSH1 0x80 PUSH1 0x40 MSTORE PUSH1 0x19 PUSH1 0x13 SSTORE PUSH1 0x23 PUSH1 0x14 SSTORE PUSH1 0x32 PUSH1 0x15 SSTORE CALLVALUE DUP1 ISZERO PUSH3 0x20 JUMPI PUSH1 0x0 DUP1 REVERT JUMPDEST POP PUSH1 0x40 MLOAD PUSH3 0x1195 CODESIZE SUB DUP1 PUSH3 0x1195 DUP4 CODECOPY DUP2 ADD PUSH1 0x40 DUP2 SWAP1 MSTORE PUSH3 0x43 SWAP2 PUSH3 0x286 JUMP JUMPDEST PUSH3 0x4E CALLER PUSH3 0x219 JUMP JUMPDEST PUSH1 0x1 PUSH1 0x1 PUSH1 0xA0 SHL SUB DUP9 AND PUSH3 0x9F JUMPI PUSH1 0x40 MLOAD PUSH3 0x461BCD PUSH1 0xE5 SHL DUP2 MSTORE PUSH1 0x20 PUSH1 0x4 DUP3 ADD MSTORE PUSH1 0x12 PUSH1 0x24 DUP3 ADD MSTORE PUSH18 0x546F6B656E2061646472657373206973203 PUSH1 0x74 SHL PUSH1 0x44 DUP3 ADD MSTORE PUSH1 0x64 ADD JUMPDEST PUSH1 0x40 MLOAD DUP1 SWAP2 SUB SWAP1 REVERT JUMPDEST DUP6 DUP6 GT PUSH3 0xDF JUMPI PUSH1 0x40 MLOAD PUSH3 0x461BCD PUSH1 0xE5 SHL DUP2 MSTORE PUSH1 0x20 PUSH1 0x4 DUP3 ADD MSTORE PUSH1 0x1F PUSH1 0x24 DUP3 ADD MSTORE PUSH1 0x0 DUP1 MLOAD PUSH1 0x20 PUSH3 0x1175 DUP4 CODECOPY DUP2 MLOAD SWAP2 MSTORE PUSH1 0x44 DUP3 ADD MSTORE PUSH1 0x64 ADD PUSH3 0x96 JUMP JUMPDEST DUP4 DUP4 GT PUSH3 0x11F JUMPI PUSH1 0x40 MLOAD PUSH3 0x461BCD PUSH1 0xE5 SHL DUP2 MSTORE PUSH1 0x20 PUSH1 0x4 DUP3 ADD MSTORE PUSH1 0x1F PUSH1 0x24 DUP3 ADD MSTORE PUSH1 0x0 DUP1 MLOAD PUSH1 0x20 PUSH3 0x1175 DUP4 CODECOPY DUP2 MLOAD SWAP2 MSTORE PUSH1 0x44 DUP3 ADD MSTORE PUSH1 0x64 ADD PUSH3 0x96 JUMP JUMPDEST DUP2 DUP2 GT PUSH3 0x15F JUMPI PUSH1 0x40 MLOAD PUSH3 0x461BCD PUSH1 0xE5 SHL DUP2 MSTORE PUSH1 0x20 PUSH1 0x4 DUP3 ADD MSTORE PUSH1 0x1F PUSH1 0x24 DUP3 ADD MSTORE PUSH1 0x0 DUP1 MLOAD PUSH1 0x20 PUSH3 0x1175 DUP4 CODECOPY DUP2 MLOAD SWAP2 MSTORE PUSH1 0x44 DUP3 ADD MSTORE PUSH1 0x64 ADD PUSH3 0x96 JUMP JUMPDEST PUSH1 0xA PUSH1 0x13 SLOAD PUSH3 0x170 SWAP2 SWAP1 PUSH3 0x2F7 JUMP JUMPDEST PUSH1 0x3 SSTORE PUSH1 0x14 SLOAD PUSH3 0x184 SWAP1 PUSH1 0xA SWAP1 PUSH3 0x2F7 JUMP JUMPDEST PUSH1 0x4 SSTORE PUSH1 0x15 SLOAD PUSH3 0x198 SWAP1 PUSH1 0xA SWAP1 PUSH3 0x2F7 JUMP JUMPDEST PUSH1 0x5 SSTORE PUSH1 0x1 DUP1 SLOAD PUSH1 0x1 PUSH1 0x1 PUSH1 0xA0 SHL SUB SWAP10 DUP11 AND PUSH1 0x1 PUSH1 0x1 PUSH1 0xA0 SHL SUB NOT SWAP2 DUP3 AND OR SWAP1 SWAP2 SSTORE PUSH1 0x2 DUP1 SLOAD SWAP9 SWAP1 SWAP10 AND SWAP8 AND SWAP7 SWAP1 SWAP7 OR SWAP1 SWAP7 SSTORE PUSH1 0x6 SWAP4 SWAP1 SWAP4 SSTORE PUSH1 0x7 SWAP2 SWAP1 SWAP2 SSTORE PUSH1 0x8 SSTORE PUSH1 0x9 SSTORE PUSH1 0xA SWAP2 SWAP1 SWAP2 SSTORE PUSH1 0xB SSTORE PUSH11 0xF8277896582678AC00000 PUSH1 0xC SSTORE PUSH11 0x94E47B8D6817153400000 PUSH1 0xD SSTORE PUSH11 0x6342FD08F00F637800000 PUSH1 0xE SSTORE PUSH3 0x31A JUMP JUMPDEST PUSH1 0x0 DUP1 SLOAD PUSH1 0x1 PUSH1 0x1 PUSH1 0xA0 SHL SUB DUP4 DUP2 AND PUSH1 0x1 PUSH1 0x1 PUSH1 0xA0 SHL SUB NOT DUP4 AND DUP2 OR DUP5 SSTORE PUSH1 0x40 MLOAD SWAP2 SWAP1 SWAP3 AND SWAP3 DUP4 SWAP2 PUSH32 0x8BE0079C531659141344CD1FD0A4F28419497F9722A3DAAFE3B4186F6B6457E0 SWAP2 SWAP1 LOG3 POP POP JUMP JUMPDEST DUP1 MLOAD PUSH1 0x1 PUSH1 0x1 PUSH1 0xA0 SHL SUB DUP2 AND DUP2 EQ PUSH3 0x281 JUMPI PUSH1 0x0 DUP1 REVERT JUMPDEST SWAP2 SWAP1 POP JUMP JUMPDEST PUSH1 0x0 DUP1 PUSH1 0x0 DUP1 PUSH1 0x0 DUP1 PUSH1 0x0 DUP1 PUSH2 0x100 DUP10 DUP12 SUB SLT ISZERO PUSH3 0x2A4 JUMPI PUSH1 0x0 DUP1 REVERT JUMPDEST PUSH3 0x2AF DUP10 PUSH3 0x269 JUMP JUMPDEST SWAP8 POP PUSH3 0x2BF PUSH1 0x20 DUP11 ADD PUSH3 0x269 JUMP JUMPDEST PUSH1 0x40 DUP11 ADD MLOAD PUSH1 0x60 DUP12 ADD MLOAD PUSH1 0x80 DUP13 ADD MLOAD PUSH1 0xA0 DUP14 ADD MLOAD PUSH1 0xC0 DUP15 ADD MLOAD PUSH1 0xE0 SWAP1 SWAP15 ADD MLOAD SWAP13 SWAP16 SWAP5 SWAP15 POP SWAP3 SWAP13 SWAP2 SWAP12 SWAP1 SWAP11 POP SWAP2 SWAP9 POP SWAP7 POP SWAP5 POP SWAP3 POP POP POP JUMP JUMPDEST PUSH1 0x0 DUP3 PUSH3 0x315 JUMPI PUSH4 0x4E487B71 PUSH1 0xE0 SHL PUSH1 0x0 MSTORE PUSH1 0x12 PUSH1 0x4 MSTORE PUSH1 0x24 PUSH1 0x0 REVERT JUMPDEST POP DIV SWAP1 JUMP JUMPDEST PUSH2 0xE4B DUP1 PUSH3 0x32A PUSH1 0x0 CODECOPY PUSH1 0x0 RETURN INVALID PUSH1 0x80 PUSH1 0x40 MSTORE PUSH1 0x4 CALLDATASIZE LT PUSH2 0x20F JUMPI PUSH1 0x0 CALLDATALOAD PUSH1 0xE0 SHR DUP1 PUSH4 0x7C6186F9 GT PUSH2 0x118 JUMPI DUP1 PUSH4 0xD9C9CE10 GT PUSH2 0xA0 JUMPI DUP1 PUSH4 0xE7E879DF GT PUSH2 0x6F JUMPI DUP1 PUSH4 0xE7E879DF EQ PUSH2 0x541 JUMPI DUP1 PUSH4 0xEC0BE958 EQ PUSH2 0x56E JUMPI DUP1 PUSH4 0xECCBAF7E EQ PUSH2 0x583 JUMPI DUP1 PUSH4 0xF2FDE38B EQ PUSH2 0x599 JUMPI DUP1 PUSH4 0xFE6154DF EQ PUSH2 0x5B9 JUMPI PUSH1 0x0 DUP1 REVERT JUMPDEST DUP1 PUSH4 0xD9C9CE10 EQ PUSH2 0x4F7 JUMPI DUP1 PUSH4 0xDBABEB25 EQ PUSH2 0x4FF JUMPI DUP1 PUSH4 0xDC372B5A EQ PUSH2 0x515 JUMPI DUP1 PUSH4 0xE744E9C6 EQ PUSH2 0x52B JUMPI PUSH1 0x0 DUP1 REVERT JUMPDEST DUP1 PUSH4 0xA680ABCF GT PUSH2 0xE7 JUMPI DUP1 PUSH4 0xA680ABCF EQ PUSH2 0x469 JUMPI DUP1 PUSH4 0xBBCE0059 EQ PUSH2 0x47F JUMPI DUP1 PUSH4 0xBBDA36C5 EQ PUSH2 0x487 JUMPI DUP1 PUSH4 0xC59EE1DC EQ PUSH2 0x4B4 JUMPI DUP1 PUSH4 0xCFA1A7EC EQ PUSH2 0x4CA JUMPI PUSH1 0x0 DUP1 REVERT JUMPDEST DUP1 PUSH4 0x7C6186F9 EQ PUSH2 0x3FF JUMPI DUP1 PUSH4 0x8DA5CB5B EQ PUSH2 0x415 JUMPI DUP1 PUSH4 0x8DADC69F EQ PUSH2 0x43D JUMPI DUP1 PUSH4 0x90D98D75 EQ PUSH2 0x453 JUMPI PUSH1 0x0 DUP1 REVERT JUMPDEST DUP1 PUSH4 0x46FC8A77 GT PUSH2 0x19B JUMPI DUP1 PUSH4 0x5BADF43A GT PUSH2 0x16A JUMPI DUP1 PUSH4 0x5BADF43A EQ PUSH2 0x396 JUMPI DUP1 PUSH4 0x5D41363F EQ PUSH2 0x39E JUMPI DUP1 PUSH4 0x5F7ADD42 EQ PUSH2 0x3B4 JUMPI DUP1 PUSH4 0x715018A6 EQ PUSH2 0x3CA JUMPI DUP1 PUSH4 0x7A09FC70 EQ PUSH2 0x3DF JUMPI PUSH1 0x0 DUP1 REVERT JUMPDEST DUP1 PUSH4 0x46FC8A77 EQ PUSH2 0x329 JUMPI DUP1 PUSH4 0x514D5071 EQ PUSH2 0x34B JUMPI DUP1 PUSH4 0x521FF4CE EQ PUSH2 0x360 JUMPI DUP1 PUSH4 0x5B9C476F EQ PUSH2 0x380 JUMPI PUSH1 0x0 DUP1 REVERT JUMPDEST DUP1 PUSH4 0x12065FE0 GT PUSH2 0x1E2 JUMPI DUP1 PUSH4 0x12065FE0 EQ PUSH2 0x28B JUMPI DUP1 PUSH4 0x1B3057CF EQ PUSH2 0x2AD JUMPI DUP1 PUSH4 0x27E235E3 EQ PUSH2 0x2CF JUMPI DUP1 PUSH4 0x2E58E582 EQ PUSH2 0x2FC JUMPI DUP1 PUSH4 0x2EB795D9 EQ PUSH2 0x313 JUMPI PUSH1 0x0 DUP1 REVERT JUMPDEST DUP1 PUSH4 0xA564A03 EQ PUSH2 0x214 JUMPI DUP1 PUSH4 0xAF0E796 EQ PUSH2 0x23D JUMPI DUP1 PUSH4 0x102CC3EA EQ PUSH2 0x25F JUMPI DUP1 PUSH4 0x118AB178 EQ PUSH2 0x275 JUMPI JUMPDEST PUSH1 0x0 DUP1 REVERT JUMPDEST CALLVALUE DUP1 ISZERO PUSH2 0x220 JUMPI PUSH1 0x0 DUP1 REVERT JUMPDEST POP PUSH2 0x22A PUSH1 0x4 SLOAD DUP2 JUMP JUMPDEST PUSH1 0x40 MLOAD SWAP1 DUP2 MSTORE PUSH1 0x20 ADD JUMPDEST PUSH1 0x40 MLOAD DUP1 SWAP2 SUB SWAP1 RETURN JUMPDEST CALLVALUE DUP1 ISZERO PUSH2 0x249 JUMPI PUSH1 0x0 DUP1 REVERT JUMPDEST POP CALLER PUSH1 0x0 SWAP1 DUP2 MSTORE PUSH1 0x18 PUSH1 0x20 MSTORE PUSH1 0x40 SWAP1 KECCAK256 SLOAD PUSH2 0x22A JUMP JUMPDEST CALLVALUE DUP1 ISZERO PUSH2 0x26B JUMPI PUSH1 0x0 DUP1 REVERT JUMPDEST POP PUSH2 0x22A PUSH1 0xC SLOAD DUP2 JUMP JUMPDEST CALLVALUE DUP1 ISZERO PUSH2 0x281 JUMPI PUSH1 0x0 DUP1 REVERT JUMPDEST POP PUSH2 0x22A PUSH1 0x5 SLOAD DUP2 JUMP JUMPDEST CALLVALUE DUP1 ISZERO PUSH2 0x297 JUMPI PUSH1 0x0 DUP1 REVERT JUMPDEST POP CALLER PUSH1 0x0 SWAP1 DUP2 MSTORE PUSH1 0x16 PUSH1 0x20 MSTORE PUSH1 0x40 SWAP1 KECCAK256 SLOAD PUSH2 0x22A JUMP JUMPDEST CALLVALUE DUP1 ISZERO PUSH2 0x2B9 JUMPI PUSH1 0x0 DUP1 REVERT JUMPDEST POP CALLER PUSH1 0x0 SWAP1 DUP2 MSTORE PUSH1 0x19 PUSH1 0x20 MSTORE PUSH1 0x40 SWAP1 KECCAK256 SLOAD PUSH2 0x22A JUMP JUMPDEST CALLVALUE DUP1 ISZERO PUSH2 0x2DB JUMPI PUSH1 0x0 DUP1 REVERT JUMPDEST POP PUSH2 0x22A PUSH2 0x2EA CALLDATASIZE PUSH1 0x4 PUSH2 0xCEA JUMP JUMPDEST PUSH1 0x16 PUSH1 0x20 MSTORE PUSH1 0x0 SWAP1 DUP2 MSTORE PUSH1 0x40 SWAP1 KECCAK256 SLOAD DUP2 JUMP JUMPDEST CALLVALUE DUP1 ISZERO PUSH2 0x308 JUMPI PUSH1 0x0 DUP1 REVERT JUMPDEST POP PUSH2 0x311 PUSH2 0x5D9 JUMP JUMPDEST STOP JUMPDEST CALLVALUE DUP1 ISZERO PUSH2 0x31F JUMPI PUSH1 0x0 DUP1 REVERT JUMPDEST POP PUSH2 0x22A PUSH1 0x10 SLOAD DUP2 JUMP JUMPDEST CALLVALUE DUP1 ISZERO PUSH2 0x335 JUMPI PUSH1 0x0 DUP1 REVERT JUMPDEST POP CALLER PUSH1 0x0 SWAP1 DUP2 MSTORE PUSH1 0x17 PUSH1 0x20 MSTORE PUSH1 0x40 SWAP1 KECCAK256 SLOAD PUSH2 0x22A JUMP JUMPDEST CALLVALUE DUP1 ISZERO PUSH2 0x357 JUMPI PUSH1 0x0 DUP1 REVERT JUMPDEST POP PUSH2 0x311 PUSH2 0x6AA JUMP JUMPDEST CALLVALUE DUP1 ISZERO PUSH2 0x36C JUMPI PUSH1 0x0 DUP1 REVERT JUMPDEST POP PUSH2 0x311 PUSH2 0x37B CALLDATASIZE PUSH1 0x4 PUSH2 0xD1A JUMP JUMPDEST PUSH2 0x72F JUMP JUMPDEST CALLVALUE DUP1 ISZERO PUSH2 0x38C JUMPI PUSH1 0x0 DUP1 REVERT JUMPDEST POP PUSH2 0x22A PUSH1 0xB SLOAD DUP2 JUMP JUMPDEST PUSH2 0x311 PUSH2 0x73C JUMP JUMPDEST CALLVALUE DUP1 ISZERO PUSH2 0x3AA JUMPI PUSH1 0x0 DUP1 REVERT JUMPDEST POP PUSH2 0x22A PUSH1 0x3 SLOAD DUP2 JUMP JUMPDEST CALLVALUE DUP1 ISZERO PUSH2 0x3C0 JUMPI PUSH1 0x0 DUP1 REVERT JUMPDEST POP PUSH2 0x22A PUSH1 0xA SLOAD DUP2 JUMP JUMPDEST CALLVALUE DUP1 ISZERO PUSH2 0x3D6 JUMPI PUSH1 0x0 DUP1 REVERT JUMPDEST POP PUSH2 0x311 PUSH2 0x857 JUMP JUMPDEST CALLVALUE DUP1 ISZERO PUSH2 0x3EB JUMPI PUSH1 0x0 DUP1 REVERT JUMPDEST POP PUSH2 0x311 PUSH2 0x3FA CALLDATASIZE PUSH1 0x4 PUSH2 0xD1A JUMP JUMPDEST PUSH2 0x86B JUMP JUMPDEST CALLVALUE DUP1 ISZERO PUSH2 0x40B JUMPI PUSH1 0x0 DUP1 REVERT JUMPDEST POP PUSH2 0x22A PUSH1 0x6 SLOAD DUP2 JUMP JUMPDEST CALLVALUE DUP1 ISZERO PUSH2 0x421 JUMPI PUSH1 0x0 DUP1 REVERT JUMPDEST POP PUSH1 0x0 SLOAD PUSH1 0x40 MLOAD PUSH1 0x1 PUSH1 0x1 PUSH1 0xA0 SHL SUB SWAP1 SWAP2 AND DUP2 MSTORE PUSH1 0x20 ADD PUSH2 0x234 JUMP JUMPDEST CALLVALUE DUP1 ISZERO PUSH2 0x449 JUMPI PUSH1 0x0 DUP1 REVERT JUMPDEST POP PUSH2 0x22A PUSH1 0x9 SLOAD DUP2 JUMP JUMPDEST CALLVALUE DUP1 ISZERO PUSH2 0x45F JUMPI PUSH1 0x0 DUP1 REVERT JUMPDEST POP PUSH2 0x22A PUSH1 0x12 SLOAD DUP2 JUMP JUMPDEST CALLVALUE DUP1 ISZERO PUSH2 0x475 JUMPI PUSH1 0x0 DUP1 REVERT JUMPDEST POP PUSH2 0x22A PUSH1 0x7 SLOAD DUP2 JUMP JUMPDEST PUSH2 0x311 PUSH2 0x878 JUMP JUMPDEST CALLVALUE DUP1 ISZERO PUSH2 0x493 JUMPI PUSH1 0x0 DUP1 REVERT JUMPDEST POP PUSH2 0x22A PUSH2 0x4A2 CALLDATASIZE PUSH1 0x4 PUSH2 0xCEA JUMP JUMPDEST PUSH1 0x19 PUSH1 0x20 MSTORE PUSH1 0x0 SWAP1 DUP2 MSTORE PUSH1 0x40 SWAP1 KECCAK256 SLOAD DUP2 JUMP JUMPDEST CALLVALUE DUP1 ISZERO PUSH2 0x4C0 JUMPI PUSH1 0x0 DUP1 REVERT JUMPDEST POP PUSH2 0x22A PUSH1 0xF SLOAD DUP2 JUMP JUMPDEST CALLVALUE DUP1 ISZERO PUSH2 0x4D6 JUMPI PUSH1 0x0 DUP1 REVERT JUMPDEST POP PUSH2 0x22A PUSH2 0x4E5 CALLDATASIZE PUSH1 0x4 PUSH2 0xCEA JUMP JUMPDEST PUSH1 0x17 PUSH1 0x20 MSTORE PUSH1 0x0 SWAP1 DUP2 MSTORE PUSH1 0x40 SWAP1 KECCAK256 SLOAD DUP2 JUMP JUMPDEST PUSH2 0x311 PUSH2 0xA05 JUMP JUMPDEST CALLVALUE DUP1 ISZERO PUSH2 0x50B JUMPI PUSH1 0x0 DUP1 REVERT JUMPDEST POP PUSH2 0x22A PUSH1 0x11 SLOAD DUP2 JUMP JUMPDEST CALLVALUE DUP1 ISZERO PUSH2 0x521 JUMPI PUSH1 0x0 DUP1 REVERT JUMPDEST POP PUSH2 0x22A PUSH1 0xD SLOAD DUP2 JUMP JUMPDEST CALLVALUE DUP1 ISZERO PUSH2 0x537 JUMPI PUSH1 0x0 DUP1 REVERT JUMPDEST POP PUSH2 0x22A PUSH1 0xE SLOAD DUP2 JUMP JUMPDEST CALLVALUE DUP1 ISZERO PUSH2 0x54D JUMPI PUSH1 0x0 DUP1 REVERT JUMPDEST POP PUSH2 0x22A PUSH2 0x55C CALLDATASIZE PUSH1 0x4 PUSH2 0xCEA JUMP JUMPDEST PUSH1 0x18 PUSH1 0x20 MSTORE PUSH1 0x0 SWAP1 DUP2 MSTORE PUSH1 0x40 SWAP1 KECCAK256 SLOAD DUP2 JUMP JUMPDEST CALLVALUE DUP1 ISZERO PUSH2 0x57A JUMPI PUSH1 0x0 DUP1 REVERT JUMPDEST POP PUSH2 0x311 PUSH2 0xB14 JUMP JUMPDEST CALLVALUE DUP1 ISZERO PUSH2 0x58F JUMPI PUSH1 0x0 DUP1 REVERT JUMPDEST POP PUSH2 0x22A PUSH1 0x8 SLOAD DUP2 JUMP JUMPDEST CALLVALUE DUP1 ISZERO PUSH2 0x5A5 JUMPI PUSH1 0x0 DUP1 REVERT JUMPDEST POP PUSH2 0x311 PUSH2 0x5B4 CALLDATASIZE PUSH1 0x4 PUSH2 0xCEA JUMP JUMPDEST PUSH2 0xB99 JUMP JUMPDEST CALLVALUE DUP1 ISZERO PUSH2 0x5C5 JUMPI PUSH1 0x0 DUP1 REVERT JUMPDEST POP PUSH2 0x311 PUSH2 0x5D4 CALLDATASIZE PUSH1 0x4 PUSH2 0xD1A JUMP JUMPDEST PUSH2 0xC12 JUMP JUMPDEST PUSH1 0x9 SLOAD TIMESTAMP GT PUSH2 0x603 JUMPI PUSH1 0x40 MLOAD PUSH3 0x461BCD PUSH1 0xE5 SHL DUP2 MSTORE PUSH1 0x4 ADD PUSH2 0x5FA SWAP1 PUSH2 0xD33 JUMP JUMPDEST PUSH1 0x40 MLOAD DUP1 SWAP2 SUB SWAP1 REVERT JUMPDEST CALLER PUSH1 0x0 SWAP1 DUP2 MSTORE PUSH1 0x18 PUSH1 0x20 MSTORE PUSH1 0x40 SWAP1 KECCAK256 SLOAD DUP1 PUSH2 0x61D JUMPI PUSH1 0x0 DUP1 REVERT JUMPDEST CALLER PUSH1 0x0 DUP2 DUP2 MSTORE PUSH1 0x18 PUSH1 0x20 MSTORE PUSH1 0x40 DUP1 DUP3 KECCAK256 SWAP2 SWAP1 SWAP2 SSTORE PUSH1 0x1 SLOAD SWAP1 MLOAD PUSH4 0xA9059CBB PUSH1 0xE0 SHL DUP2 MSTORE PUSH1 0x4 DUP2 ADD SWAP3 SWAP1 SWAP3 MSTORE PUSH1 0x24 DUP3 ADD DUP4 SWAP1 MSTORE PUSH1 0x1 PUSH1 0x1 PUSH1 0xA0 SHL SUB AND SWAP1 PUSH4 0xA9059CBB SWAP1 PUSH1 0x44 ADD JUMPDEST PUSH1 0x20 PUSH1 0x40 MLOAD DUP1 DUP4 SUB DUP2 PUSH1 0x0 DUP8 GAS CALL ISZERO DUP1 ISZERO PUSH2 0x682 JUMPI RETURNDATASIZE PUSH1 0x0 DUP1 RETURNDATACOPY RETURNDATASIZE PUSH1 0x0 REVERT JUMPDEST POP POP POP POP PUSH1 0x40 MLOAD RETURNDATASIZE PUSH1 0x1F NOT PUSH1 0x1F DUP3 ADD AND DUP3 ADD DUP1 PUSH1 0x40 MSTORE POP DUP2 ADD SWAP1 PUSH2 0x6A6 SWAP2 SWAP1 PUSH2 0xD5B JUMP JUMPDEST POP POP JUMP JUMPDEST PUSH1 0x7 SLOAD TIMESTAMP GT PUSH2 0x6CB JUMPI PUSH1 0x40 MLOAD PUSH3 0x461BCD PUSH1 0xE5 SHL DUP2 MSTORE PUSH1 0x4 ADD PUSH2 0x5FA SWAP1 PUSH2 0xD33 JUMP JUMPDEST CALLER PUSH1 0x0 SWAP1 DUP2 MSTORE PUSH1 0x17 PUSH1 0x20 MSTORE PUSH1 0x40 SWAP1 KECCAK256 SLOAD DUP1 PUSH2 0x6E5 JUMPI PUSH1 0x0 DUP1 REVERT JUMPDEST CALLER PUSH1 0x0 DUP2 DUP2 MSTORE PUSH1 0x17 PUSH1 0x20 MSTORE PUSH1 0x40 DUP1 DUP3 KECCAK256 SWAP2 SWAP1 SWAP2 SSTORE PUSH1 0x1 SLOAD SWAP1 MLOAD PUSH4 0xA9059CBB PUSH1 0xE0 SHL DUP2 MSTORE PUSH1 0x4 DUP2 ADD SWAP3 SWAP1 SWAP3 MSTORE PUSH1 0x24 DUP3 ADD DUP4 SWAP1 MSTORE PUSH1 0x1 PUSH1 0x1 PUSH1 0xA0 SHL SUB AND SWAP1 PUSH4 0xA9059CBB SWAP1 PUSH1 0x44 ADD PUSH2 0x663 JUMP JUMPDEST PUSH2 0x737 PUSH2 0xC1F JUMP JUMPDEST PUSH1 0x7 SSTORE JUMP JUMPDEST PUSH1 0x8 SLOAD TIMESTAMP LT ISZERO DUP1 ISZERO PUSH2 0x750 JUMPI POP PUSH1 0x9 SLOAD TIMESTAMP GT ISZERO JUMPDEST PUSH2 0x76C JUMPI PUSH1 0x40 MLOAD PUSH3 0x461BCD PUSH1 0xE5 SHL DUP2 MSTORE PUSH1 0x4 ADD PUSH2 0x5FA SWAP1 PUSH2 0xD7D JUMP JUMPDEST PUSH1 0xD SLOAD PUSH1 0x11 SLOAD LT PUSH2 0x78F JUMPI PUSH1 0x40 MLOAD PUSH3 0x461BCD PUSH1 0xE5 SHL DUP2 MSTORE PUSH1 0x4 ADD PUSH2 0x5FA SWAP1 PUSH2 0xDA3 JUMP JUMPDEST PUSH1 0x4 SLOAD CALLVALUE SWAP1 PUSH1 0x0 SWAP1 PUSH2 0x7A2 SWAP1 DUP4 SWAP1 PUSH2 0xC79 JUMP JUMPDEST PUSH1 0xF SLOAD SWAP1 SWAP2 POP PUSH2 0x7B2 SWAP1 DUP4 PUSH2 0xC8E JUMP JUMPDEST PUSH1 0xF SSTORE PUSH1 0x11 SLOAD PUSH2 0x7C2 SWAP1 DUP3 PUSH2 0xC8E JUMP JUMPDEST PUSH1 0x11 SSTORE CALLER PUSH1 0x0 SWAP1 DUP2 MSTORE PUSH1 0x16 PUSH1 0x20 MSTORE PUSH1 0x40 SWAP1 KECCAK256 SLOAD PUSH2 0x7DF SWAP1 DUP4 PUSH2 0xC8E JUMP JUMPDEST CALLER PUSH1 0x0 SWAP1 DUP2 MSTORE PUSH1 0x16 PUSH1 0x20 SWAP1 DUP2 MSTORE PUSH1 0x40 DUP1 DUP4 KECCAK256 SWAP4 SWAP1 SWAP4 SSTORE PUSH1 0x18 SWAP1 MSTORE KECCAK256 SLOAD PUSH2 0x805 SWAP1 DUP3 PUSH2 0xC8E JUMP JUMPDEST CALLER PUSH1 0x0 DUP2 DUP2 MSTORE PUSH1 0x18 PUSH1 0x20 MSTORE PUSH1 0x40 SWAP1 DUP2 SWAP1 KECCAK256 SWAP3 SWAP1 SWAP3 SSTORE SWAP1 MLOAD PUSH32 0xF4B351C7293F3C20FC9912C61ADBE9823A6DE3162BDE18C98EB6FEEAE232F861 SWAP1 PUSH2 0x84B SWAP1 DUP5 DUP2 MSTORE PUSH1 0x20 ADD SWAP1 JUMP JUMPDEST PUSH1 0x40 MLOAD DUP1 SWAP2 SUB SWAP1 LOG2 POP POP JUMP JUMPDEST PUSH2 0x85F PUSH2 0xC1F JUMP JUMPDEST PUSH2 0x869 PUSH1 0x0 PUSH2 0xC9A JUMP JUMPDEST JUMP JUMPDEST PUSH2 0x873 PUSH2 0xC1F JUMP JUMPDEST PUSH1 0xB SSTORE JUMP JUMPDEST PUSH1 0x6 SLOAD TIMESTAMP LT ISZERO DUP1 ISZERO PUSH2 0x88C JUMPI POP PUSH1 0x7 SLOAD TIMESTAMP GT ISZERO JUMPDEST PUSH2 0x8A8 JUMPI PUSH1 0x40 MLOAD PUSH3 0x461BCD PUSH1 0xE5 SHL DUP2 MSTORE PUSH1 0x4 ADD PUSH2 0x5FA SWAP1 PUSH2 0xD7D JUMP JUMPDEST PUSH1 0xC SLOAD PUSH1 0x10 SLOAD LT PUSH2 0x8CB JUMPI PUSH1 0x40 MLOAD PUSH3 0x461BCD PUSH1 0xE5 SHL DUP2 MSTORE PUSH1 0x4 ADD PUSH2 0x5FA SWAP1 PUSH2 0xDA3 JUMP JUMPDEST PUSH1 0x3 SLOAD CALLVALUE SWAP1 PUSH1 0x0 SWAP1 PUSH2 0x8DE SWAP1 DUP4 SWAP1 PUSH2 0xC79 JUMP JUMPDEST PUSH1 0xF SLOAD SWAP1 SWAP2 POP PUSH2 0x8EE SWAP1 DUP4 PUSH2 0xC8E JUMP JUMPDEST PUSH1 0xF SSTORE PUSH1 0x10 SLOAD PUSH2 0x8FE SWAP1 DUP3 PUSH2 0xC8E JUMP JUMPDEST PUSH1 0x10 SSTORE CALLER PUSH1 0x0 SWAP1 DUP2 MSTORE PUSH1 0x16 PUSH1 0x20 MSTORE PUSH1 0x40 SWAP1 KECCAK256 SLOAD PUSH2 0x91B SWAP1 DUP4 PUSH2 0xC8E JUMP JUMPDEST CALLER PUSH1 0x0 SWAP1 DUP2 MSTORE PUSH1 0x16 PUSH1 0x20 SWAP1 DUP2 MSTORE PUSH1 0x40 DUP1 DUP4 KECCAK256 SWAP4 SWAP1 SWAP4 SSTORE PUSH1 0x17 SWAP1 MSTORE KECCAK256 SLOAD PUSH2 0x941 SWAP1 DUP3 PUSH2 0xC8E JUMP JUMPDEST CALLER PUSH1 0x0 DUP2 DUP2 MSTORE PUSH1 0x17 PUSH1 0x20 MSTORE PUSH1 0x40 SWAP1 DUP2 SWAP1 KECCAK256 SWAP3 SWAP1 SWAP3 SSTORE PUSH1 0x2 SLOAD SWAP2 MLOAD PUSH4 0x23B872DD PUSH1 0xE0 SHL DUP2 MSTORE PUSH1 0x4 DUP2 ADD SWAP2 SWAP1 SWAP2 MSTORE ADDRESS PUSH1 0x24 DUP3 ADD MSTORE PUSH1 0x44 DUP2 ADD DUP5 SWAP1 MSTORE PUSH1 0x1 PUSH1 0x1 PUSH1 0xA0 SHL SUB SWAP1 SWAP2 AND SWAP1 PUSH4 0x23B872DD SWAP1 PUSH1 0x64 ADD PUSH1 0x20 PUSH1 0x40 MLOAD DUP1 DUP4 SUB DUP2 PUSH1 0x0 DUP8 GAS CALL ISZERO DUP1 ISZERO PUSH2 0x9AE JUMPI RETURNDATASIZE PUSH1 0x0 DUP1 RETURNDATACOPY RETURNDATASIZE PUSH1 0x0 REVERT JUMPDEST POP POP POP POP PUSH1 0x40 MLOAD RETURNDATASIZE PUSH1 0x1F NOT PUSH1 0x1F DUP3 ADD AND DUP3 ADD DUP1 PUSH1 0x40 MSTORE POP DUP2 ADD SWAP1 PUSH2 0x9D2 SWAP2 SWAP1 PUSH2 0xD5B JUMP JUMPDEST POP PUSH1 0x40 MLOAD DUP2 DUP2 MSTORE CALLER SWAP1 PUSH32 0xF4B351C7293F3C20FC9912C61ADBE9823A6DE3162BDE18C98EB6FEEAE232F861 SWAP1 PUSH1 0x20 ADD PUSH2 0x84B JUMP JUMPDEST PUSH1 0xA SLOAD TIMESTAMP LT ISZERO DUP1 ISZERO PUSH2 0xA19 JUMPI POP PUSH1 0xB SLOAD TIMESTAMP GT ISZERO JUMPDEST PUSH2 0xA35 JUMPI PUSH1 0x40 MLOAD PUSH3 0x461BCD PUSH1 0xE5 SHL DUP2 MSTORE PUSH1 0x4 ADD PUSH2 0x5FA SWAP1 PUSH2 0xD7D JUMP JUMPDEST PUSH1 0xE SLOAD PUSH1 0x12 SLOAD LT PUSH2 0xA58 JUMPI PUSH1 0x40 MLOAD PUSH3 0x461BCD PUSH1 0xE5 SHL DUP2 MSTORE PUSH1 0x4 ADD PUSH2 0x5FA SWAP1 PUSH2 0xDA3 JUMP JUMPDEST PUSH1 0x5 SLOAD CALLVALUE SWAP1 PUSH1 0x0 SWAP1 PUSH2 0xA6B SWAP1 DUP4 SWAP1 PUSH2 0xC79 JUMP JUMPDEST PUSH1 0xF SLOAD SWAP1 SWAP2 POP PUSH2 0xA7B SWAP1 DUP4 PUSH2 0xC8E JUMP JUMPDEST PUSH1 0xF SSTORE PUSH1 0x12 SLOAD PUSH2 0xA8B SWAP1 DUP3 PUSH2 0xC8E JUMP JUMPDEST PUSH1 0x12 SSTORE CALLER PUSH1 0x0 SWAP1 DUP2 MSTORE PUSH1 0x16 PUSH1 0x20 MSTORE PUSH1 0x40 SWAP1 KECCAK256 SLOAD PUSH2 0xAA8 SWAP1 DUP4 PUSH2 0xC8E JUMP JUMPDEST CALLER PUSH1 0x0 SWAP1 DUP2 MSTORE PUSH1 0x16 PUSH1 0x20 SWAP1 DUP2 MSTORE PUSH1 0x40 DUP1 DUP4 KECCAK256 SWAP4 SWAP1 SWAP4 SSTORE PUSH1 0x19 SWAP1 MSTORE KECCAK256 SLOAD PUSH2 0xACE SWAP1 DUP3 PUSH2 0xC8E JUMP JUMPDEST CALLER PUSH1 0x0 DUP2 DUP2 MSTORE PUSH1 0x19 PUSH1 0x20 MSTORE PUSH1 0x40 SWAP1 DUP2 SWAP1 KECCAK256 SWAP3 SWAP1 SWAP3 SSTORE SWAP1 MLOAD PUSH32 0xF4B351C7293F3C20FC9912C61ADBE9823A6DE3162BDE18C98EB6FEEAE232F861 SWAP1 PUSH2 0x84B SWAP1 DUP5 DUP2 MSTORE PUSH1 0x20 ADD SWAP1 JUMP JUMPDEST PUSH1 0xB SLOAD TIMESTAMP GT PUSH2 0xB35 JUMPI PUSH1 0x40 MLOAD PUSH3 0x461BCD PUSH1 0xE5 SHL DUP2 MSTORE PUSH1 0x4 ADD PUSH2 0x5FA SWAP1 PUSH2 0xD33 JUMP JUMPDEST CALLER PUSH1 0x0 SWAP1 DUP2 MSTORE PUSH1 0x19 PUSH1 0x20 MSTORE PUSH1 0x40 SWAP1 KECCAK256 SLOAD DUP1 PUSH2 0xB4F JUMPI PUSH1 0x0 DUP1 REVERT JUMPDEST CALLER PUSH1 0x0 DUP2 DUP2 MSTORE PUSH1 0x19 PUSH1 0x20 MSTORE PUSH1 0x40 DUP1 DUP3 KECCAK256 SWAP2 SWAP1 SWAP2 SSTORE PUSH1 0x1 SLOAD SWAP1 MLOAD PUSH4 0xA9059CBB PUSH1 0xE0 SHL DUP2 MSTORE PUSH1 0x4 DUP2 ADD SWAP3 SWAP1 SWAP3 MSTORE PUSH1 0x24 DUP3 ADD DUP4 SWAP1 MSTORE PUSH1 0x1 PUSH1 0x1 PUSH1 0xA0 SHL SUB AND SWAP1 PUSH4 0xA9059CBB SWAP1 PUSH1 0x44 ADD PUSH2 0x663 JUMP JUMPDEST PUSH2 0xBA1 PUSH2 0xC1F JUMP JUMPDEST PUSH1 0x1 PUSH1 0x1 PUSH1 0xA0 SHL SUB DUP2 AND PUSH2 0xC06 JUMPI PUSH1 0x40 MLOAD PUSH3 0x461BCD PUSH1 0xE5 SHL DUP2 MSTORE PUSH1 0x20 PUSH1 0x4 DUP3 ADD MSTORE PUSH1 0x26 PUSH1 0x24 DUP3 ADD MSTORE PUSH32 0x4F776E61626C653A206E6577206F776E657220697320746865207A65726F2061 PUSH1 0x44 DUP3 ADD MSTORE PUSH6 0x646472657373 PUSH1 0xD0 SHL PUSH1 0x64 DUP3 ADD MSTORE PUSH1 0x84 ADD PUSH2 0x5FA JUMP JUMPDEST PUSH2 0xC0F DUP2 PUSH2 0xC9A JUMP JUMPDEST POP JUMP JUMPDEST PUSH2 0xC1A PUSH2 0xC1F JUMP JUMPDEST PUSH1 0x9 SSTORE JUMP JUMPDEST PUSH1 0x0 SLOAD PUSH1 0x1 PUSH1 0x1 PUSH1 0xA0 SHL SUB AND CALLER EQ PUSH2 0x869 JUMPI PUSH1 0x40 MLOAD PUSH3 0x461BCD PUSH1 0xE5 SHL DUP2 MSTORE PUSH1 0x20 PUSH1 0x4 DUP3 ADD DUP2 SWAP1 MSTORE PUSH1 0x24 DUP3 ADD MSTORE PUSH32 0x4F776E61626C653A2063616C6C6572206973206E6F7420746865206F776E6572 PUSH1 0x44 DUP3 ADD MSTORE PUSH1 0x64 ADD PUSH2 0x5FA JUMP JUMPDEST PUSH1 0x0 PUSH2 0xC85 DUP3 DUP5 PUSH2 0xDE3 JUMP JUMPDEST SWAP1 POP JUMPDEST SWAP3 SWAP2 POP POP JUMP JUMPDEST PUSH1 0x0 PUSH2 0xC85 DUP3 DUP5 PUSH2 0xE02 JUMP JUMPDEST PUSH1 0x0 DUP1 SLOAD PUSH1 0x1 PUSH1 0x1 PUSH1 0xA0 SHL SUB DUP4 DUP2 AND PUSH1 0x1 PUSH1 0x1 PUSH1 0xA0 SHL SUB NOT DUP4 AND DUP2 OR DUP5 SSTORE PUSH1 0x40 MLOAD SWAP2 SWAP1 SWAP3 AND SWAP3 DUP4 SWAP2 PUSH32 0x8BE0079C531659141344CD1FD0A4F28419497F9722A3DAAFE3B4186F6B6457E0 SWAP2 SWAP1 LOG3 POP POP JUMP JUMPDEST PUSH1 0x0 PUSH1 0x20 DUP3 DUP5 SUB SLT ISZERO PUSH2 0xCFC JUMPI PUSH1 0x0 DUP1 REVERT JUMPDEST DUP2 CALLDATALOAD PUSH1 0x1 PUSH1 0x1 PUSH1 0xA0 SHL SUB DUP2 AND DUP2 EQ PUSH2 0xD13 JUMPI PUSH1 0x0 DUP1 REVERT JUMPDEST SWAP4 SWAP3 POP POP POP JUMP JUMPDEST PUSH1 0x0 PUSH1 0x20 DUP3 DUP5 SUB SLT ISZERO PUSH2 0xD2C JUMPI PUSH1 0x0 DUP1 REVERT JUMPDEST POP CALLDATALOAD SWAP2 SWAP1 POP JUMP JUMPDEST PUSH1 0x20 DUP1 DUP3 MSTORE PUSH1 0xE SWAP1 DUP3 ADD MSTORE PUSH14 0x92869E40DCDEE840CCD2DCD2E6D PUSH1 0x93 SHL PUSH1 0x40 DUP3 ADD MSTORE PUSH1 0x60 ADD SWAP1 JUMP JUMPDEST PUSH1 0x0 PUSH1 0x20 DUP3 DUP5 SUB SLT ISZERO PUSH2 0xD6D JUMPI PUSH1 0x0 DUP1 REVERT JUMPDEST DUP2 MLOAD DUP1 ISZERO ISZERO DUP2 EQ PUSH2 0xD13 JUMPI PUSH1 0x0 DUP1 REVERT JUMPDEST PUSH1 0x20 DUP1 DUP3 MSTORE PUSH1 0xC SWAP1 DUP3 ADD MSTORE PUSH12 0x24A1A7903737BA1037B832B7 PUSH1 0xA1 SHL PUSH1 0x40 DUP3 ADD MSTORE PUSH1 0x60 ADD SWAP1 JUMP JUMPDEST PUSH1 0x20 DUP1 DUP3 MSTORE PUSH1 0x10 SWAP1 DUP3 ADD MSTORE PUSH16 0x12185C990810D85C081C995858DA1959 PUSH1 0x82 SHL PUSH1 0x40 DUP3 ADD MSTORE PUSH1 0x60 ADD SWAP1 JUMP JUMPDEST PUSH4 0x4E487B71 PUSH1 0xE0 SHL PUSH1 0x0 MSTORE PUSH1 0x11 PUSH1 0x4 MSTORE PUSH1 0x24 PUSH1 0x0 REVERT JUMPDEST PUSH1 0x0 DUP2 PUSH1 0x0 NOT DIV DUP4 GT DUP3 ISZERO ISZERO AND ISZERO PUSH2 0xDFD JUMPI PUSH2 0xDFD PUSH2 0xDCD JUMP JUMPDEST POP MUL SWAP1 JUMP JUMPDEST DUP1 DUP3 ADD DUP1 DUP3 GT ISZERO PUSH2 0xC88 JUMPI PUSH2 0xC88 PUSH2 0xDCD JUMP INVALID LOG2 PUSH5 0x6970667358 0x22 SLT KECCAK256 0xC8 DUP1 0xEC BASEFEE DUP10 PUSH5 0xF50AD295EB DUP3 DUP3 0xBB 0xB4 0xD3 PUSH15 0xD64B34349408968DE7C354CD00D1CC PUSH5 0x736F6C6343 STOP ADDMOD LT STOP CALLER NUMBER PUSH13 0x6F73696E6754696D65206E6565 PUSH5 0x20746F2062 PUSH6 0x207375706572 PUSH10 0x6F720000000000000000 "},"methodIdentifiers":{"balances(address)":"27e235e3","balancesToken1(address)":"cfa1a7ec","balancesToken2(address)":"e7e879df","balancesToken3(address)":"bbda36c5","buyTokensRound1()":"bbce0059","buyTokensRound2()":"5badf43a","buyTokensRound3()":"d9c9ce10","changeClosingTimeRound1(uint256)":"521ff4ce","changeClosingTimeRound2(uint256)":"fe6154df","changeClosingTimeRound3(uint256)":"7a09fc70","closingTimeRound1()":"a680abcf","closingTimeRound2()":"8dadc69f","closingTimeRound3()":"5b9c476f","getBalance()":"12065fe0","getBalanceToken1()":"46fc8a77","getBalanceToken2()":"0af0e796","getBalanceToken3()":"1b3057cf","hardCapRound1()":"102cc3ea","hardCapRound2()":"dc372b5a","hardCapRound3()":"e744e9c6","openingTimeRound1()":"7c6186f9","openingTimeRound2()":"eccbaf7e","openingTimeRound3()":"5f7add42","owner()":"8da5cb5b","raisedAmount()":"c59ee1dc","rateRound1()":"5d41363f","rateRound2()":"0a564a03","rateRound3()":"118ab178","renounceOwnership()":"715018a6","tokenAmountRound1()":"2eb795d9","tokenAmountRound2()":"dbabeb25","tokenAmountRound3()":"90d98d75","transferOwnership(address)":"f2fde38b","withdrawTokensRound1()":"514d5071","withdrawTokensRound2()":"2e58e582","withdrawTokensRound3()":"ec0be958"}}}}}