{"contracts/DenariusStaking.sol":{"DenariusStaking":{"abi":[{"inputs":[{"internalType":"address","name":"_token","type":"address"},{"internalType":"uint8","name":"_fixedAPY","type":"uint8"},{"internalType":"uint256","name":"_durationInDays","type":"uint256"},{"internalType":"uint256","name":"_lockDurationInDays","type":"uint256"},{"internalType":"uint256","name":"_maxAmountStaked","type":"uint256"}],"stateMutability":"nonpayable","type":"constructor"},{"anonymous":false,"inputs":[{"indexed":true,"internalType":"address","name":"stakeHolder","type":"address"},{"indexed":false,"internalType":"uint256","name":"amount","type":"uint256"}],"name":"Claim","type":"event"},{"anonymous":false,"inputs":[{"indexed":true,"internalType":"address","name":"owner","type":"address"},{"indexed":false,"internalType":"uint256","name":"amount","type":"uint256"}],"name":"Deposit","type":"event"},{"anonymous":false,"inputs":[{"indexed":true,"internalType":"address","name":"previousOwner","type":"address"},{"indexed":true,"internalType":"address","name":"newOwner","type":"address"}],"name":"OwnershipTransferred","type":"event"},{"anonymous":false,"inputs":[{"indexed":false,"internalType":"uint256","name":"startPeriod","type":"uint256"},{"indexed":false,"internalType":"uint256","name":"lockupPeriod","type":"uint256"},{"indexed":false,"internalType":"uint256","name":"endingPeriod","type":"uint256"}],"name":"StartStaking","type":"event"},{"anonymous":false,"inputs":[{"indexed":true,"internalType":"address","name":"owner","type":"address"},{"indexed":false,"internalType":"uint256","name":"amount","type":"uint256"}],"name":"Withdraw","type":"event"},{"inputs":[{"internalType":"address","name":"stakeHolder","type":"address"}],"name":"amountStaked","outputs":[{"internalType":"uint256","name":"","type":"uint256"}],"stateMutability":"view","type":"function"},{"inputs":[],"name":"claimRewards","outputs":[],"stateMutability":"nonpayable","type":"function"},{"inputs":[{"internalType":"uint256","name":"amount","type":"uint256"}],"name":"deposit","outputs":[],"stateMutability":"nonpayable","type":"function"},{"inputs":[],"name":"endPeriod","outputs":[{"internalType":"uint256","name":"","type":"uint256"}],"stateMutability":"view","type":"function"},{"inputs":[],"name":"fixedAPY","outputs":[{"internalType":"uint8","name":"","type":"uint8"}],"stateMutability":"view","type":"function"},{"inputs":[],"name":"lockupDuration","outputs":[{"internalType":"uint256","name":"","type":"uint256"}],"stateMutability":"view","type":"function"},{"inputs":[],"name":"lockupPeriod","outputs":[{"internalType":"uint256","name":"","type":"uint256"}],"stateMutability":"view","type":"function"},{"inputs":[],"name":"owner","outputs":[{"internalType":"address","name":"","type":"address"}],"stateMutability":"view","type":"function"},{"inputs":[],"name":"renounceOwnership","outputs":[],"stateMutability":"nonpayable","type":"function"},{"inputs":[{"internalType":"address","name":"stakeHolder","type":"address"}],"name":"rewardOf","outputs":[{"internalType":"uint256","name":"","type":"uint256"}],"stateMutability":"view","type":"function"},{"inputs":[{"internalType":"address","name":"","type":"address"}],"name":"staked","outputs":[{"internalType":"uint256","name":"","type":"uint256"}],"stateMutability":"view","type":"function"},{"inputs":[],"name":"stakingDuration","outputs":[{"internalType":"uint256","name":"","type":"uint256"}],"stateMutability":"view","type":"function"},{"inputs":[],"name":"stakingMax","outputs":[{"internalType":"uint256","name":"","type":"uint256"}],"stateMutability":"view","type":"function"},{"inputs":[],"name":"startPeriod","outputs":[{"internalType":"uint256","name":"","type":"uint256"}],"stateMutability":"view","type":"function"},{"inputs":[],"name":"startStaking","outputs":[],"stateMutability":"nonpayable","type":"function"},{"inputs":[],"name":"token","outputs":[{"internalType":"contract IERC20","name":"","type":"address"}],"stateMutability":"view","type":"function"},{"inputs":[],"name":"totalDeposited","outputs":[{"internalType":"uint256","name":"","type":"uint256"}],"stateMutability":"view","type":"function"},{"inputs":[{"internalType":"address","name":"newOwner","type":"address"}],"name":"transferOwnership","outputs":[],"stateMutability":"nonpayable","type":"function"},{"inputs":[{"internalType":"uint256","name":"amount","type":"uint256"}],"name":"withdraw","outputs":[],"stateMutability":"nonpayable","type":"function"},{"inputs":[],"name":"withdrawAll","outputs":[],"stateMutability":"nonpayable","type":"function"},{"inputs":[],"name":"withdrawResidualBalance","outputs":[],"stateMutability":"nonpayable","type":"function"}],"evm":{"bytecode":{"linkReferences":{},"object":"610120604052620f424060055534801561001857600080fd5b50604051611517380380611517833981016040819052610037916100b6565b61004033610066565b60c09290925260e0526001600160a01b0390921660805260ff1660a0526101005261011b565b600080546001600160a01b038381166001600160a01b0319831681178455604051919092169283917f8be0079c531659141344cd1fd0a4f28419497f9722a3daafe3b4186f6b6457e09190a35050565b600080600080600060a086880312156100ce57600080fd5b85516001600160a01b03811681146100e557600080fd5b602087015190955060ff811681146100fc57600080fd5b6040870151606088015160809098015196999198509695945092505050565b60805160a05160c05160e051610100516113646101b3600039600081816102bf015261076d0152600081816101410152818161059201526105f5015260008181610206015281816105bf01528181610e5a01528181610e8201528181610efc0152610f2c0152600081816101b40152610b7e015260008181610301015281816104b2015281816108ac0152610a0701526113646000f3fe608060405234801561001057600080fd5b50600436106101375760003560e01c8063853828b6116100b8578063ef40a6701161007c578063ef40a67014610291578063f0316bc8146102ba578063f2fde38b146102e1578063fb468ac3146102f4578063fc0c546a146102fc578063ff50abdc1461032357600080fd5b8063853828b6146102285780638da5cb5b1461023057806398807d8414610255578063b6b55f2514610275578063ee947a7c1461028857600080fd5b806348c9eaaf116100ff57806348c9eaaf146101af5780635faa65ff146101e8578063715018a6146101f157806371b0cbfa146101f95780638005a7de1461020157600080fd5b80631ada70a81461013c5780631d62ebd9146101765780632e1a7d4d1461018957806330bfb9bb1461019e578063372500ab146101a7575b600080fd5b6101637f000000000000000000000000000000000000000000000000000000000000000081565b6040519081526020015b60405180910390f35b6101636101843660046111c9565b61032b565b61019c6101973660046111f2565b61033c565b005b61016360015481565b61019c610512565b6101d67f000000000000000000000000000000000000000000000000000000000000000081565b60405160ff909116815260200161016d565b61016360035481565b61019c61051c565b61019c61052e565b6101637f000000000000000000000000000000000000000000000000000000000000000081565b61019c61064e565b6000546001600160a01b03165b6040516001600160a01b03909116815260200161016d565b6101636102633660046111c9565b60066020526000908152604090205481565b61019c6102833660046111f2565b610718565b61016360025481565b61016361029f3660046111c9565b6001600160a01b031660009081526006602052604090205490565b6101637f000000000000000000000000000000000000000000000000000000000000000081565b61019c6102ef3660046111c9565b61090e565b61019c610987565b61023d7f000000000000000000000000000000000000000000000000000000000000000081565b600454610163565b600061033682610af7565b92915050565b6002544210156103935760405162461bcd60e51b815260206004820152601d60248201527f4e6f20776974686472617720756e74696c206c6f636b757020656e647300000060448201526064015b60405180910390fd5b600081116103e35760405162461bcd60e51b815260206004820152601d60248201527f416d6f756e74206d7573742062652067726561746572207468616e2030000000604482015260640161038a565b336000908152600660205260409020548111156104425760405162461bcd60e51b815260206004820152601f60248201527f416d6f756e7420686967686572207468616e207374616b6564416d6f756e7400604482015260640161038a565b61044a610bc2565b336000908152600760205260409020541561046757610467610c01565b80600460008282546104799190611221565b9091555050336000908152600660205260408120805483929061049d908490611221565b909155506104d99050335b6001600160a01b037f0000000000000000000000000000000000000000000000000000000000000000169083610ca4565b60405181815233907f884edad9ce6fa2440d8a54cc123490eb96d2768479d49ff9c7366125a9424364906020015b60405180910390a250565b61051a610c01565b565b610524610d0c565b61051a6000610d66565b610536610d0c565b600154156105865760405162461bcd60e51b815260206004820152601b60248201527f5374616b696e672068617320616c726561647920737461727465640000000000604482015260640161038a565b4260018190556105b7907f000000000000000000000000000000000000000000000000000000000000000090611234565b6002556105e47f000000000000000000000000000000000000000000000000000000000000000042611234565b6003819055600154604080519182527f000000000000000000000000000000000000000000000000000000000000000060208301528101919091527f0cdba3fb0a2020e0c9dc500b2679007a9c91cfcf35acab0eb46766c1200b42cd9060600160405180910390a1565b6002544210156106a05760405162461bcd60e51b815260206004820152601d60248201527f4e6f20776974686472617720756e74696c206c6f636b757020656e6473000000604482015260640161038a565b6106a8610bc2565b33600090815260076020526040902054156106c5576106c5610c01565b336000908152600860209081526040808320839055600690915281205460048054919290916106f5908490611221565b90915550503360008181526006602052604081208054919055906104d9906104a8565b6003541580610728575042600354115b61076b5760405162461bcd60e51b815260206004820152601460248201527314dd185ada5b99c81c195c9a5bd908195b99195960621b604482015260640161038a565b7f00000000000000000000000000000000000000000000000000000000000000008160045461079a9190611234565b11156107e85760405162461bcd60e51b815260206004820152601e60248201527f416d6f756e74207374616b65642065786365656473204d61785374616b650000604482015260640161038a565b600081116108385760405162461bcd60e51b815260206004820152601d60248201527f416d6f756e74206d7573742062652067726561746572207468616e2030000000604482015260640161038a565b336000908152600860205260408120549003610861573360009081526008602052604090204290555b610869610bc2565b3360009081526006602052604081208054839290610888908490611234565b9250508190555080600460008282546108a19190611234565b909155506108dc90507f00000000000000000000000000000000000000000000000000000000000000006001600160a01b0316333084610db6565b60405181815233907fe1fffcc4923d04b559f4d29a8bfc6cda04eb5b0d3c460751c2402c5c5cc9109c90602001610507565b610916610d0c565b6001600160a01b03811661097b5760405162461bcd60e51b815260206004820152602660248201527f4f776e61626c653a206e6577206f776e657220697320746865207a65726f206160448201526564647265737360d01b606482015260840161038a565b61098481610d66565b50565b61098f610d0c565b6003546109a0906301e13380611234565b4210156109ef5760405162461bcd60e51b815260206004820152601e60248201527f576974686472617720317965617220616674657220656e64506572696f640000604482015260640161038a565b6040516370a0823160e01b81523060048201526000907f00000000000000000000000000000000000000000000000000000000000000006001600160a01b0316906370a0823190602401602060405180830381865afa158015610a56573d6000803e3d6000fd5b505050506040513d601f19601f82011682018060405250810190610a7a9190611247565b9050600060045482610a8c9190611221565b905060008111610ade5760405162461bcd60e51b815260206004820152601f60248201527f4e6f20726573696475616c2042616c616e636520746f20776974686472617700604482015260640161038a565b610af36104a86000546001600160a01b031690565b5050565b600060015460001480610b2057506001600160a01b038216600090815260066020526040902054155b15610b2d57506000919050565b6001600160a01b038216600090815260076020526040902054600554610b54906064611260565b610b5d84610df4565b6001600160a01b038516600090815260066020526040902054610ba49060ff7f00000000000000000000000000000000000000000000000000000000000000001690611260565b610bae9190611260565b610bb89190611277565b6103369190611234565b610bcb33610af7565b33600090815260076020526040902055600354421015610beb5742610bef565b6003545b33600090815260086020526040902055565b610c09610bc2565b3360009081526007602052604090205480610c595760405162461bcd60e51b815260206004820152601060248201526f4e6f7468696e6720746f20636c61696d60801b604482015260640161038a565b33600081815260076020526040812055610c72906104a8565b60405181815233907f47cee97cb7acd717b3c0aa1435d004cd5b3c8c57d70dbceb4e4458bbd60e39d490602001610507565b6040516001600160a01b038316602482015260448101829052610d0790849063a9059cbb60e01b906064015b60408051601f198184030181529190526020810180516001600160e01b03166001600160e01b031990931692909217909152610f74565b505050565b6000546001600160a01b0316331461051a5760405162461bcd60e51b815260206004820181905260248201527f4f776e61626c653a2063616c6c6572206973206e6f7420746865206f776e6572604482015260640161038a565b600080546001600160a01b038381166001600160a01b0319831681178455604051919092169283917f8be0079c531659141344cd1fd0a4f28419497f9722a3daafe3b4186f6b6457e09190a35050565b6040516001600160a01b0380851660248301528316604482015260648101829052610dee9085906323b872dd60e01b90608401610cd0565b50505050565b6001600160a01b0381166000908152600860205260408120546001546003549110908290421015610ecb5781610e42576001600160a01b038416600090815260086020526040902054610e46565b6001545b90506000610e548242611221565b610e7e907f0000000000000000000000000000000000000000000000000000000000000000611221565b90507f0000000000000000000000000000000000000000000000000000000000000000610eab8282611221565b600554610eb89190611260565b610ec29190611277565b95945050505050565b81610f25576001600160a01b038416600090815260086020526040902054600354610ef69190611221565b610f20907f0000000000000000000000000000000000000000000000000000000000000000611221565b610f28565b60005b90507f0000000000000000000000000000000000000000000000000000000000000000610f558282611221565b600554610f629190611260565b610f6c9190611277565b949350505050565b6000610fc9826040518060400160405280602081526020017f5361666545524332303a206c6f772d6c6576656c2063616c6c206661696c6564815250856001600160a01b03166110469092919063ffffffff16565b805190915015610d075780806020019051810190610fe79190611299565b610d075760405162461bcd60e51b815260206004820152602a60248201527f5361666545524332303a204552433230206f7065726174696f6e20646964206e6044820152691bdd081cdd58d8d9595960b21b606482015260840161038a565b6060611055848460008561105f565b90505b9392505050565b6060824710156110c05760405162461bcd60e51b815260206004820152602660248201527f416464726573733a20696e73756666696369656e742062616c616e636520666f6044820152651c8818d85b1b60d21b606482015260840161038a565b6001600160a01b0385163b6111175760405162461bcd60e51b815260206004820152601d60248201527f416464726573733a2063616c6c20746f206e6f6e2d636f6e7472616374000000604482015260640161038a565b600080866001600160a01b0316858760405161113391906112df565b60006040518083038185875af1925050503d8060008114611170576040519150601f19603f3d011682016040523d82523d6000602084013e611175565b606091505b5091509150611185828286611190565b979650505050505050565b6060831561119f575081611058565b8251156111af5782518084602001fd5b8160405162461bcd60e51b815260040161038a91906112fb565b6000602082840312156111db57600080fd5b81356001600160a01b038116811461105857600080fd5b60006020828403121561120457600080fd5b5035919050565b634e487b7160e01b600052601160045260246000fd5b818103818111156103365761033661120b565b808201808211156103365761033661120b565b60006020828403121561125957600080fd5b5051919050565b80820281158282048414176103365761033661120b565b60008261129457634e487b7160e01b600052601260045260246000fd5b500490565b6000602082840312156112ab57600080fd5b8151801515811461105857600080fd5b60005b838110156112d65781810151838201526020016112be565b50506000910152565b600082516112f18184602087016112bb565b9190910192915050565b602081526000825180602084015261131a8160408501602087016112bb565b601f01601f1916919091016040019291505056fea2646970667358221220d3b11b4940ec886d62bcd49d652334e58a0ce596e254793e0c285749b62befac64736f6c63430008110033","opcodes":"PUSH2 0x120 PUSH1 0x40 MSTORE PUSH3 0xF4240 PUSH1 0x5 SSTORE CALLVALUE DUP1 ISZERO PUSH2 0x18 JUMPI PUSH1 0x0 DUP1 REVERT JUMPDEST POP PUSH1 0x40 MLOAD PUSH2 0x1517 CODESIZE SUB DUP1 PUSH2 0x1517 DUP4 CODECOPY DUP2 ADD PUSH1 0x40 DUP2 SWAP1 MSTORE PUSH2 0x37 SWAP2 PUSH2 0xB6 JUMP JUMPDEST PUSH2 0x40 CALLER PUSH2 0x66 JUMP JUMPDEST PUSH1 0xC0 SWAP3 SWAP1 SWAP3 MSTORE PUSH1 0xE0 MSTORE PUSH1 0x1 PUSH1 0x1 PUSH1 0xA0 SHL SUB SWAP1 SWAP3 AND PUSH1 0x80 MSTORE PUSH1 0xFF AND PUSH1 0xA0 MSTORE PUSH2 0x100 MSTORE PUSH2 0x11B JUMP JUMPDEST PUSH1 0x0 DUP1 SLOAD PUSH1 0x1 PUSH1 0x1 PUSH1 0xA0 SHL SUB DUP4 DUP2 AND PUSH1 0x1 PUSH1 0x1 PUSH1 0xA0 SHL SUB NOT DUP4 AND DUP2 OR DUP5 SSTORE PUSH1 0x40 MLOAD SWAP2 SWAP1 SWAP3 AND SWAP3 DUP4 SWAP2 PUSH32 0x8BE0079C531659141344CD1FD0A4F28419497F9722A3DAAFE3B4186F6B6457E0 SWAP2 SWAP1 LOG3 POP POP JUMP JUMPDEST PUSH1 0x0 DUP1 PUSH1 0x0 DUP1 PUSH1 0x0 PUSH1 0xA0 DUP7 DUP9 SUB SLT ISZERO PUSH2 0xCE JUMPI PUSH1 0x0 DUP1 REVERT JUMPDEST DUP6 MLOAD PUSH1 0x1 PUSH1 0x1 PUSH1 0xA0 SHL SUB DUP2 AND DUP2 EQ PUSH2 0xE5 JUMPI PUSH1 0x0 DUP1 REVERT JUMPDEST PUSH1 0x20 DUP8 ADD MLOAD SWAP1 SWAP6 POP PUSH1 0xFF DUP2 AND DUP2 EQ PUSH2 0xFC JUMPI PUSH1 0x0 DUP1 REVERT JUMPDEST PUSH1 0x40 DUP8 ADD MLOAD PUSH1 0x60 DUP9 ADD MLOAD PUSH1 0x80 SWAP1 SWAP9 ADD MLOAD SWAP7 SWAP10 SWAP2 SWAP9 POP SWAP7 SWAP6 SWAP5 POP SWAP3 POP POP POP JUMP JUMPDEST PUSH1 0x80 MLOAD PUSH1 0xA0 MLOAD PUSH1 0xC0 MLOAD PUSH1 0xE0 MLOAD PUSH2 0x100 MLOAD PUSH2 0x1364 PUSH2 0x1B3 PUSH1 0x0 CODECOPY PUSH1 0x0 DUP2 DUP2 PUSH2 0x2BF ADD MSTORE PUSH2 0x76D ADD MSTORE PUSH1 0x0 DUP2 DUP2 PUSH2 0x141 ADD MSTORE DUP2 DUP2 PUSH2 0x592 ADD MSTORE PUSH2 0x5F5 ADD MSTORE PUSH1 0x0 DUP2 DUP2 PUSH2 0x206 ADD MSTORE DUP2 DUP2 PUSH2 0x5BF ADD MSTORE DUP2 DUP2 PUSH2 0xE5A ADD MSTORE DUP2 DUP2 PUSH2 0xE82 ADD MSTORE DUP2 DUP2 PUSH2 0xEFC ADD MSTORE PUSH2 0xF2C ADD MSTORE PUSH1 0x0 DUP2 DUP2 PUSH2 0x1B4 ADD MSTORE PUSH2 0xB7E ADD MSTORE PUSH1 0x0 DUP2 DUP2 PUSH2 0x301 ADD MSTORE DUP2 DUP2 PUSH2 0x4B2 ADD MSTORE DUP2 DUP2 PUSH2 0x8AC ADD MSTORE PUSH2 0xA07 ADD MSTORE PUSH2 0x1364 PUSH1 0x0 RETURN INVALID PUSH1 0x80 PUSH1 0x40 MSTORE CALLVALUE DUP1 ISZERO PUSH2 0x10 JUMPI PUSH1 0x0 DUP1 REVERT JUMPDEST POP PUSH1 0x4 CALLDATASIZE LT PUSH2 0x137 JUMPI PUSH1 0x0 CALLDATALOAD PUSH1 0xE0 SHR DUP1 PUSH4 0x853828B6 GT PUSH2 0xB8 JUMPI DUP1 PUSH4 0xEF40A670 GT PUSH2 0x7C JUMPI DUP1 PUSH4 0xEF40A670 EQ PUSH2 0x291 JUMPI DUP1 PUSH4 0xF0316BC8 EQ PUSH2 0x2BA JUMPI DUP1 PUSH4 0xF2FDE38B EQ PUSH2 0x2E1 JUMPI DUP1 PUSH4 0xFB468AC3 EQ PUSH2 0x2F4 JUMPI DUP1 PUSH4 0xFC0C546A EQ PUSH2 0x2FC JUMPI DUP1 PUSH4 0xFF50ABDC EQ PUSH2 0x323 JUMPI PUSH1 0x0 DUP1 REVERT JUMPDEST DUP1 PUSH4 0x853828B6 EQ PUSH2 0x228 JUMPI DUP1 PUSH4 0x8DA5CB5B EQ PUSH2 0x230 JUMPI DUP1 PUSH4 0x98807D84 EQ PUSH2 0x255 JUMPI DUP1 PUSH4 0xB6B55F25 EQ PUSH2 0x275 JUMPI DUP1 PUSH4 0xEE947A7C EQ PUSH2 0x288 JUMPI PUSH1 0x0 DUP1 REVERT JUMPDEST DUP1 PUSH4 0x48C9EAAF GT PUSH2 0xFF JUMPI DUP1 PUSH4 0x48C9EAAF EQ PUSH2 0x1AF JUMPI DUP1 PUSH4 0x5FAA65FF EQ PUSH2 0x1E8 JUMPI DUP1 PUSH4 0x715018A6 EQ PUSH2 0x1F1 JUMPI DUP1 PUSH4 0x71B0CBFA EQ PUSH2 0x1F9 JUMPI DUP1 PUSH4 0x8005A7DE EQ PUSH2 0x201 JUMPI PUSH1 0x0 DUP1 REVERT JUMPDEST DUP1 PUSH4 0x1ADA70A8 EQ PUSH2 0x13C JUMPI DUP1 PUSH4 0x1D62EBD9 EQ PUSH2 0x176 JUMPI DUP1 PUSH4 0x2E1A7D4D EQ PUSH2 0x189 JUMPI DUP1 PUSH4 0x30BFB9BB EQ PUSH2 0x19E JUMPI DUP1 PUSH4 0x372500AB EQ PUSH2 0x1A7 JUMPI JUMPDEST PUSH1 0x0 DUP1 REVERT JUMPDEST PUSH2 0x163 PUSH32 0x0 DUP2 JUMP JUMPDEST PUSH1 0x40 MLOAD SWAP1 DUP2 MSTORE PUSH1 0x20 ADD JUMPDEST PUSH1 0x40 MLOAD DUP1 SWAP2 SUB SWAP1 RETURN JUMPDEST PUSH2 0x163 PUSH2 0x184 CALLDATASIZE PUSH1 0x4 PUSH2 0x11C9 JUMP JUMPDEST PUSH2 0x32B JUMP JUMPDEST PUSH2 0x19C PUSH2 0x197 CALLDATASIZE PUSH1 0x4 PUSH2 0x11F2 JUMP JUMPDEST PUSH2 0x33C JUMP JUMPDEST STOP JUMPDEST PUSH2 0x163 PUSH1 0x1 SLOAD DUP2 JUMP JUMPDEST PUSH2 0x19C PUSH2 0x512 JUMP JUMPDEST PUSH2 0x1D6 PUSH32 0x0 DUP2 JUMP JUMPDEST PUSH1 0x40 MLOAD PUSH1 0xFF SWAP1 SWAP2 AND DUP2 MSTORE PUSH1 0x20 ADD PUSH2 0x16D JUMP JUMPDEST PUSH2 0x163 PUSH1 0x3 SLOAD DUP2 JUMP JUMPDEST PUSH2 0x19C PUSH2 0x51C JUMP JUMPDEST PUSH2 0x19C PUSH2 0x52E JUMP JUMPDEST PUSH2 0x163 PUSH32 0x0 DUP2 JUMP JUMPDEST PUSH2 0x19C PUSH2 0x64E JUMP JUMPDEST PUSH1 0x0 SLOAD PUSH1 0x1 PUSH1 0x1 PUSH1 0xA0 SHL SUB AND JUMPDEST PUSH1 0x40 MLOAD PUSH1 0x1 PUSH1 0x1 PUSH1 0xA0 SHL SUB SWAP1 SWAP2 AND DUP2 MSTORE PUSH1 0x20 ADD PUSH2 0x16D JUMP JUMPDEST PUSH2 0x163 PUSH2 0x263 CALLDATASIZE PUSH1 0x4 PUSH2 0x11C9 JUMP JUMPDEST PUSH1 0x6 PUSH1 0x20 MSTORE PUSH1 0x0 SWAP1 DUP2 MSTORE PUSH1 0x40 SWAP1 KECCAK256 SLOAD DUP2 JUMP JUMPDEST PUSH2 0x19C PUSH2 0x283 CALLDATASIZE PUSH1 0x4 PUSH2 0x11F2 JUMP JUMPDEST PUSH2 0x718 JUMP JUMPDEST PUSH2 0x163 PUSH1 0x2 SLOAD DUP2 JUMP JUMPDEST PUSH2 0x163 PUSH2 0x29F CALLDATASIZE PUSH1 0x4 PUSH2 0x11C9 JUMP JUMPDEST PUSH1 0x1 PUSH1 0x1 PUSH1 0xA0 SHL SUB AND PUSH1 0x0 SWAP1 DUP2 MSTORE PUSH1 0x6 PUSH1 0x20 MSTORE PUSH1 0x40 SWAP1 KECCAK256 SLOAD SWAP1 JUMP JUMPDEST PUSH2 0x163 PUSH32 0x0 DUP2 JUMP JUMPDEST PUSH2 0x19C PUSH2 0x2EF CALLDATASIZE PUSH1 0x4 PUSH2 0x11C9 JUMP JUMPDEST PUSH2 0x90E JUMP JUMPDEST PUSH2 0x19C PUSH2 0x987 JUMP JUMPDEST PUSH2 0x23D PUSH32 0x0 DUP2 JUMP JUMPDEST PUSH1 0x4 SLOAD PUSH2 0x163 JUMP JUMPDEST PUSH1 0x0 PUSH2 0x336 DUP3 PUSH2 0xAF7 JUMP JUMPDEST SWAP3 SWAP2 POP POP JUMP JUMPDEST PUSH1 0x2 SLOAD TIMESTAMP LT ISZERO PUSH2 0x393 JUMPI PUSH1 0x40 MLOAD PUSH3 0x461BCD PUSH1 0xE5 SHL DUP2 MSTORE PUSH1 0x20 PUSH1 0x4 DUP3 ADD MSTORE PUSH1 0x1D PUSH1 0x24 DUP3 ADD MSTORE PUSH32 0x4E6F20776974686472617720756E74696C206C6F636B757020656E6473000000 PUSH1 0x44 DUP3 ADD MSTORE PUSH1 0x64 ADD JUMPDEST PUSH1 0x40 MLOAD DUP1 SWAP2 SUB SWAP1 REVERT JUMPDEST PUSH1 0x0 DUP2 GT PUSH2 0x3E3 JUMPI PUSH1 0x40 MLOAD PUSH3 0x461BCD PUSH1 0xE5 SHL DUP2 MSTORE PUSH1 0x20 PUSH1 0x4 DUP3 ADD MSTORE PUSH1 0x1D PUSH1 0x24 DUP3 ADD MSTORE PUSH32 0x416D6F756E74206D7573742062652067726561746572207468616E2030000000 PUSH1 0x44 DUP3 ADD MSTORE PUSH1 0x64 ADD PUSH2 0x38A JUMP JUMPDEST CALLER PUSH1 0x0 SWAP1 DUP2 MSTORE PUSH1 0x6 PUSH1 0x20 MSTORE PUSH1 0x40 SWAP1 KECCAK256 SLOAD DUP2 GT ISZERO PUSH2 0x442 JUMPI PUSH1 0x40 MLOAD PUSH3 0x461BCD PUSH1 0xE5 SHL DUP2 MSTORE PUSH1 0x20 PUSH1 0x4 DUP3 ADD MSTORE PUSH1 0x1F PUSH1 0x24 DUP3 ADD MSTORE PUSH32 0x416D6F756E7420686967686572207468616E207374616B6564416D6F756E7400 PUSH1 0x44 DUP3 ADD MSTORE PUSH1 0x64 ADD PUSH2 0x38A JUMP JUMPDEST PUSH2 0x44A PUSH2 0xBC2 JUMP JUMPDEST CALLER PUSH1 0x0 SWAP1 DUP2 MSTORE PUSH1 0x7 PUSH1 0x20 MSTORE PUSH1 0x40 SWAP1 KECCAK256 SLOAD ISZERO PUSH2 0x467 JUMPI PUSH2 0x467 PUSH2 0xC01 JUMP JUMPDEST DUP1 PUSH1 0x4 PUSH1 0x0 DUP3 DUP3 SLOAD PUSH2 0x479 SWAP2 SWAP1 PUSH2 0x1221 JUMP JUMPDEST SWAP1 SWAP2 SSTORE POP POP CALLER PUSH1 0x0 SWAP1 DUP2 MSTORE PUSH1 0x6 PUSH1 0x20 MSTORE PUSH1 0x40 DUP2 KECCAK256 DUP1 SLOAD DUP4 SWAP3 SWAP1 PUSH2 0x49D SWAP1 DUP5 SWAP1 PUSH2 0x1221 JUMP JUMPDEST SWAP1 SWAP2 SSTORE POP PUSH2 0x4D9 SWAP1 POP CALLER JUMPDEST PUSH1 0x1 PUSH1 0x1 PUSH1 0xA0 SHL SUB PUSH32 0x0 AND SWAP1 DUP4 PUSH2 0xCA4 JUMP JUMPDEST PUSH1 0x40 MLOAD DUP2 DUP2 MSTORE CALLER SWAP1 PUSH32 0x884EDAD9CE6FA2440D8A54CC123490EB96D2768479D49FF9C7366125A9424364 SWAP1 PUSH1 0x20 ADD JUMPDEST PUSH1 0x40 MLOAD DUP1 SWAP2 SUB SWAP1 LOG2 POP JUMP JUMPDEST PUSH2 0x51A PUSH2 0xC01 JUMP JUMPDEST JUMP JUMPDEST PUSH2 0x524 PUSH2 0xD0C JUMP JUMPDEST PUSH2 0x51A PUSH1 0x0 PUSH2 0xD66 JUMP JUMPDEST PUSH2 0x536 PUSH2 0xD0C JUMP JUMPDEST PUSH1 0x1 SLOAD ISZERO PUSH2 0x586 JUMPI PUSH1 0x40 MLOAD PUSH3 0x461BCD PUSH1 0xE5 SHL DUP2 MSTORE PUSH1 0x20 PUSH1 0x4 DUP3 ADD MSTORE PUSH1 0x1B PUSH1 0x24 DUP3 ADD MSTORE PUSH32 0x5374616B696E672068617320616C726561647920737461727465640000000000 PUSH1 0x44 DUP3 ADD MSTORE PUSH1 0x64 ADD PUSH2 0x38A JUMP JUMPDEST TIMESTAMP PUSH1 0x1 DUP2 SWAP1 SSTORE PUSH2 0x5B7 SWAP1 PUSH32 0x0 SWAP1 PUSH2 0x1234 JUMP JUMPDEST PUSH1 0x2 SSTORE PUSH2 0x5E4 PUSH32 0x0 TIMESTAMP PUSH2 0x1234 JUMP JUMPDEST PUSH1 0x3 DUP2 SWAP1 SSTORE PUSH1 0x1 SLOAD PUSH1 0x40 DUP1 MLOAD SWAP2 DUP3 MSTORE PUSH32 0x0 PUSH1 0x20 DUP4 ADD MSTORE DUP2 ADD SWAP2 SWAP1 SWAP2 MSTORE PUSH32 0xCDBA3FB0A2020E0C9DC500B2679007A9C91CFCF35ACAB0EB46766C1200B42CD SWAP1 PUSH1 0x60 ADD PUSH1 0x40 MLOAD DUP1 SWAP2 SUB SWAP1 LOG1 JUMP JUMPDEST PUSH1 0x2 SLOAD TIMESTAMP LT ISZERO PUSH2 0x6A0 JUMPI PUSH1 0x40 MLOAD PUSH3 0x461BCD PUSH1 0xE5 SHL DUP2 MSTORE PUSH1 0x20 PUSH1 0x4 DUP3 ADD MSTORE PUSH1 0x1D PUSH1 0x24 DUP3 ADD MSTORE PUSH32 0x4E6F20776974686472617720756E74696C206C6F636B757020656E6473000000 PUSH1 0x44 DUP3 ADD MSTORE PUSH1 0x64 ADD PUSH2 0x38A JUMP JUMPDEST PUSH2 0x6A8 PUSH2 0xBC2 JUMP JUMPDEST CALLER PUSH1 0x0 SWAP1 DUP2 MSTORE PUSH1 0x7 PUSH1 0x20 MSTORE PUSH1 0x40 SWAP1 KECCAK256 SLOAD ISZERO PUSH2 0x6C5 JUMPI PUSH2 0x6C5 PUSH2 0xC01 JUMP JUMPDEST CALLER PUSH1 0x0 SWAP1 DUP2 MSTORE PUSH1 0x8 PUSH1 0x20 SWAP1 DUP2 MSTORE PUSH1 0x40 DUP1 DUP4 KECCAK256 DUP4 SWAP1 SSTORE PUSH1 0x6 SWAP1 SWAP2 MSTORE DUP2 KECCAK256 SLOAD PUSH1 0x4 DUP1 SLOAD SWAP2 SWAP3 SWAP1 SWAP2 PUSH2 0x6F5 SWAP1 DUP5 SWAP1 PUSH2 0x1221 JUMP JUMPDEST SWAP1 SWAP2 SSTORE POP POP CALLER PUSH1 0x0 DUP2 DUP2 MSTORE PUSH1 0x6 PUSH1 0x20 MSTORE PUSH1 0x40 DUP2 KECCAK256 DUP1 SLOAD SWAP2 SWAP1 SSTORE SWAP1 PUSH2 0x4D9 SWAP1 PUSH2 0x4A8 JUMP JUMPDEST PUSH1 0x3 SLOAD ISZERO DUP1 PUSH2 0x728 JUMPI POP TIMESTAMP PUSH1 0x3 SLOAD GT JUMPDEST PUSH2 0x76B JUMPI PUSH1 0x40 MLOAD PUSH3 0x461BCD PUSH1 0xE5 SHL DUP2 MSTORE PUSH1 0x20 PUSH1 0x4 DUP3 ADD MSTORE PUSH1 0x14 PUSH1 0x24 DUP3 ADD MSTORE PUSH20 0x14DD185ADA5B99C81C195C9A5BD908195B991959 PUSH1 0x62 SHL PUSH1 0x44 DUP3 ADD MSTORE PUSH1 0x64 ADD PUSH2 0x38A JUMP JUMPDEST PUSH32 0x0 DUP2 PUSH1 0x4 SLOAD PUSH2 0x79A SWAP2 SWAP1 PUSH2 0x1234 JUMP JUMPDEST GT ISZERO PUSH2 0x7E8 JUMPI PUSH1 0x40 MLOAD PUSH3 0x461BCD PUSH1 0xE5 SHL DUP2 MSTORE PUSH1 0x20 PUSH1 0x4 DUP3 ADD MSTORE PUSH1 0x1E PUSH1 0x24 DUP3 ADD MSTORE PUSH32 0x416D6F756E74207374616B65642065786365656473204D61785374616B650000 PUSH1 0x44 DUP3 ADD MSTORE PUSH1 0x64 ADD PUSH2 0x38A JUMP JUMPDEST PUSH1 0x0 DUP2 GT PUSH2 0x838 JUMPI PUSH1 0x40 MLOAD PUSH3 0x461BCD PUSH1 0xE5 SHL DUP2 MSTORE PUSH1 0x20 PUSH1 0x4 DUP3 ADD MSTORE PUSH1 0x1D PUSH1 0x24 DUP3 ADD MSTORE PUSH32 0x416D6F756E74206D7573742062652067726561746572207468616E2030000000 PUSH1 0x44 DUP3 ADD MSTORE PUSH1 0x64 ADD PUSH2 0x38A JUMP JUMPDEST CALLER PUSH1 0x0 SWAP1 DUP2 MSTORE PUSH1 0x8 PUSH1 0x20 MSTORE PUSH1 0x40 DUP2 KECCAK256 SLOAD SWAP1 SUB PUSH2 0x861 JUMPI CALLER PUSH1 0x0 SWAP1 DUP2 MSTORE PUSH1 0x8 PUSH1 0x20 MSTORE PUSH1 0x40 SWAP1 KECCAK256 TIMESTAMP SWAP1 SSTORE JUMPDEST PUSH2 0x869 PUSH2 0xBC2 JUMP JUMPDEST CALLER PUSH1 0x0 SWAP1 DUP2 MSTORE PUSH1 0x6 PUSH1 0x20 MSTORE PUSH1 0x40 DUP2 KECCAK256 DUP1 SLOAD DUP4 SWAP3 SWAP1 PUSH2 0x888 SWAP1 DUP5 SWAP1 PUSH2 0x1234 JUMP JUMPDEST SWAP3 POP POP DUP2 SWAP1 SSTORE POP DUP1 PUSH1 0x4 PUSH1 0x0 DUP3 DUP3 SLOAD PUSH2 0x8A1 SWAP2 SWAP1 PUSH2 0x1234 JUMP JUMPDEST SWAP1 SWAP2 SSTORE POP PUSH2 0x8DC SWAP1 POP PUSH32 0x0 PUSH1 0x1 PUSH1 0x1 PUSH1 0xA0 SHL SUB AND CALLER ADDRESS DUP5 PUSH2 0xDB6 JUMP JUMPDEST PUSH1 0x40 MLOAD DUP2 DUP2 MSTORE CALLER SWAP1 PUSH32 0xE1FFFCC4923D04B559F4D29A8BFC6CDA04EB5B0D3C460751C2402C5C5CC9109C SWAP1 PUSH1 0x20 ADD PUSH2 0x507 JUMP JUMPDEST PUSH2 0x916 PUSH2 0xD0C JUMP JUMPDEST PUSH1 0x1 PUSH1 0x1 PUSH1 0xA0 SHL SUB DUP2 AND PUSH2 0x97B JUMPI PUSH1 0x40 MLOAD PUSH3 0x461BCD PUSH1 0xE5 SHL DUP2 MSTORE PUSH1 0x20 PUSH1 0x4 DUP3 ADD MSTORE PUSH1 0x26 PUSH1 0x24 DUP3 ADD MSTORE PUSH32 0x4F776E61626C653A206E6577206F776E657220697320746865207A65726F2061 PUSH1 0x44 DUP3 ADD MSTORE PUSH6 0x646472657373 PUSH1 0xD0 SHL PUSH1 0x64 DUP3 ADD MSTORE PUSH1 0x84 ADD PUSH2 0x38A JUMP JUMPDEST PUSH2 0x984 DUP2 PUSH2 0xD66 JUMP JUMPDEST POP JUMP JUMPDEST PUSH2 0x98F PUSH2 0xD0C JUMP JUMPDEST PUSH1 0x3 SLOAD PUSH2 0x9A0 SWAP1 PUSH4 0x1E13380 PUSH2 0x1234 JUMP JUMPDEST TIMESTAMP LT ISZERO PUSH2 0x9EF JUMPI PUSH1 0x40 MLOAD PUSH3 0x461BCD PUSH1 0xE5 SHL DUP2 MSTORE PUSH1 0x20 PUSH1 0x4 DUP3 ADD MSTORE PUSH1 0x1E PUSH1 0x24 DUP3 ADD MSTORE PUSH32 0x576974686472617720317965617220616674657220656E64506572696F640000 PUSH1 0x44 DUP3 ADD MSTORE PUSH1 0x64 ADD PUSH2 0x38A JUMP JUMPDEST PUSH1 0x40 MLOAD PUSH4 0x70A08231 PUSH1 0xE0 SHL DUP2 MSTORE ADDRESS PUSH1 0x4 DUP3 ADD MSTORE PUSH1 0x0 SWAP1 PUSH32 0x0 PUSH1 0x1 PUSH1 0x1 PUSH1 0xA0 SHL SUB AND SWAP1 PUSH4 0x70A08231 SWAP1 PUSH1 0x24 ADD PUSH1 0x20 PUSH1 0x40 MLOAD DUP1 DUP4 SUB DUP2 DUP7 GAS STATICCALL ISZERO DUP1 ISZERO PUSH2 0xA56 JUMPI RETURNDATASIZE PUSH1 0x0 DUP1 RETURNDATACOPY RETURNDATASIZE PUSH1 0x0 REVERT JUMPDEST POP POP POP POP PUSH1 0x40 MLOAD RETURNDATASIZE PUSH1 0x1F NOT PUSH1 0x1F DUP3 ADD AND DUP3 ADD DUP1 PUSH1 0x40 MSTORE POP DUP2 ADD SWAP1 PUSH2 0xA7A SWAP2 SWAP1 PUSH2 0x1247 JUMP JUMPDEST SWAP1 POP PUSH1 0x0 PUSH1 0x4 SLOAD DUP3 PUSH2 0xA8C SWAP2 SWAP1 PUSH2 0x1221 JUMP JUMPDEST SWAP1 POP PUSH1 0x0 DUP2 GT PUSH2 0xADE JUMPI PUSH1 0x40 MLOAD PUSH3 0x461BCD PUSH1 0xE5 SHL DUP2 MSTORE PUSH1 0x20 PUSH1 0x4 DUP3 ADD MSTORE PUSH1 0x1F PUSH1 0x24 DUP3 ADD MSTORE PUSH32 0x4E6F20726573696475616C2042616C616E636520746F20776974686472617700 PUSH1 0x44 DUP3 ADD MSTORE PUSH1 0x64 ADD PUSH2 0x38A JUMP JUMPDEST PUSH2 0xAF3 PUSH2 0x4A8 PUSH1 0x0 SLOAD PUSH1 0x1 PUSH1 0x1 PUSH1 0xA0 SHL SUB AND SWAP1 JUMP JUMPDEST POP POP JUMP JUMPDEST PUSH1 0x0 PUSH1 0x1 SLOAD PUSH1 0x0 EQ DUP1 PUSH2 0xB20 JUMPI POP PUSH1 0x1 PUSH1 0x1 PUSH1 0xA0 SHL SUB DUP3 AND PUSH1 0x0 SWAP1 DUP2 MSTORE PUSH1 0x6 PUSH1 0x20 MSTORE PUSH1 0x40 SWAP1 KECCAK256 SLOAD ISZERO JUMPDEST ISZERO PUSH2 0xB2D JUMPI POP PUSH1 0x0 SWAP2 SWAP1 POP JUMP JUMPDEST PUSH1 0x1 PUSH1 0x1 PUSH1 0xA0 SHL SUB DUP3 AND PUSH1 0x0 SWAP1 DUP2 MSTORE PUSH1 0x7 PUSH1 0x20 MSTORE PUSH1 0x40 SWAP1 KECCAK256 SLOAD PUSH1 0x5 SLOAD PUSH2 0xB54 SWAP1 PUSH1 0x64 PUSH2 0x1260 JUMP JUMPDEST PUSH2 0xB5D DUP5 PUSH2 0xDF4 JUMP JUMPDEST PUSH1 0x1 PUSH1 0x1 PUSH1 0xA0 SHL SUB DUP6 AND PUSH1 0x0 SWAP1 DUP2 MSTORE PUSH1 0x6 PUSH1 0x20 MSTORE PUSH1 0x40 SWAP1 KECCAK256 SLOAD PUSH2 0xBA4 SWAP1 PUSH1 0xFF PUSH32 0x0 AND SWAP1 PUSH2 0x1260 JUMP JUMPDEST PUSH2 0xBAE SWAP2 SWAP1 PUSH2 0x1260 JUMP JUMPDEST PUSH2 0xBB8 SWAP2 SWAP1 PUSH2 0x1277 JUMP JUMPDEST PUSH2 0x336 SWAP2 SWAP1 PUSH2 0x1234 JUMP JUMPDEST PUSH2 0xBCB CALLER PUSH2 0xAF7 JUMP JUMPDEST CALLER PUSH1 0x0 SWAP1 DUP2 MSTORE PUSH1 0x7 PUSH1 0x20 MSTORE PUSH1 0x40 SWAP1 KECCAK256 SSTORE PUSH1 0x3 SLOAD TIMESTAMP LT ISZERO PUSH2 0xBEB JUMPI TIMESTAMP PUSH2 0xBEF JUMP JUMPDEST PUSH1 0x3 SLOAD JUMPDEST CALLER PUSH1 0x0 SWAP1 DUP2 MSTORE PUSH1 0x8 PUSH1 0x20 MSTORE PUSH1 0x40 SWAP1 KECCAK256 SSTORE JUMP JUMPDEST PUSH2 0xC09 PUSH2 0xBC2 JUMP JUMPDEST CALLER PUSH1 0x0 SWAP1 DUP2 MSTORE PUSH1 0x7 PUSH1 0x20 MSTORE PUSH1 0x40 SWAP1 KECCAK256 SLOAD DUP1 PUSH2 0xC59 JUMPI PUSH1 0x40 MLOAD PUSH3 0x461BCD PUSH1 0xE5 SHL DUP2 MSTORE PUSH1 0x20 PUSH1 0x4 DUP3 ADD MSTORE PUSH1 0x10 PUSH1 0x24 DUP3 ADD MSTORE PUSH16 0x4E6F7468696E6720746F20636C61696D PUSH1 0x80 SHL PUSH1 0x44 DUP3 ADD MSTORE PUSH1 0x64 ADD PUSH2 0x38A JUMP JUMPDEST CALLER PUSH1 0x0 DUP2 DUP2 MSTORE PUSH1 0x7 PUSH1 0x20 MSTORE PUSH1 0x40 DUP2 KECCAK256 SSTORE PUSH2 0xC72 SWAP1 PUSH2 0x4A8 JUMP JUMPDEST PUSH1 0x40 MLOAD DUP2 DUP2 MSTORE CALLER SWAP1 PUSH32 0x47CEE97CB7ACD717B3C0AA1435D004CD5B3C8C57D70DBCEB4E4458BBD60E39D4 SWAP1 PUSH1 0x20 ADD PUSH2 0x507 JUMP JUMPDEST PUSH1 0x40 MLOAD PUSH1 0x1 PUSH1 0x1 PUSH1 0xA0 SHL SUB DUP4 AND PUSH1 0x24 DUP3 ADD MSTORE PUSH1 0x44 DUP2 ADD DUP3 SWAP1 MSTORE PUSH2 0xD07 SWAP1 DUP5 SWAP1 PUSH4 0xA9059CBB PUSH1 0xE0 SHL SWAP1 PUSH1 0x64 ADD JUMPDEST PUSH1 0x40 DUP1 MLOAD PUSH1 0x1F NOT DUP2 DUP5 SUB ADD DUP2 MSTORE SWAP2 SWAP1 MSTORE PUSH1 0x20 DUP2 ADD DUP1 MLOAD PUSH1 0x1 PUSH1 0x1 PUSH1 0xE0 SHL SUB AND PUSH1 0x1 PUSH1 0x1 PUSH1 0xE0 SHL SUB NOT SWAP1 SWAP4 AND SWAP3 SWAP1 SWAP3 OR SWAP1 SWAP2 MSTORE PUSH2 0xF74 JUMP JUMPDEST POP POP POP JUMP JUMPDEST PUSH1 0x0 SLOAD PUSH1 0x1 PUSH1 0x1 PUSH1 0xA0 SHL SUB AND CALLER EQ PUSH2 0x51A JUMPI PUSH1 0x40 MLOAD PUSH3 0x461BCD PUSH1 0xE5 SHL DUP2 MSTORE PUSH1 0x20 PUSH1 0x4 DUP3 ADD DUP2 SWAP1 MSTORE PUSH1 0x24 DUP3 ADD MSTORE PUSH32 0x4F776E61626C653A2063616C6C6572206973206E6F7420746865206F776E6572 PUSH1 0x44 DUP3 ADD MSTORE PUSH1 0x64 ADD PUSH2 0x38A JUMP JUMPDEST PUSH1 0x0 DUP1 SLOAD PUSH1 0x1 PUSH1 0x1 PUSH1 0xA0 SHL SUB DUP4 DUP2 AND PUSH1 0x1 PUSH1 0x1 PUSH1 0xA0 SHL SUB NOT DUP4 AND DUP2 OR DUP5 SSTORE PUSH1 0x40 MLOAD SWAP2 SWAP1 SWAP3 AND SWAP3 DUP4 SWAP2 PUSH32 0x8BE0079C531659141344CD1FD0A4F28419497F9722A3DAAFE3B4186F6B6457E0 SWAP2 SWAP1 LOG3 POP POP JUMP JUMPDEST PUSH1 0x40 MLOAD PUSH1 0x1 PUSH1 0x1 PUSH1 0xA0 SHL SUB DUP1 DUP6 AND PUSH1 0x24 DUP4 ADD MSTORE DUP4 AND PUSH1 0x44 DUP3 ADD MSTORE PUSH1 0x64 DUP2 ADD DUP3 SWAP1 MSTORE PUSH2 0xDEE SWAP1 DUP6 SWAP1 PUSH4 0x23B872DD PUSH1 0xE0 SHL SWAP1 PUSH1 0x84 ADD PUSH2 0xCD0 JUMP JUMPDEST POP POP POP POP JUMP JUMPDEST PUSH1 0x1 PUSH1 0x1 PUSH1 0xA0 SHL SUB DUP2 AND PUSH1 0x0 SWAP1 DUP2 MSTORE PUSH1 0x8 PUSH1 0x20 MSTORE PUSH1 0x40 DUP2 KECCAK256 SLOAD PUSH1 0x1 SLOAD PUSH1 0x3 SLOAD SWAP2 LT SWAP1 DUP3 SWAP1 TIMESTAMP LT ISZERO PUSH2 0xECB JUMPI DUP2 PUSH2 0xE42 JUMPI PUSH1 0x1 PUSH1 0x1 PUSH1 0xA0 SHL SUB DUP5 AND PUSH1 0x0 SWAP1 DUP2 MSTORE PUSH1 0x8 PUSH1 0x20 MSTORE PUSH1 0x40 SWAP1 KECCAK256 SLOAD PUSH2 0xE46 JUMP JUMPDEST PUSH1 0x1 SLOAD JUMPDEST SWAP1 POP PUSH1 0x0 PUSH2 0xE54 DUP3 TIMESTAMP PUSH2 0x1221 JUMP JUMPDEST PUSH2 0xE7E SWAP1 PUSH32 0x0 PUSH2 0x1221 JUMP JUMPDEST SWAP1 POP PUSH32 0x0 PUSH2 0xEAB DUP3 DUP3 PUSH2 0x1221 JUMP JUMPDEST PUSH1 0x5 SLOAD PUSH2 0xEB8 SWAP2 SWAP1 PUSH2 0x1260 JUMP JUMPDEST PUSH2 0xEC2 SWAP2 SWAP1 PUSH2 0x1277 JUMP JUMPDEST SWAP6 SWAP5 POP POP POP POP POP JUMP JUMPDEST DUP2 PUSH2 0xF25 JUMPI PUSH1 0x1 PUSH1 0x1 PUSH1 0xA0 SHL SUB DUP5 AND PUSH1 0x0 SWAP1 DUP2 MSTORE PUSH1 0x8 PUSH1 0x20 MSTORE PUSH1 0x40 SWAP1 KECCAK256 SLOAD PUSH1 0x3 SLOAD PUSH2 0xEF6 SWAP2 SWAP1 PUSH2 0x1221 JUMP JUMPDEST PUSH2 0xF20 SWAP1 PUSH32 0x0 PUSH2 0x1221 JUMP JUMPDEST PUSH2 0xF28 JUMP JUMPDEST PUSH1 0x0 JUMPDEST SWAP1 POP PUSH32 0x0 PUSH2 0xF55 DUP3 DUP3 PUSH2 0x1221 JUMP JUMPDEST PUSH1 0x5 SLOAD PUSH2 0xF62 SWAP2 SWAP1 PUSH2 0x1260 JUMP JUMPDEST PUSH2 0xF6C SWAP2 SWAP1 PUSH2 0x1277 JUMP JUMPDEST SWAP5 SWAP4 POP POP POP POP JUMP JUMPDEST PUSH1 0x0 PUSH2 0xFC9 DUP3 PUSH1 0x40 MLOAD DUP1 PUSH1 0x40 ADD PUSH1 0x40 MSTORE DUP1 PUSH1 0x20 DUP2 MSTORE PUSH1 0x20 ADD PUSH32 0x5361666545524332303A206C6F772D6C6576656C2063616C6C206661696C6564 DUP2 MSTORE POP DUP6 PUSH1 0x1 PUSH1 0x1 PUSH1 0xA0 SHL SUB AND PUSH2 0x1046 SWAP1 SWAP3 SWAP2 SWAP1 PUSH4 0xFFFFFFFF AND JUMP JUMPDEST DUP1 MLOAD SWAP1 SWAP2 POP ISZERO PUSH2 0xD07 JUMPI DUP1 DUP1 PUSH1 0x20 ADD SWAP1 MLOAD DUP2 ADD SWAP1 PUSH2 0xFE7 SWAP2 SWAP1 PUSH2 0x1299 JUMP JUMPDEST PUSH2 0xD07 JUMPI PUSH1 0x40 MLOAD PUSH3 0x461BCD PUSH1 0xE5 SHL DUP2 MSTORE PUSH1 0x20 PUSH1 0x4 DUP3 ADD MSTORE PUSH1 0x2A PUSH1 0x24 DUP3 ADD MSTORE PUSH32 0x5361666545524332303A204552433230206F7065726174696F6E20646964206E PUSH1 0x44 DUP3 ADD MSTORE PUSH10 0x1BDD081CDD58D8D95959 PUSH1 0xB2 SHL PUSH1 0x64 DUP3 ADD MSTORE PUSH1 0x84 ADD PUSH2 0x38A JUMP JUMPDEST PUSH1 0x60 PUSH2 0x1055 DUP5 DUP5 PUSH1 0x0 DUP6 PUSH2 0x105F JUMP JUMPDEST SWAP1 POP JUMPDEST SWAP4 SWAP3 POP POP POP JUMP JUMPDEST PUSH1 0x60 DUP3 SELFBALANCE LT ISZERO PUSH2 0x10C0 JUMPI PUSH1 0x40 MLOAD PUSH3 0x461BCD PUSH1 0xE5 SHL DUP2 MSTORE PUSH1 0x20 PUSH1 0x4 DUP3 ADD MSTORE PUSH1 0x26 PUSH1 0x24 DUP3 ADD MSTORE PUSH32 0x416464726573733A20696E73756666696369656E742062616C616E636520666F PUSH1 0x44 DUP3 ADD MSTORE PUSH6 0x1C8818D85B1B PUSH1 0xD2 SHL PUSH1 0x64 DUP3 ADD MSTORE PUSH1 0x84 ADD PUSH2 0x38A JUMP JUMPDEST PUSH1 0x1 PUSH1 0x1 PUSH1 0xA0 SHL SUB DUP6 AND EXTCODESIZE PUSH2 0x1117 JUMPI PUSH1 0x40 MLOAD PUSH3 0x461BCD PUSH1 0xE5 SHL DUP2 MSTORE PUSH1 0x20 PUSH1 0x4 DUP3 ADD MSTORE PUSH1 0x1D PUSH1 0x24 DUP3 ADD MSTORE PUSH32 0x416464726573733A2063616C6C20746F206E6F6E2D636F6E7472616374000000 PUSH1 0x44 DUP3 ADD MSTORE PUSH1 0x64 ADD PUSH2 0x38A JUMP JUMPDEST PUSH1 0x0 DUP1 DUP7 PUSH1 0x1 PUSH1 0x1 PUSH1 0xA0 SHL SUB AND DUP6 DUP8 PUSH1 0x40 MLOAD PUSH2 0x1133 SWAP2 SWAP1 PUSH2 0x12DF JUMP JUMPDEST PUSH1 0x0 PUSH1 0x40 MLOAD DUP1 DUP4 SUB DUP2 DUP6 DUP8 GAS CALL SWAP3 POP POP POP RETURNDATASIZE DUP1 PUSH1 0x0 DUP2 EQ PUSH2 0x1170 JUMPI PUSH1 0x40 MLOAD SWAP2 POP PUSH1 0x1F NOT PUSH1 0x3F RETURNDATASIZE ADD AND DUP3 ADD PUSH1 0x40 MSTORE RETURNDATASIZE DUP3 MSTORE RETURNDATASIZE PUSH1 0x0 PUSH1 0x20 DUP5 ADD RETURNDATACOPY PUSH2 0x1175 JUMP JUMPDEST PUSH1 0x60 SWAP2 POP JUMPDEST POP SWAP2 POP SWAP2 POP PUSH2 0x1185 DUP3 DUP3 DUP7 PUSH2 0x1190 JUMP JUMPDEST SWAP8 SWAP7 POP POP POP POP POP POP POP JUMP JUMPDEST PUSH1 0x60 DUP4 ISZERO PUSH2 0x119F JUMPI POP DUP2 PUSH2 0x1058 JUMP JUMPDEST DUP3 MLOAD ISZERO PUSH2 0x11AF JUMPI DUP3 MLOAD DUP1 DUP5 PUSH1 0x20 ADD REVERT JUMPDEST DUP2 PUSH1 0x40 MLOAD PUSH3 0x461BCD PUSH1 0xE5 SHL DUP2 MSTORE PUSH1 0x4 ADD PUSH2 0x38A SWAP2 SWAP1 PUSH2 0x12FB JUMP JUMPDEST PUSH1 0x0 PUSH1 0x20 DUP3 DUP5 SUB SLT ISZERO PUSH2 0x11DB JUMPI PUSH1 0x0 DUP1 REVERT JUMPDEST DUP2 CALLDATALOAD PUSH1 0x1 PUSH1 0x1 PUSH1 0xA0 SHL SUB DUP2 AND DUP2 EQ PUSH2 0x1058 JUMPI PUSH1 0x0 DUP1 REVERT JUMPDEST PUSH1 0x0 PUSH1 0x20 DUP3 DUP5 SUB SLT ISZERO PUSH2 0x1204 JUMPI PUSH1 0x0 DUP1 REVERT JUMPDEST POP CALLDATALOAD SWAP2 SWAP1 POP JUMP JUMPDEST PUSH4 0x4E487B71 PUSH1 0xE0 SHL PUSH1 0x0 MSTORE PUSH1 0x11 PUSH1 0x4 MSTORE PUSH1 0x24 PUSH1 0x0 REVERT JUMPDEST DUP2 DUP2 SUB DUP2 DUP2 GT ISZERO PUSH2 0x336 JUMPI PUSH2 0x336 PUSH2 0x120B JUMP JUMPDEST DUP1 DUP3 ADD DUP1 DUP3 GT ISZERO PUSH2 0x336 JUMPI PUSH2 0x336 PUSH2 0x120B JUMP JUMPDEST PUSH1 0x0 PUSH1 0x20 DUP3 DUP5 SUB SLT ISZERO PUSH2 0x1259 JUMPI PUSH1 0x0 DUP1 REVERT JUMPDEST POP MLOAD SWAP2 SWAP1 POP JUMP JUMPDEST DUP1 DUP3 MUL DUP2 ISZERO DUP3 DUP3 DIV DUP5 EQ OR PUSH2 0x336 JUMPI PUSH2 0x336 PUSH2 0x120B JUMP JUMPDEST PUSH1 0x0 DUP3 PUSH2 0x1294 JUMPI PUSH4 0x4E487B71 PUSH1 0xE0 SHL PUSH1 0x0 MSTORE PUSH1 0x12 PUSH1 0x4 MSTORE PUSH1 0x24 PUSH1 0x0 REVERT JUMPDEST POP DIV SWAP1 JUMP JUMPDEST PUSH1 0x0 PUSH1 0x20 DUP3 DUP5 SUB SLT ISZERO PUSH2 0x12AB JUMPI PUSH1 0x0 DUP1 REVERT JUMPDEST DUP2 MLOAD DUP1 ISZERO ISZERO DUP2 EQ PUSH2 0x1058 JUMPI PUSH1 0x0 DUP1 REVERT JUMPDEST PUSH1 0x0 JUMPDEST DUP4 DUP2 LT ISZERO PUSH2 0x12D6 JUMPI DUP2 DUP2 ADD MLOAD DUP4 DUP3 ADD MSTORE PUSH1 0x20 ADD PUSH2 0x12BE JUMP JUMPDEST POP POP PUSH1 0x0 SWAP2 ADD MSTORE JUMP JUMPDEST PUSH1 0x0 DUP3 MLOAD PUSH2 0x12F1 DUP2 DUP5 PUSH1 0x20 DUP8 ADD PUSH2 0x12BB JUMP JUMPDEST SWAP2 SWAP1 SWAP2 ADD SWAP3 SWAP2 POP POP JUMP JUMPDEST PUSH1 0x20 DUP2 MSTORE PUSH1 0x0 DUP3 MLOAD DUP1 PUSH1 0x20 DUP5 ADD MSTORE PUSH2 0x131A DUP2 PUSH1 0x40 DUP6 ADD PUSH1 0x20 DUP8 ADD PUSH2 0x12BB JUMP JUMPDEST PUSH1 0x1F ADD PUSH1 0x1F NOT AND SWAP2 SWAP1 SWAP2 ADD PUSH1 0x40 ADD SWAP3 SWAP2 POP POP JUMP INVALID LOG2 PUSH5 0x6970667358 0x22 SLT KECCAK256 0xD3 0xB1 SHL 0x49 BLOCKHASH 0xEC DUP9 PUSH14 0x62BCD49D652334E58A0CE596E254 PUSH26 0x3E0C285749B62BEFAC64736F6C63430008110033000000000000 "},"methodIdentifiers":{"amountStaked(address)":"ef40a670","claimRewards()":"372500ab","deposit(uint256)":"b6b55f25","endPeriod()":"5faa65ff","fixedAPY()":"48c9eaaf","lockupDuration()":"1ada70a8","lockupPeriod()":"ee947a7c","owner()":"8da5cb5b","renounceOwnership()":"715018a6","rewardOf(address)":"1d62ebd9","staked(address)":"98807d84","stakingDuration()":"8005a7de","stakingMax()":"f0316bc8","startPeriod()":"30bfb9bb","startStaking()":"71b0cbfa","token()":"fc0c546a","totalDeposited()":"ff50abdc","transferOwnership(address)":"f2fde38b","withdraw(uint256)":"2e1a7d4d","withdrawAll()":"853828b6","withdrawResidualBalance()":"fb468ac3"}}}}}