{"contracts/ICO.sol":{"ICO":{"abi":[{"inputs":[{"internalType":"address","name":"_token","type":"address"},{"internalType":"address","name":"_usdc","type":"address"},{"internalType":"address","name":"_team","type":"address"},{"internalType":"uint256","name":"_openingTimeRound1","type":"uint256"},{"internalType":"uint256","name":"_closingTimeRound1","type":"uint256"},{"internalType":"uint256","name":"_openingTimeRound2","type":"uint256"},{"internalType":"uint256","name":"_closingTimeRound2","type":"uint256"},{"internalType":"uint256","name":"_openingTimeRound3","type":"uint256"},{"internalType":"uint256","name":"_closingTimeRound3","type":"uint256"}],"stateMutability":"nonpayable","type":"constructor"},{"anonymous":false,"inputs":[{"indexed":true,"internalType":"address","name":"previousOwner","type":"address"},{"indexed":true,"internalType":"address","name":"newOwner","type":"address"}],"name":"OwnershipTransferred","type":"event"},{"anonymous":false,"inputs":[{"indexed":true,"internalType":"address","name":"claimer","type":"address"}],"name":"TokenClaim","type":"event"},{"anonymous":false,"inputs":[{"indexed":true,"internalType":"address","name":"purchaser","type":"address"},{"indexed":false,"internalType":"uint256","name":"amount","type":"uint256"}],"name":"TokenPurchase","type":"event"},{"inputs":[{"internalType":"address","name":"","type":"address"}],"name":"balances","outputs":[{"internalType":"uint256","name":"","type":"uint256"}],"stateMutability":"view","type":"function"},{"inputs":[{"internalType":"address","name":"","type":"address"}],"name":"balancesToken1","outputs":[{"internalType":"uint256","name":"","type":"uint256"}],"stateMutability":"view","type":"function"},{"inputs":[{"internalType":"address","name":"","type":"address"}],"name":"balancesToken2","outputs":[{"internalType":"uint256","name":"","type":"uint256"}],"stateMutability":"view","type":"function"},{"inputs":[{"internalType":"address","name":"","type":"address"}],"name":"balancesToken3","outputs":[{"internalType":"uint256","name":"","type":"uint256"}],"stateMutability":"view","type":"function"},{"inputs":[],"name":"buyTokensRound1","outputs":[],"stateMutability":"payable","type":"function"},{"inputs":[],"name":"buyTokensRound2","outputs":[],"stateMutability":"payable","type":"function"},{"inputs":[],"name":"buyTokensRound3","outputs":[],"stateMutability":"payable","type":"function"},{"inputs":[{"internalType":"uint256","name":"_closingTimeRound1","type":"uint256"}],"name":"changeClosingTimeRound1","outputs":[],"stateMutability":"nonpayable","type":"function"},{"inputs":[{"internalType":"uint256","name":"_closingTimeRound2","type":"uint256"}],"name":"changeClosingTimeRound2","outputs":[],"stateMutability":"nonpayable","type":"function"},{"inputs":[{"internalType":"uint256","name":"_closingTimeRound3","type":"uint256"}],"name":"changeClosingTimeRound3","outputs":[],"stateMutability":"nonpayable","type":"function"},{"inputs":[],"name":"closingTimeRound1","outputs":[{"internalType":"uint256","name":"","type":"uint256"}],"stateMutability":"view","type":"function"},{"inputs":[],"name":"closingTimeRound2","outputs":[{"internalType":"uint256","name":"","type":"uint256"}],"stateMutability":"view","type":"function"},{"inputs":[],"name":"closingTimeRound3","outputs":[{"internalType":"uint256","name":"","type":"uint256"}],"stateMutability":"view","type":"function"},{"inputs":[],"name":"getBalance","outputs":[{"internalType":"uint256","name":"","type":"uint256"}],"stateMutability":"view","type":"function"},{"inputs":[],"name":"getBalanceToken1","outputs":[{"internalType":"uint256","name":"","type":"uint256"}],"stateMutability":"view","type":"function"},{"inputs":[],"name":"getBalanceToken2","outputs":[{"internalType":"uint256","name":"","type":"uint256"}],"stateMutability":"view","type":"function"},{"inputs":[],"name":"getBalanceToken3","outputs":[{"internalType":"uint256","name":"","type":"uint256"}],"stateMutability":"view","type":"function"},{"inputs":[],"name":"hardCapRound1","outputs":[{"internalType":"uint256","name":"","type":"uint256"}],"stateMutability":"view","type":"function"},{"inputs":[],"name":"hardCapRound2","outputs":[{"internalType":"uint256","name":"","type":"uint256"}],"stateMutability":"view","type":"function"},{"inputs":[],"name":"hardCapRound3","outputs":[{"internalType":"uint256","name":"","type":"uint256"}],"stateMutability":"view","type":"function"},{"inputs":[],"name":"openingTimeRound1","outputs":[{"internalType":"uint256","name":"","type":"uint256"}],"stateMutability":"view","type":"function"},{"inputs":[],"name":"openingTimeRound2","outputs":[{"internalType":"uint256","name":"","type":"uint256"}],"stateMutability":"view","type":"function"},{"inputs":[],"name":"openingTimeRound3","outputs":[{"internalType":"uint256","name":"","type":"uint256"}],"stateMutability":"view","type":"function"},{"inputs":[],"name":"owner","outputs":[{"internalType":"address","name":"","type":"address"}],"stateMutability":"view","type":"function"},{"inputs":[],"name":"raisedAmount","outputs":[{"internalType":"uint256","name":"","type":"uint256"}],"stateMutability":"view","type":"function"},{"inputs":[],"name":"rateRound1","outputs":[{"internalType":"uint256","name":"","type":"uint256"}],"stateMutability":"view","type":"function"},{"inputs":[],"name":"rateRound2","outputs":[{"internalType":"uint256","name":"","type":"uint256"}],"stateMutability":"view","type":"function"},{"inputs":[],"name":"rateRound3","outputs":[{"internalType":"uint256","name":"","type":"uint256"}],"stateMutability":"view","type":"function"},{"inputs":[],"name":"renounceOwnership","outputs":[],"stateMutability":"nonpayable","type":"function"},{"inputs":[],"name":"tokenAmountRound1","outputs":[{"internalType":"uint256","name":"","type":"uint256"}],"stateMutability":"view","type":"function"},{"inputs":[],"name":"tokenAmountRound2","outputs":[{"internalType":"uint256","name":"","type":"uint256"}],"stateMutability":"view","type":"function"},{"inputs":[],"name":"tokenAmountRound3","outputs":[{"internalType":"uint256","name":"","type":"uint256"}],"stateMutability":"view","type":"function"},{"inputs":[{"internalType":"address","name":"newOwner","type":"address"}],"name":"transferOwnership","outputs":[],"stateMutability":"nonpayable","type":"function"},{"inputs":[{"internalType":"uint256","name":"amount","type":"uint256"}],"name":"withdraw","outputs":[],"stateMutability":"nonpayable","type":"function"},{"inputs":[],"name":"withdrawTokensRound1","outputs":[],"stateMutability":"nonpayable","type":"function"},{"inputs":[],"name":"withdrawTokensRound2","outputs":[],"stateMutability":"nonpayable","type":"function"},{"inputs":[],"name":"withdrawTokensRound3","outputs":[],"stateMutability":"nonpayable","type":"function"}],"evm":{"bytecode":{"linkReferences":{},"object":"608060405266016bcc41e9000060145566010334bbc2d00060155565b5e620f480006016553480156200003157600080fd5b5060405162001360380380620013608339810160408190526200005491620002a5565b6200005f3362000238565b6001600160a01b038916620000b05760405162461bcd60e51b81526020600482015260126024820152710546f6b656e206164647265737320697320360741b60448201526064015b60405180910390fd5b858511620000f05760405162461bcd60e51b815260206004820152601f6024820152600080516020620013408339815191526044820152606401620000a7565b838311620001305760405162461bcd60e51b815260206004820152601f6024820152600080516020620013408339815191526044820152606401620000a7565b818111620001705760405162461bcd60e51b815260206004820152601f6024820152600080516020620013408339815191526044820152606401620000a7565b60646014546200018191906200032a565b60045560155462000195906064906200032a565b600555601654620001a9906064906200032a565b600655600180546001600160a01b03199081166001600160a01b039b8c1617909155600280548216998b1699909917909855600380549098169690981695909517909555600792909255600855600955600a91909155600b55600c556a0f8277896582678ac00000600d556a094e47b8d6817153400000600e556a06342fd08f00f637800000600f556200034d565b600080546001600160a01b038381166001600160a01b0319831681178455604051919092169283917f8be0079c531659141344cd1fd0a4f28419497f9722a3daafe3b4186f6b6457e09190a35050565b80516001600160a01b0381168114620002a057600080fd5b919050565b60008060008060008060008060006101208a8c031215620002c557600080fd5b620002d08a62000288565b9850620002e060208b0162000288565b9750620002f060408b0162000288565b965060608a0151955060808a0151945060a08a0151935060c08a0151925060e08a015191506101008a015190509295985092959850929598565b6000826200034857634e487b7160e01b600052601260045260246000fd5b500490565b610fe3806200035d6000396000f3fe60806040526004361061021a5760003560e01c80637a09fc7011610123578063cfa1a7ec116100ab578063e7e879df1161006f578063e7e879df1461056c578063ec0be95814610599578063eccbaf7e146105ae578063f2fde38b146105c4578063fe6154df146105e457600080fd5b8063cfa1a7ec146104f5578063d9c9ce1014610522578063dbabeb251461052a578063dc372b5a14610540578063e744e9c61461055657600080fd5b806390d98d75116100f257806390d98d751461047e578063a680abcf14610494578063bbce0059146104aa578063bbda36c5146104b2578063c59ee1dc146104df57600080fd5b80637a09fc701461040a5780637c6186f91461042a5780638da5cb5b146104405780638dadc69f1461046857600080fd5b80632eb795d9116101a65780635b9c476f116101755780635b9c476f146103ab5780635badf43a146103c15780635d41363f146103c95780635f7add42146103df578063715018a6146103f557600080fd5b80632eb795d91461033e57806346fc8a7714610354578063514d507114610376578063521ff4ce1461038b57600080fd5b806312065fe0116101ed57806312065fe0146102965780631b3057cf146102b857806327e235e3146102da5780632e1a7d4d146103075780632e58e5821461032957600080fd5b80630a564a031461021f5780630af0e79614610248578063102cc3ea1461026a578063118ab17814610280575b600080fd5b34801561022b57600080fd5b5061023560055481565b6040519081526020015b60405180910390f35b34801561025457600080fd5b5033600090815260196020526040902054610235565b34801561027657600080fd5b50610235600d5481565b34801561028c57600080fd5b5061023560065481565b3480156102a257600080fd5b5033600090815260176020526040902054610235565b3480156102c457600080fd5b50336000908152601a6020526040902054610235565b3480156102e657600080fd5b506102356102f5366004610e66565b60176020526000908152604090205481565b34801561031357600080fd5b50610327610322366004610e96565b610604565b005b34801561033557600080fd5b50610327610684565b34801561034a57600080fd5b5061023560115481565b34801561036057600080fd5b5033600090815260186020526040902054610235565b34801561038257600080fd5b50610327610712565b34801561039757600080fd5b506103276103a6366004610e96565b610797565b3480156103b757600080fd5b50610235600c5481565b6103276107a4565b3480156103d557600080fd5b5061023560045481565b3480156103eb57600080fd5b50610235600b5481565b34801561040157600080fd5b50610327610945565b34801561041657600080fd5b50610327610425366004610e96565b610959565b34801561043657600080fd5b5061023560075481565b34801561044c57600080fd5b506000546040516001600160a01b03909116815260200161023f565b34801561047457600080fd5b50610235600a5481565b34801561048a57600080fd5b5061023560135481565b3480156104a057600080fd5b5061023560085481565b610327610966565b3480156104be57600080fd5b506102356104cd366004610e66565b601a6020526000908152604090205481565b3480156104eb57600080fd5b5061023560105481565b34801561050157600080fd5b50610235610510366004610e66565b60186020526000908152604090205481565b610327610afb565b34801561053657600080fd5b5061023560125481565b34801561054c57600080fd5b50610235600e5481565b34801561056257600080fd5b50610235600f5481565b34801561057857600080fd5b50610235610587366004610e66565b60196020526000908152604090205481565b3480156105a557600080fd5b50610327610c90565b3480156105ba57600080fd5b5061023560095481565b3480156105d057600080fd5b506103276105df366004610e66565b610d15565b3480156105f057600080fd5b506103276105ff366004610e96565b610d8e565b6002546003546040516323b872dd60e01b81526001600160a01b03928316926323b872dd9261063d923092909116908690600401610eaf565b6020604051808303816000875af115801561065c573d6000803e3d6000fd5b505050506040513d601f19601f820116820180604052508101906106809190610ed3565b5050565b600a5442116106ae5760405162461bcd60e51b81526004016106a590610ef5565b60405180910390fd5b33600090815260196020526040902054806106c857600080fd5b3360008181526019602052604080822091909155600154905163a9059cbb60e01b81526004810192909252602482018390526001600160a01b03169063a9059cbb9060440161063d565b60085442116107335760405162461bcd60e51b81526004016106a590610ef5565b336000908152601860205260409020548061074d57600080fd5b3360008181526018602052604080822091909155600154905163a9059cbb60e01b81526004810192909252602482018390526001600160a01b03169063a9059cbb9060440161063d565b61079f610d9b565b600855565b60095442101580156107b85750600a544211155b6107d45760405162461bcd60e51b81526004016106a590610f1d565b600d546011543491116107f95760405162461bcd60e51b81526004016106a590610f43565b6002546040516323b872dd60e01b81526001600160a01b03909116906323b872dd9061082d90339030903490600401610eaf565b6020604051808303816000875af115801561084c573d6000803e3d6000fd5b505050506040513d601f19601f820116820180604052508101906108709190610ed3565b61087957600080fd5b600061089060055483610df590919063ffffffff16565b6010549091506108a09083610e0a565b6010556012546108b09082610e0a565b601255336000908152601760205260409020546108cd9083610e0a565b336000908152601760209081526040808320939093556019905220546108f39082610e0a565b33600081815260196020526040908190209290925590517ff4b351c7293f3c20fc9912c61adbe9823a6de3162bde18c98eb6feeae232f861906109399084815260200190565b60405180910390a25050565b61094d610d9b565b6109576000610e16565b565b610961610d9b565b600c55565b600754421015801561097a57506008544211155b6109965760405162461bcd60e51b81526004016106a590610f1d565b600d546011543491116109bb5760405162461bcd60e51b81526004016106a590610f43565b6002546040516323b872dd60e01b81526001600160a01b03909116906323b872dd906109ef90339030903490600401610eaf565b6020604051808303816000875af1158015610a0e573d6000803e3d6000fd5b505050506040513d601f19601f82011682018060405250810190610a329190610ed3565b610a3b57600080fd5b6000610a5260045434610df590919063ffffffff16565b601054909150610a629083610e0a565b601055601154610a729082610e0a565b60115533600090815260176020526040902054610a8f9083610e0a565b33600090815260176020908152604080832093909355601890522054610ab59082610e0a565b33600081815260186020526040908190209290925590517ff4b351c7293f3c20fc9912c61adbe9823a6de3162bde18c98eb6feeae232f861906109399084815260200190565b600b544210158015610b0f5750600c544211155b610b2b5760405162461bcd60e51b81526004016106a590610f1d565b600d54601154349111610b505760405162461bcd60e51b81526004016106a590610f43565b6002546040516323b872dd60e01b81526001600160a01b03909116906323b872dd90610b8490339030903490600401610eaf565b6020604051808303816000875af1158015610ba3573d6000803e3d6000fd5b505050506040513d601f19601f82011682018060405250810190610bc79190610ed3565b610bd057600080fd5b6000610be760065483610df590919063ffffffff16565b601054909150610bf79083610e0a565b601055601354610c079082610e0a565b60135533600090815260176020526040902054610c249083610e0a565b33600090815260176020908152604080832093909355601a90522054610c4a9082610e0a565b336000818152601a6020526040908190209290925590517ff4b351c7293f3c20fc9912c61adbe9823a6de3162bde18c98eb6feeae232f861906109399084815260200190565b600c544211610cb15760405162461bcd60e51b81526004016106a590610ef5565b336000908152601a602052604090205480610ccb57600080fd5b336000818152601a602052604080822091909155600154905163a9059cbb60e01b81526004810192909252602482018390526001600160a01b03169063a9059cbb9060440161063d565b610d1d610d9b565b6001600160a01b038116610d825760405162461bcd60e51b815260206004820152602660248201527f4f776e61626c653a206e6577206f776e657220697320746865207a65726f206160448201526564647265737360d01b60648201526084016106a5565b610d8b81610e16565b50565b610d96610d9b565b600a55565b6000546001600160a01b031633146109575760405162461bcd60e51b815260206004820181905260248201527f4f776e61626c653a2063616c6c6572206973206e6f7420746865206f776e657260448201526064016106a5565b6000610e018284610f83565b90505b92915050565b6000610e018284610f9a565b600080546001600160a01b038381166001600160a01b0319831681178455604051919092169283917f8be0079c531659141344cd1fd0a4f28419497f9722a3daafe3b4186f6b6457e09190a35050565b600060208284031215610e7857600080fd5b81356001600160a01b0381168114610e8f57600080fd5b9392505050565b600060208284031215610ea857600080fd5b5035919050565b6001600160a01b039384168152919092166020820152604081019190915260600190565b600060208284031215610ee557600080fd5b81518015158114610e8f57600080fd5b6020808252600e908201526d092869e40dcdee840ccd2dcd2e6d60931b604082015260600190565b6020808252600c908201526b24a1a7903737ba1037b832b760a11b604082015260600190565b60208082526010908201526f12185c990810d85c081c995858da195960821b604082015260600190565b634e487b7160e01b600052601160045260246000fd5b8082028115828204841417610e0457610e04610f6d565b80820180821115610e0457610e04610f6d56fea26469706673582212207a9d176f00985b3bc5a8b51cdbc71da1391807cd5cc0ff68c0418388c2ae154864736f6c63430008110033436c6f73696e6754696d65206e65656420746f206265207375706572696f7200","opcodes":"PUSH1 0x80 PUSH1 0x40 MSTORE PUSH7 0x16BCC41E90000 PUSH1 0x14 SSTORE PUSH7 0x10334BBC2D000 PUSH1 0x15 SSTORE PUSH6 0xB5E620F48000 PUSH1 0x16 SSTORE CALLVALUE DUP1 ISZERO PUSH3 0x31 JUMPI PUSH1 0x0 DUP1 REVERT JUMPDEST POP PUSH1 0x40 MLOAD PUSH3 0x1360 CODESIZE SUB DUP1 PUSH3 0x1360 DUP4 CODECOPY DUP2 ADD PUSH1 0x40 DUP2 SWAP1 MSTORE PUSH3 0x54 SWAP2 PUSH3 0x2A5 JUMP JUMPDEST PUSH3 0x5F CALLER PUSH3 0x238 JUMP JUMPDEST PUSH1 0x1 PUSH1 0x1 PUSH1 0xA0 SHL SUB DUP10 AND PUSH3 0xB0 JUMPI PUSH1 0x40 MLOAD PUSH3 0x461BCD PUSH1 0xE5 SHL DUP2 MSTORE PUSH1 0x20 PUSH1 0x4 DUP3 ADD MSTORE PUSH1 0x12 PUSH1 0x24 DUP3 ADD MSTORE PUSH18 0x546F6B656E2061646472657373206973203 PUSH1 0x74 SHL PUSH1 0x44 DUP3 ADD MSTORE PUSH1 0x64 ADD JUMPDEST PUSH1 0x40 MLOAD DUP1 SWAP2 SUB SWAP1 REVERT JUMPDEST DUP6 DUP6 GT PUSH3 0xF0 JUMPI PUSH1 0x40 MLOAD PUSH3 0x461BCD PUSH1 0xE5 SHL DUP2 MSTORE PUSH1 0x20 PUSH1 0x4 DUP3 ADD MSTORE PUSH1 0x1F PUSH1 0x24 DUP3 ADD MSTORE PUSH1 0x0 DUP1 MLOAD PUSH1 0x20 PUSH3 0x1340 DUP4 CODECOPY DUP2 MLOAD SWAP2 MSTORE PUSH1 0x44 DUP3 ADD MSTORE PUSH1 0x64 ADD PUSH3 0xA7 JUMP JUMPDEST DUP4 DUP4 GT PUSH3 0x130 JUMPI PUSH1 0x40 MLOAD PUSH3 0x461BCD PUSH1 0xE5 SHL DUP2 MSTORE PUSH1 0x20 PUSH1 0x4 DUP3 ADD MSTORE PUSH1 0x1F PUSH1 0x24 DUP3 ADD MSTORE PUSH1 0x0 DUP1 MLOAD PUSH1 0x20 PUSH3 0x1340 DUP4 CODECOPY DUP2 MLOAD SWAP2 MSTORE PUSH1 0x44 DUP3 ADD MSTORE PUSH1 0x64 ADD PUSH3 0xA7 JUMP JUMPDEST DUP2 DUP2 GT PUSH3 0x170 JUMPI PUSH1 0x40 MLOAD PUSH3 0x461BCD PUSH1 0xE5 SHL DUP2 MSTORE PUSH1 0x20 PUSH1 0x4 DUP3 ADD MSTORE PUSH1 0x1F PUSH1 0x24 DUP3 ADD MSTORE PUSH1 0x0 DUP1 MLOAD PUSH1 0x20 PUSH3 0x1340 DUP4 CODECOPY DUP2 MLOAD SWAP2 MSTORE PUSH1 0x44 DUP3 ADD MSTORE PUSH1 0x64 ADD PUSH3 0xA7 JUMP JUMPDEST PUSH1 0x64 PUSH1 0x14 SLOAD PUSH3 0x181 SWAP2 SWAP1 PUSH3 0x32A JUMP JUMPDEST PUSH1 0x4 SSTORE PUSH1 0x15 SLOAD PUSH3 0x195 SWAP1 PUSH1 0x64 SWAP1 PUSH3 0x32A JUMP JUMPDEST PUSH1 0x5 SSTORE PUSH1 0x16 SLOAD PUSH3 0x1A9 SWAP1 PUSH1 0x64 SWAP1 PUSH3 0x32A JUMP JUMPDEST PUSH1 0x6 SSTORE PUSH1 0x1 DUP1 SLOAD PUSH1 0x1 PUSH1 0x1 PUSH1 0xA0 SHL SUB NOT SWAP1 DUP2 AND PUSH1 0x1 PUSH1 0x1 PUSH1 0xA0 SHL SUB SWAP12 DUP13 AND OR SWAP1 SWAP2 SSTORE PUSH1 0x2 DUP1 SLOAD DUP3 AND SWAP10 DUP12 AND SWAP10 SWAP1 SWAP10 OR SWAP1 SWAP9 SSTORE PUSH1 0x3 DUP1 SLOAD SWAP1 SWAP9 AND SWAP7 SWAP1 SWAP9 AND SWAP6 SWAP1 SWAP6 OR SWAP1 SWAP6 SSTORE PUSH1 0x7 SWAP3 SWAP1 SWAP3 SSTORE PUSH1 0x8 SSTORE PUSH1 0x9 SSTORE PUSH1 0xA SWAP2 SWAP1 SWAP2 SSTORE PUSH1 0xB SSTORE PUSH1 0xC SSTORE PUSH11 0xF8277896582678AC00000 PUSH1 0xD SSTORE PUSH11 0x94E47B8D6817153400000 PUSH1 0xE SSTORE PUSH11 0x6342FD08F00F637800000 PUSH1 0xF SSTORE PUSH3 0x34D JUMP JUMPDEST PUSH1 0x0 DUP1 SLOAD PUSH1 0x1 PUSH1 0x1 PUSH1 0xA0 SHL SUB DUP4 DUP2 AND PUSH1 0x1 PUSH1 0x1 PUSH1 0xA0 SHL SUB NOT DUP4 AND DUP2 OR DUP5 SSTORE PUSH1 0x40 MLOAD SWAP2 SWAP1 SWAP3 AND SWAP3 DUP4 SWAP2 PUSH32 0x8BE0079C531659141344CD1FD0A4F28419497F9722A3DAAFE3B4186F6B6457E0 SWAP2 SWAP1 LOG3 POP POP JUMP JUMPDEST DUP1 MLOAD PUSH1 0x1 PUSH1 0x1 PUSH1 0xA0 SHL SUB DUP2 AND DUP2 EQ PUSH3 0x2A0 JUMPI PUSH1 0x0 DUP1 REVERT JUMPDEST SWAP2 SWAP1 POP JUMP JUMPDEST PUSH1 0x0 DUP1 PUSH1 0x0 DUP1 PUSH1 0x0 DUP1 PUSH1 0x0 DUP1 PUSH1 0x0 PUSH2 0x120 DUP11 DUP13 SUB SLT ISZERO PUSH3 0x2C5 JUMPI PUSH1 0x0 DUP1 REVERT JUMPDEST PUSH3 0x2D0 DUP11 PUSH3 0x288 JUMP JUMPDEST SWAP9 POP PUSH3 0x2E0 PUSH1 0x20 DUP12 ADD PUSH3 0x288 JUMP JUMPDEST SWAP8 POP PUSH3 0x2F0 PUSH1 0x40 DUP12 ADD PUSH3 0x288 JUMP JUMPDEST SWAP7 POP PUSH1 0x60 DUP11 ADD MLOAD SWAP6 POP PUSH1 0x80 DUP11 ADD MLOAD SWAP5 POP PUSH1 0xA0 DUP11 ADD MLOAD SWAP4 POP PUSH1 0xC0 DUP11 ADD MLOAD SWAP3 POP PUSH1 0xE0 DUP11 ADD MLOAD SWAP2 POP PUSH2 0x100 DUP11 ADD MLOAD SWAP1 POP SWAP3 SWAP6 SWAP9 POP SWAP3 SWAP6 SWAP9 POP SWAP3 SWAP6 SWAP9 JUMP JUMPDEST PUSH1 0x0 DUP3 PUSH3 0x348 JUMPI PUSH4 0x4E487B71 PUSH1 0xE0 SHL PUSH1 0x0 MSTORE PUSH1 0x12 PUSH1 0x4 MSTORE PUSH1 0x24 PUSH1 0x0 REVERT JUMPDEST POP DIV SWAP1 JUMP JUMPDEST PUSH2 0xFE3 DUP1 PUSH3 0x35D PUSH1 0x0 CODECOPY PUSH1 0x0 RETURN INVALID PUSH1 0x80 PUSH1 0x40 MSTORE PUSH1 0x4 CALLDATASIZE LT PUSH2 0x21A JUMPI PUSH1 0x0 CALLDATALOAD PUSH1 0xE0 SHR DUP1 PUSH4 0x7A09FC70 GT PUSH2 0x123 JUMPI DUP1 PUSH4 0xCFA1A7EC GT PUSH2 0xAB JUMPI DUP1 PUSH4 0xE7E879DF GT PUSH2 0x6F JUMPI DUP1 PUSH4 0xE7E879DF EQ PUSH2 0x56C JUMPI DUP1 PUSH4 0xEC0BE958 EQ PUSH2 0x599 JUMPI DUP1 PUSH4 0xECCBAF7E EQ PUSH2 0x5AE JUMPI DUP1 PUSH4 0xF2FDE38B EQ PUSH2 0x5C4 JUMPI DUP1 PUSH4 0xFE6154DF EQ PUSH2 0x5E4 JUMPI PUSH1 0x0 DUP1 REVERT JUMPDEST DUP1 PUSH4 0xCFA1A7EC EQ PUSH2 0x4F5 JUMPI DUP1 PUSH4 0xD9C9CE10 EQ PUSH2 0x522 JUMPI DUP1 PUSH4 0xDBABEB25 EQ PUSH2 0x52A JUMPI DUP1 PUSH4 0xDC372B5A EQ PUSH2 0x540 JUMPI DUP1 PUSH4 0xE744E9C6 EQ PUSH2 0x556 JUMPI PUSH1 0x0 DUP1 REVERT JUMPDEST DUP1 PUSH4 0x90D98D75 GT PUSH2 0xF2 JUMPI DUP1 PUSH4 0x90D98D75 EQ PUSH2 0x47E JUMPI DUP1 PUSH4 0xA680ABCF EQ PUSH2 0x494 JUMPI DUP1 PUSH4 0xBBCE0059 EQ PUSH2 0x4AA JUMPI DUP1 PUSH4 0xBBDA36C5 EQ PUSH2 0x4B2 JUMPI DUP1 PUSH4 0xC59EE1DC EQ PUSH2 0x4DF JUMPI PUSH1 0x0 DUP1 REVERT JUMPDEST DUP1 PUSH4 0x7A09FC70 EQ PUSH2 0x40A JUMPI DUP1 PUSH4 0x7C6186F9 EQ PUSH2 0x42A JUMPI DUP1 PUSH4 0x8DA5CB5B EQ PUSH2 0x440 JUMPI DUP1 PUSH4 0x8DADC69F EQ PUSH2 0x468 JUMPI PUSH1 0x0 DUP1 REVERT JUMPDEST DUP1 PUSH4 0x2EB795D9 GT PUSH2 0x1A6 JUMPI DUP1 PUSH4 0x5B9C476F GT PUSH2 0x175 JUMPI DUP1 PUSH4 0x5B9C476F EQ PUSH2 0x3AB JUMPI DUP1 PUSH4 0x5BADF43A EQ PUSH2 0x3C1 JUMPI DUP1 PUSH4 0x5D41363F EQ PUSH2 0x3C9 JUMPI DUP1 PUSH4 0x5F7ADD42 EQ PUSH2 0x3DF JUMPI DUP1 PUSH4 0x715018A6 EQ PUSH2 0x3F5 JUMPI PUSH1 0x0 DUP1 REVERT JUMPDEST DUP1 PUSH4 0x2EB795D9 EQ PUSH2 0x33E JUMPI DUP1 PUSH4 0x46FC8A77 EQ PUSH2 0x354 JUMPI DUP1 PUSH4 0x514D5071 EQ PUSH2 0x376 JUMPI DUP1 PUSH4 0x521FF4CE EQ PUSH2 0x38B JUMPI PUSH1 0x0 DUP1 REVERT JUMPDEST DUP1 PUSH4 0x12065FE0 GT PUSH2 0x1ED JUMPI DUP1 PUSH4 0x12065FE0 EQ PUSH2 0x296 JUMPI DUP1 PUSH4 0x1B3057CF EQ PUSH2 0x2B8 JUMPI DUP1 PUSH4 0x27E235E3 EQ PUSH2 0x2DA JUMPI DUP1 PUSH4 0x2E1A7D4D EQ PUSH2 0x307 JUMPI DUP1 PUSH4 0x2E58E582 EQ PUSH2 0x329 JUMPI PUSH1 0x0 DUP1 REVERT JUMPDEST DUP1 PUSH4 0xA564A03 EQ PUSH2 0x21F JUMPI DUP1 PUSH4 0xAF0E796 EQ PUSH2 0x248 JUMPI DUP1 PUSH4 0x102CC3EA EQ PUSH2 0x26A JUMPI DUP1 PUSH4 0x118AB178 EQ PUSH2 0x280 JUMPI JUMPDEST PUSH1 0x0 DUP1 REVERT JUMPDEST CALLVALUE DUP1 ISZERO PUSH2 0x22B JUMPI PUSH1 0x0 DUP1 REVERT JUMPDEST POP PUSH2 0x235 PUSH1 0x5 SLOAD DUP2 JUMP JUMPDEST PUSH1 0x40 MLOAD SWAP1 DUP2 MSTORE PUSH1 0x20 ADD JUMPDEST PUSH1 0x40 MLOAD DUP1 SWAP2 SUB SWAP1 RETURN JUMPDEST CALLVALUE DUP1 ISZERO PUSH2 0x254 JUMPI PUSH1 0x0 DUP1 REVERT JUMPDEST POP CALLER PUSH1 0x0 SWAP1 DUP2 MSTORE PUSH1 0x19 PUSH1 0x20 MSTORE PUSH1 0x40 SWAP1 KECCAK256 SLOAD PUSH2 0x235 JUMP JUMPDEST CALLVALUE DUP1 ISZERO PUSH2 0x276 JUMPI PUSH1 0x0 DUP1 REVERT JUMPDEST POP PUSH2 0x235 PUSH1 0xD SLOAD DUP2 JUMP JUMPDEST CALLVALUE DUP1 ISZERO PUSH2 0x28C JUMPI PUSH1 0x0 DUP1 REVERT JUMPDEST POP PUSH2 0x235 PUSH1 0x6 SLOAD DUP2 JUMP JUMPDEST CALLVALUE DUP1 ISZERO PUSH2 0x2A2 JUMPI PUSH1 0x0 DUP1 REVERT JUMPDEST POP CALLER PUSH1 0x0 SWAP1 DUP2 MSTORE PUSH1 0x17 PUSH1 0x20 MSTORE PUSH1 0x40 SWAP1 KECCAK256 SLOAD PUSH2 0x235 JUMP JUMPDEST CALLVALUE DUP1 ISZERO PUSH2 0x2C4 JUMPI PUSH1 0x0 DUP1 REVERT JUMPDEST POP CALLER PUSH1 0x0 SWAP1 DUP2 MSTORE PUSH1 0x1A PUSH1 0x20 MSTORE PUSH1 0x40 SWAP1 KECCAK256 SLOAD PUSH2 0x235 JUMP JUMPDEST CALLVALUE DUP1 ISZERO PUSH2 0x2E6 JUMPI PUSH1 0x0 DUP1 REVERT JUMPDEST POP PUSH2 0x235 PUSH2 0x2F5 CALLDATASIZE PUSH1 0x4 PUSH2 0xE66 JUMP JUMPDEST PUSH1 0x17 PUSH1 0x20 MSTORE PUSH1 0x0 SWAP1 DUP2 MSTORE PUSH1 0x40 SWAP1 KECCAK256 SLOAD DUP2 JUMP JUMPDEST CALLVALUE DUP1 ISZERO PUSH2 0x313 JUMPI PUSH1 0x0 DUP1 REVERT JUMPDEST POP PUSH2 0x327 PUSH2 0x322 CALLDATASIZE PUSH1 0x4 PUSH2 0xE96 JUMP JUMPDEST PUSH2 0x604 JUMP JUMPDEST STOP JUMPDEST CALLVALUE DUP1 ISZERO PUSH2 0x335 JUMPI PUSH1 0x0 DUP1 REVERT JUMPDEST POP PUSH2 0x327 PUSH2 0x684 JUMP JUMPDEST CALLVALUE DUP1 ISZERO PUSH2 0x34A JUMPI PUSH1 0x0 DUP1 REVERT JUMPDEST POP PUSH2 0x235 PUSH1 0x11 SLOAD DUP2 JUMP JUMPDEST CALLVALUE DUP1 ISZERO PUSH2 0x360 JUMPI PUSH1 0x0 DUP1 REVERT JUMPDEST POP CALLER PUSH1 0x0 SWAP1 DUP2 MSTORE PUSH1 0x18 PUSH1 0x20 MSTORE PUSH1 0x40 SWAP1 KECCAK256 SLOAD PUSH2 0x235 JUMP JUMPDEST CALLVALUE DUP1 ISZERO PUSH2 0x382 JUMPI PUSH1 0x0 DUP1 REVERT JUMPDEST POP PUSH2 0x327 PUSH2 0x712 JUMP JUMPDEST CALLVALUE DUP1 ISZERO PUSH2 0x397 JUMPI PUSH1 0x0 DUP1 REVERT JUMPDEST POP PUSH2 0x327 PUSH2 0x3A6 CALLDATASIZE PUSH1 0x4 PUSH2 0xE96 JUMP JUMPDEST PUSH2 0x797 JUMP JUMPDEST CALLVALUE DUP1 ISZERO PUSH2 0x3B7 JUMPI PUSH1 0x0 DUP1 REVERT JUMPDEST POP PUSH2 0x235 PUSH1 0xC SLOAD DUP2 JUMP JUMPDEST PUSH2 0x327 PUSH2 0x7A4 JUMP JUMPDEST CALLVALUE DUP1 ISZERO PUSH2 0x3D5 JUMPI PUSH1 0x0 DUP1 REVERT JUMPDEST POP PUSH2 0x235 PUSH1 0x4 SLOAD DUP2 JUMP JUMPDEST CALLVALUE DUP1 ISZERO PUSH2 0x3EB JUMPI PUSH1 0x0 DUP1 REVERT JUMPDEST POP PUSH2 0x235 PUSH1 0xB SLOAD DUP2 JUMP JUMPDEST CALLVALUE DUP1 ISZERO PUSH2 0x401 JUMPI PUSH1 0x0 DUP1 REVERT JUMPDEST POP PUSH2 0x327 PUSH2 0x945 JUMP JUMPDEST CALLVALUE DUP1 ISZERO PUSH2 0x416 JUMPI PUSH1 0x0 DUP1 REVERT JUMPDEST POP PUSH2 0x327 PUSH2 0x425 CALLDATASIZE PUSH1 0x4 PUSH2 0xE96 JUMP JUMPDEST PUSH2 0x959 JUMP JUMPDEST CALLVALUE DUP1 ISZERO PUSH2 0x436 JUMPI PUSH1 0x0 DUP1 REVERT JUMPDEST POP PUSH2 0x235 PUSH1 0x7 SLOAD DUP2 JUMP JUMPDEST CALLVALUE DUP1 ISZERO PUSH2 0x44C JUMPI PUSH1 0x0 DUP1 REVERT JUMPDEST POP PUSH1 0x0 SLOAD PUSH1 0x40 MLOAD PUSH1 0x1 PUSH1 0x1 PUSH1 0xA0 SHL SUB SWAP1 SWAP2 AND DUP2 MSTORE PUSH1 0x20 ADD PUSH2 0x23F JUMP JUMPDEST CALLVALUE DUP1 ISZERO PUSH2 0x474 JUMPI PUSH1 0x0 DUP1 REVERT JUMPDEST POP PUSH2 0x235 PUSH1 0xA SLOAD DUP2 JUMP JUMPDEST CALLVALUE DUP1 ISZERO PUSH2 0x48A JUMPI PUSH1 0x0 DUP1 REVERT JUMPDEST POP PUSH2 0x235 PUSH1 0x13 SLOAD DUP2 JUMP JUMPDEST CALLVALUE DUP1 ISZERO PUSH2 0x4A0 JUMPI PUSH1 0x0 DUP1 REVERT JUMPDEST POP PUSH2 0x235 PUSH1 0x8 SLOAD DUP2 JUMP JUMPDEST PUSH2 0x327 PUSH2 0x966 JUMP JUMPDEST CALLVALUE DUP1 ISZERO PUSH2 0x4BE JUMPI PUSH1 0x0 DUP1 REVERT JUMPDEST POP PUSH2 0x235 PUSH2 0x4CD CALLDATASIZE PUSH1 0x4 PUSH2 0xE66 JUMP JUMPDEST PUSH1 0x1A PUSH1 0x20 MSTORE PUSH1 0x0 SWAP1 DUP2 MSTORE PUSH1 0x40 SWAP1 KECCAK256 SLOAD DUP2 JUMP JUMPDEST CALLVALUE DUP1 ISZERO PUSH2 0x4EB JUMPI PUSH1 0x0 DUP1 REVERT JUMPDEST POP PUSH2 0x235 PUSH1 0x10 SLOAD DUP2 JUMP JUMPDEST CALLVALUE DUP1 ISZERO PUSH2 0x501 JUMPI PUSH1 0x0 DUP1 REVERT JUMPDEST POP PUSH2 0x235 PUSH2 0x510 CALLDATASIZE PUSH1 0x4 PUSH2 0xE66 JUMP JUMPDEST PUSH1 0x18 PUSH1 0x20 MSTORE PUSH1 0x0 SWAP1 DUP2 MSTORE PUSH1 0x40 SWAP1 KECCAK256 SLOAD DUP2 JUMP JUMPDEST PUSH2 0x327 PUSH2 0xAFB JUMP JUMPDEST CALLVALUE DUP1 ISZERO PUSH2 0x536 JUMPI PUSH1 0x0 DUP1 REVERT JUMPDEST POP PUSH2 0x235 PUSH1 0x12 SLOAD DUP2 JUMP JUMPDEST CALLVALUE DUP1 ISZERO PUSH2 0x54C JUMPI PUSH1 0x0 DUP1 REVERT JUMPDEST POP PUSH2 0x235 PUSH1 0xE SLOAD DUP2 JUMP JUMPDEST CALLVALUE DUP1 ISZERO PUSH2 0x562 JUMPI PUSH1 0x0 DUP1 REVERT JUMPDEST POP PUSH2 0x235 PUSH1 0xF SLOAD DUP2 JUMP JUMPDEST CALLVALUE DUP1 ISZERO PUSH2 0x578 JUMPI PUSH1 0x0 DUP1 REVERT JUMPDEST POP PUSH2 0x235 PUSH2 0x587 CALLDATASIZE PUSH1 0x4 PUSH2 0xE66 JUMP JUMPDEST PUSH1 0x19 PUSH1 0x20 MSTORE PUSH1 0x0 SWAP1 DUP2 MSTORE PUSH1 0x40 SWAP1 KECCAK256 SLOAD DUP2 JUMP JUMPDEST CALLVALUE DUP1 ISZERO PUSH2 0x5A5 JUMPI PUSH1 0x0 DUP1 REVERT JUMPDEST POP PUSH2 0x327 PUSH2 0xC90 JUMP JUMPDEST CALLVALUE DUP1 ISZERO PUSH2 0x5BA JUMPI PUSH1 0x0 DUP1 REVERT JUMPDEST POP PUSH2 0x235 PUSH1 0x9 SLOAD DUP2 JUMP JUMPDEST CALLVALUE DUP1 ISZERO PUSH2 0x5D0 JUMPI PUSH1 0x0 DUP1 REVERT JUMPDEST POP PUSH2 0x327 PUSH2 0x5DF CALLDATASIZE PUSH1 0x4 PUSH2 0xE66 JUMP JUMPDEST PUSH2 0xD15 JUMP JUMPDEST CALLVALUE DUP1 ISZERO PUSH2 0x5F0 JUMPI PUSH1 0x0 DUP1 REVERT JUMPDEST POP PUSH2 0x327 PUSH2 0x5FF CALLDATASIZE PUSH1 0x4 PUSH2 0xE96 JUMP JUMPDEST PUSH2 0xD8E JUMP JUMPDEST PUSH1 0x2 SLOAD PUSH1 0x3 SLOAD PUSH1 0x40 MLOAD PUSH4 0x23B872DD PUSH1 0xE0 SHL DUP2 MSTORE PUSH1 0x1 PUSH1 0x1 PUSH1 0xA0 SHL SUB SWAP3 DUP4 AND SWAP3 PUSH4 0x23B872DD SWAP3 PUSH2 0x63D SWAP3 ADDRESS SWAP3 SWAP1 SWAP2 AND SWAP1 DUP7 SWAP1 PUSH1 0x4 ADD PUSH2 0xEAF JUMP JUMPDEST PUSH1 0x20 PUSH1 0x40 MLOAD DUP1 DUP4 SUB DUP2 PUSH1 0x0 DUP8 GAS CALL ISZERO DUP1 ISZERO PUSH2 0x65C JUMPI RETURNDATASIZE PUSH1 0x0 DUP1 RETURNDATACOPY RETURNDATASIZE PUSH1 0x0 REVERT JUMPDEST POP POP POP POP PUSH1 0x40 MLOAD RETURNDATASIZE PUSH1 0x1F NOT PUSH1 0x1F DUP3 ADD AND DUP3 ADD DUP1 PUSH1 0x40 MSTORE POP DUP2 ADD SWAP1 PUSH2 0x680 SWAP2 SWAP1 PUSH2 0xED3 JUMP JUMPDEST POP POP JUMP JUMPDEST PUSH1 0xA SLOAD TIMESTAMP GT PUSH2 0x6AE JUMPI PUSH1 0x40 MLOAD PUSH3 0x461BCD PUSH1 0xE5 SHL DUP2 MSTORE PUSH1 0x4 ADD PUSH2 0x6A5 SWAP1 PUSH2 0xEF5 JUMP JUMPDEST PUSH1 0x40 MLOAD DUP1 SWAP2 SUB SWAP1 REVERT JUMPDEST CALLER PUSH1 0x0 SWAP1 DUP2 MSTORE PUSH1 0x19 PUSH1 0x20 MSTORE PUSH1 0x40 SWAP1 KECCAK256 SLOAD DUP1 PUSH2 0x6C8 JUMPI PUSH1 0x0 DUP1 REVERT JUMPDEST CALLER PUSH1 0x0 DUP2 DUP2 MSTORE PUSH1 0x19 PUSH1 0x20 MSTORE PUSH1 0x40 DUP1 DUP3 KECCAK256 SWAP2 SWAP1 SWAP2 SSTORE PUSH1 0x1 SLOAD SWAP1 MLOAD PUSH4 0xA9059CBB PUSH1 0xE0 SHL DUP2 MSTORE PUSH1 0x4 DUP2 ADD SWAP3 SWAP1 SWAP3 MSTORE PUSH1 0x24 DUP3 ADD DUP4 SWAP1 MSTORE PUSH1 0x1 PUSH1 0x1 PUSH1 0xA0 SHL SUB AND SWAP1 PUSH4 0xA9059CBB SWAP1 PUSH1 0x44 ADD PUSH2 0x63D JUMP JUMPDEST PUSH1 0x8 SLOAD TIMESTAMP GT PUSH2 0x733 JUMPI PUSH1 0x40 MLOAD PUSH3 0x461BCD PUSH1 0xE5 SHL DUP2 MSTORE PUSH1 0x4 ADD PUSH2 0x6A5 SWAP1 PUSH2 0xEF5 JUMP JUMPDEST CALLER PUSH1 0x0 SWAP1 DUP2 MSTORE PUSH1 0x18 PUSH1 0x20 MSTORE PUSH1 0x40 SWAP1 KECCAK256 SLOAD DUP1 PUSH2 0x74D JUMPI PUSH1 0x0 DUP1 REVERT JUMPDEST CALLER PUSH1 0x0 DUP2 DUP2 MSTORE PUSH1 0x18 PUSH1 0x20 MSTORE PUSH1 0x40 DUP1 DUP3 KECCAK256 SWAP2 SWAP1 SWAP2 SSTORE PUSH1 0x1 SLOAD SWAP1 MLOAD PUSH4 0xA9059CBB PUSH1 0xE0 SHL DUP2 MSTORE PUSH1 0x4 DUP2 ADD SWAP3 SWAP1 SWAP3 MSTORE PUSH1 0x24 DUP3 ADD DUP4 SWAP1 MSTORE PUSH1 0x1 PUSH1 0x1 PUSH1 0xA0 SHL SUB AND SWAP1 PUSH4 0xA9059CBB SWAP1 PUSH1 0x44 ADD PUSH2 0x63D JUMP JUMPDEST PUSH2 0x79F PUSH2 0xD9B JUMP JUMPDEST PUSH1 0x8 SSTORE JUMP JUMPDEST PUSH1 0x9 SLOAD TIMESTAMP LT ISZERO DUP1 ISZERO PUSH2 0x7B8 JUMPI POP PUSH1 0xA SLOAD TIMESTAMP GT ISZERO JUMPDEST PUSH2 0x7D4 JUMPI PUSH1 0x40 MLOAD PUSH3 0x461BCD PUSH1 0xE5 SHL DUP2 MSTORE PUSH1 0x4 ADD PUSH2 0x6A5 SWAP1 PUSH2 0xF1D JUMP JUMPDEST PUSH1 0xD SLOAD PUSH1 0x11 SLOAD CALLVALUE SWAP2 GT PUSH2 0x7F9 JUMPI PUSH1 0x40 MLOAD PUSH3 0x461BCD PUSH1 0xE5 SHL DUP2 MSTORE PUSH1 0x4 ADD PUSH2 0x6A5 SWAP1 PUSH2 0xF43 JUMP JUMPDEST PUSH1 0x2 SLOAD PUSH1 0x40 MLOAD PUSH4 0x23B872DD PUSH1 0xE0 SHL DUP2 MSTORE PUSH1 0x1 PUSH1 0x1 PUSH1 0xA0 SHL SUB SWAP1 SWAP2 AND SWAP1 PUSH4 0x23B872DD SWAP1 PUSH2 0x82D SWAP1 CALLER SWAP1 ADDRESS SWAP1 CALLVALUE SWAP1 PUSH1 0x4 ADD PUSH2 0xEAF JUMP JUMPDEST PUSH1 0x20 PUSH1 0x40 MLOAD DUP1 DUP4 SUB DUP2 PUSH1 0x0 DUP8 GAS CALL ISZERO DUP1 ISZERO PUSH2 0x84C JUMPI RETURNDATASIZE PUSH1 0x0 DUP1 RETURNDATACOPY RETURNDATASIZE PUSH1 0x0 REVERT JUMPDEST POP POP POP POP PUSH1 0x40 MLOAD RETURNDATASIZE PUSH1 0x1F NOT PUSH1 0x1F DUP3 ADD AND DUP3 ADD DUP1 PUSH1 0x40 MSTORE POP DUP2 ADD SWAP1 PUSH2 0x870 SWAP2 SWAP1 PUSH2 0xED3 JUMP JUMPDEST PUSH2 0x879 JUMPI PUSH1 0x0 DUP1 REVERT JUMPDEST PUSH1 0x0 PUSH2 0x890 PUSH1 0x5 SLOAD DUP4 PUSH2 0xDF5 SWAP1 SWAP2 SWAP1 PUSH4 0xFFFFFFFF AND JUMP JUMPDEST PUSH1 0x10 SLOAD SWAP1 SWAP2 POP PUSH2 0x8A0 SWAP1 DUP4 PUSH2 0xE0A JUMP JUMPDEST PUSH1 0x10 SSTORE PUSH1 0x12 SLOAD PUSH2 0x8B0 SWAP1 DUP3 PUSH2 0xE0A JUMP JUMPDEST PUSH1 0x12 SSTORE CALLER PUSH1 0x0 SWAP1 DUP2 MSTORE PUSH1 0x17 PUSH1 0x20 MSTORE PUSH1 0x40 SWAP1 KECCAK256 SLOAD PUSH2 0x8CD SWAP1 DUP4 PUSH2 0xE0A JUMP JUMPDEST CALLER PUSH1 0x0 SWAP1 DUP2 MSTORE PUSH1 0x17 PUSH1 0x20 SWAP1 DUP2 MSTORE PUSH1 0x40 DUP1 DUP4 KECCAK256 SWAP4 SWAP1 SWAP4 SSTORE PUSH1 0x19 SWAP1 MSTORE KECCAK256 SLOAD PUSH2 0x8F3 SWAP1 DUP3 PUSH2 0xE0A JUMP JUMPDEST CALLER PUSH1 0x0 DUP2 DUP2 MSTORE PUSH1 0x19 PUSH1 0x20 MSTORE PUSH1 0x40 SWAP1 DUP2 SWAP1 KECCAK256 SWAP3 SWAP1 SWAP3 SSTORE SWAP1 MLOAD PUSH32 0xF4B351C7293F3C20FC9912C61ADBE9823A6DE3162BDE18C98EB6FEEAE232F861 SWAP1 PUSH2 0x939 SWAP1 DUP5 DUP2 MSTORE PUSH1 0x20 ADD SWAP1 JUMP JUMPDEST PUSH1 0x40 MLOAD DUP1 SWAP2 SUB SWAP1 LOG2 POP POP JUMP JUMPDEST PUSH2 0x94D PUSH2 0xD9B JUMP JUMPDEST PUSH2 0x957 PUSH1 0x0 PUSH2 0xE16 JUMP JUMPDEST JUMP JUMPDEST PUSH2 0x961 PUSH2 0xD9B JUMP JUMPDEST PUSH1 0xC SSTORE JUMP JUMPDEST PUSH1 0x7 SLOAD TIMESTAMP LT ISZERO DUP1 ISZERO PUSH2 0x97A JUMPI POP PUSH1 0x8 SLOAD TIMESTAMP GT ISZERO JUMPDEST PUSH2 0x996 JUMPI PUSH1 0x40 MLOAD PUSH3 0x461BCD PUSH1 0xE5 SHL DUP2 MSTORE PUSH1 0x4 ADD PUSH2 0x6A5 SWAP1 PUSH2 0xF1D JUMP JUMPDEST PUSH1 0xD SLOAD PUSH1 0x11 SLOAD CALLVALUE SWAP2 GT PUSH2 0x9BB JUMPI PUSH1 0x40 MLOAD PUSH3 0x461BCD PUSH1 0xE5 SHL DUP2 MSTORE PUSH1 0x4 ADD PUSH2 0x6A5 SWAP1 PUSH2 0xF43 JUMP JUMPDEST PUSH1 0x2 SLOAD PUSH1 0x40 MLOAD PUSH4 0x23B872DD PUSH1 0xE0 SHL DUP2 MSTORE PUSH1 0x1 PUSH1 0x1 PUSH1 0xA0 SHL SUB SWAP1 SWAP2 AND SWAP1 PUSH4 0x23B872DD SWAP1 PUSH2 0x9EF SWAP1 CALLER SWAP1 ADDRESS SWAP1 CALLVALUE SWAP1 PUSH1 0x4 ADD PUSH2 0xEAF JUMP JUMPDEST PUSH1 0x20 PUSH1 0x40 MLOAD DUP1 DUP4 SUB DUP2 PUSH1 0x0 DUP8 GAS CALL ISZERO DUP1 ISZERO PUSH2 0xA0E JUMPI RETURNDATASIZE PUSH1 0x0 DUP1 RETURNDATACOPY RETURNDATASIZE PUSH1 0x0 REVERT JUMPDEST POP POP POP POP PUSH1 0x40 MLOAD RETURNDATASIZE PUSH1 0x1F NOT PUSH1 0x1F DUP3 ADD AND DUP3 ADD DUP1 PUSH1 0x40 MSTORE POP DUP2 ADD SWAP1 PUSH2 0xA32 SWAP2 SWAP1 PUSH2 0xED3 JUMP JUMPDEST PUSH2 0xA3B JUMPI PUSH1 0x0 DUP1 REVERT JUMPDEST PUSH1 0x0 PUSH2 0xA52 PUSH1 0x4 SLOAD CALLVALUE PUSH2 0xDF5 SWAP1 SWAP2 SWAP1 PUSH4 0xFFFFFFFF AND JUMP JUMPDEST PUSH1 0x10 SLOAD SWAP1 SWAP2 POP PUSH2 0xA62 SWAP1 DUP4 PUSH2 0xE0A JUMP JUMPDEST PUSH1 0x10 SSTORE PUSH1 0x11 SLOAD PUSH2 0xA72 SWAP1 DUP3 PUSH2 0xE0A JUMP JUMPDEST PUSH1 0x11 SSTORE CALLER PUSH1 0x0 SWAP1 DUP2 MSTORE PUSH1 0x17 PUSH1 0x20 MSTORE PUSH1 0x40 SWAP1 KECCAK256 SLOAD PUSH2 0xA8F SWAP1 DUP4 PUSH2 0xE0A JUMP JUMPDEST CALLER PUSH1 0x0 SWAP1 DUP2 MSTORE PUSH1 0x17 PUSH1 0x20 SWAP1 DUP2 MSTORE PUSH1 0x40 DUP1 DUP4 KECCAK256 SWAP4 SWAP1 SWAP4 SSTORE PUSH1 0x18 SWAP1 MSTORE KECCAK256 SLOAD PUSH2 0xAB5 SWAP1 DUP3 PUSH2 0xE0A JUMP JUMPDEST CALLER PUSH1 0x0 DUP2 DUP2 MSTORE PUSH1 0x18 PUSH1 0x20 MSTORE PUSH1 0x40 SWAP1 DUP2 SWAP1 KECCAK256 SWAP3 SWAP1 SWAP3 SSTORE SWAP1 MLOAD PUSH32 0xF4B351C7293F3C20FC9912C61ADBE9823A6DE3162BDE18C98EB6FEEAE232F861 SWAP1 PUSH2 0x939 SWAP1 DUP5 DUP2 MSTORE PUSH1 0x20 ADD SWAP1 JUMP JUMPDEST PUSH1 0xB SLOAD TIMESTAMP LT ISZERO DUP1 ISZERO PUSH2 0xB0F JUMPI POP PUSH1 0xC SLOAD TIMESTAMP GT ISZERO JUMPDEST PUSH2 0xB2B JUMPI PUSH1 0x40 MLOAD PUSH3 0x461BCD PUSH1 0xE5 SHL DUP2 MSTORE PUSH1 0x4 ADD PUSH2 0x6A5 SWAP1 PUSH2 0xF1D JUMP JUMPDEST PUSH1 0xD SLOAD PUSH1 0x11 SLOAD CALLVALUE SWAP2 GT PUSH2 0xB50 JUMPI PUSH1 0x40 MLOAD PUSH3 0x461BCD PUSH1 0xE5 SHL DUP2 MSTORE PUSH1 0x4 ADD PUSH2 0x6A5 SWAP1 PUSH2 0xF43 JUMP JUMPDEST PUSH1 0x2 SLOAD PUSH1 0x40 MLOAD PUSH4 0x23B872DD PUSH1 0xE0 SHL DUP2 MSTORE PUSH1 0x1 PUSH1 0x1 PUSH1 0xA0 SHL SUB SWAP1 SWAP2 AND SWAP1 PUSH4 0x23B872DD SWAP1 PUSH2 0xB84 SWAP1 CALLER SWAP1 ADDRESS SWAP1 CALLVALUE SWAP1 PUSH1 0x4 ADD PUSH2 0xEAF JUMP JUMPDEST PUSH1 0x20 PUSH1 0x40 MLOAD DUP1 DUP4 SUB DUP2 PUSH1 0x0 DUP8 GAS CALL ISZERO DUP1 ISZERO PUSH2 0xBA3 JUMPI RETURNDATASIZE PUSH1 0x0 DUP1 RETURNDATACOPY RETURNDATASIZE PUSH1 0x0 REVERT JUMPDEST POP POP POP POP PUSH1 0x40 MLOAD RETURNDATASIZE PUSH1 0x1F NOT PUSH1 0x1F DUP3 ADD AND DUP3 ADD DUP1 PUSH1 0x40 MSTORE POP DUP2 ADD SWAP1 PUSH2 0xBC7 SWAP2 SWAP1 PUSH2 0xED3 JUMP JUMPDEST PUSH2 0xBD0 JUMPI PUSH1 0x0 DUP1 REVERT JUMPDEST PUSH1 0x0 PUSH2 0xBE7 PUSH1 0x6 SLOAD DUP4 PUSH2 0xDF5 SWAP1 SWAP2 SWAP1 PUSH4 0xFFFFFFFF AND JUMP JUMPDEST PUSH1 0x10 SLOAD SWAP1 SWAP2 POP PUSH2 0xBF7 SWAP1 DUP4 PUSH2 0xE0A JUMP JUMPDEST PUSH1 0x10 SSTORE PUSH1 0x13 SLOAD PUSH2 0xC07 SWAP1 DUP3 PUSH2 0xE0A JUMP JUMPDEST PUSH1 0x13 SSTORE CALLER PUSH1 0x0 SWAP1 DUP2 MSTORE PUSH1 0x17 PUSH1 0x20 MSTORE PUSH1 0x40 SWAP1 KECCAK256 SLOAD PUSH2 0xC24 SWAP1 DUP4 PUSH2 0xE0A JUMP JUMPDEST CALLER PUSH1 0x0 SWAP1 DUP2 MSTORE PUSH1 0x17 PUSH1 0x20 SWAP1 DUP2 MSTORE PUSH1 0x40 DUP1 DUP4 KECCAK256 SWAP4 SWAP1 SWAP4 SSTORE PUSH1 0x1A SWAP1 MSTORE KECCAK256 SLOAD PUSH2 0xC4A SWAP1 DUP3 PUSH2 0xE0A JUMP JUMPDEST CALLER PUSH1 0x0 DUP2 DUP2 MSTORE PUSH1 0x1A PUSH1 0x20 MSTORE PUSH1 0x40 SWAP1 DUP2 SWAP1 KECCAK256 SWAP3 SWAP1 SWAP3 SSTORE SWAP1 MLOAD PUSH32 0xF4B351C7293F3C20FC9912C61ADBE9823A6DE3162BDE18C98EB6FEEAE232F861 SWAP1 PUSH2 0x939 SWAP1 DUP5 DUP2 MSTORE PUSH1 0x20 ADD SWAP1 JUMP JUMPDEST PUSH1 0xC SLOAD TIMESTAMP GT PUSH2 0xCB1 JUMPI PUSH1 0x40 MLOAD PUSH3 0x461BCD PUSH1 0xE5 SHL DUP2 MSTORE PUSH1 0x4 ADD PUSH2 0x6A5 SWAP1 PUSH2 0xEF5 JUMP JUMPDEST CALLER PUSH1 0x0 SWAP1 DUP2 MSTORE PUSH1 0x1A PUSH1 0x20 MSTORE PUSH1 0x40 SWAP1 KECCAK256 SLOAD DUP1 PUSH2 0xCCB JUMPI PUSH1 0x0 DUP1 REVERT JUMPDEST CALLER PUSH1 0x0 DUP2 DUP2 MSTORE PUSH1 0x1A PUSH1 0x20 MSTORE PUSH1 0x40 DUP1 DUP3 KECCAK256 SWAP2 SWAP1 SWAP2 SSTORE PUSH1 0x1 SLOAD SWAP1 MLOAD PUSH4 0xA9059CBB PUSH1 0xE0 SHL DUP2 MSTORE PUSH1 0x4 DUP2 ADD SWAP3 SWAP1 SWAP3 MSTORE PUSH1 0x24 DUP3 ADD DUP4 SWAP1 MSTORE PUSH1 0x1 PUSH1 0x1 PUSH1 0xA0 SHL SUB AND SWAP1 PUSH4 0xA9059CBB SWAP1 PUSH1 0x44 ADD PUSH2 0x63D JUMP JUMPDEST PUSH2 0xD1D PUSH2 0xD9B JUMP JUMPDEST PUSH1 0x1 PUSH1 0x1 PUSH1 0xA0 SHL SUB DUP2 AND PUSH2 0xD82 JUMPI PUSH1 0x40 MLOAD PUSH3 0x461BCD PUSH1 0xE5 SHL DUP2 MSTORE PUSH1 0x20 PUSH1 0x4 DUP3 ADD MSTORE PUSH1 0x26 PUSH1 0x24 DUP3 ADD MSTORE PUSH32 0x4F776E61626C653A206E6577206F776E657220697320746865207A65726F2061 PUSH1 0x44 DUP3 ADD MSTORE PUSH6 0x646472657373 PUSH1 0xD0 SHL PUSH1 0x64 DUP3 ADD MSTORE PUSH1 0x84 ADD PUSH2 0x6A5 JUMP JUMPDEST PUSH2 0xD8B DUP2 PUSH2 0xE16 JUMP JUMPDEST POP JUMP JUMPDEST PUSH2 0xD96 PUSH2 0xD9B JUMP JUMPDEST PUSH1 0xA SSTORE JUMP JUMPDEST PUSH1 0x0 SLOAD PUSH1 0x1 PUSH1 0x1 PUSH1 0xA0 SHL SUB AND CALLER EQ PUSH2 0x957 JUMPI PUSH1 0x40 MLOAD PUSH3 0x461BCD PUSH1 0xE5 SHL DUP2 MSTORE PUSH1 0x20 PUSH1 0x4 DUP3 ADD DUP2 SWAP1 MSTORE PUSH1 0x24 DUP3 ADD MSTORE PUSH32 0x4F776E61626C653A2063616C6C6572206973206E6F7420746865206F776E6572 PUSH1 0x44 DUP3 ADD MSTORE PUSH1 0x64 ADD PUSH2 0x6A5 JUMP JUMPDEST PUSH1 0x0 PUSH2 0xE01 DUP3 DUP5 PUSH2 0xF83 JUMP JUMPDEST SWAP1 POP JUMPDEST SWAP3 SWAP2 POP POP JUMP JUMPDEST PUSH1 0x0 PUSH2 0xE01 DUP3 DUP5 PUSH2 0xF9A JUMP JUMPDEST PUSH1 0x0 DUP1 SLOAD PUSH1 0x1 PUSH1 0x1 PUSH1 0xA0 SHL SUB DUP4 DUP2 AND PUSH1 0x1 PUSH1 0x1 PUSH1 0xA0 SHL SUB NOT DUP4 AND DUP2 OR DUP5 SSTORE PUSH1 0x40 MLOAD SWAP2 SWAP1 SWAP3 AND SWAP3 DUP4 SWAP2 PUSH32 0x8BE0079C531659141344CD1FD0A4F28419497F9722A3DAAFE3B4186F6B6457E0 SWAP2 SWAP1 LOG3 POP POP JUMP JUMPDEST PUSH1 0x0 PUSH1 0x20 DUP3 DUP5 SUB SLT ISZERO PUSH2 0xE78 JUMPI PUSH1 0x0 DUP1 REVERT JUMPDEST DUP2 CALLDATALOAD PUSH1 0x1 PUSH1 0x1 PUSH1 0xA0 SHL SUB DUP2 AND DUP2 EQ PUSH2 0xE8F JUMPI PUSH1 0x0 DUP1 REVERT JUMPDEST SWAP4 SWAP3 POP POP POP JUMP JUMPDEST PUSH1 0x0 PUSH1 0x20 DUP3 DUP5 SUB SLT ISZERO PUSH2 0xEA8 JUMPI PUSH1 0x0 DUP1 REVERT JUMPDEST POP CALLDATALOAD SWAP2 SWAP1 POP JUMP JUMPDEST PUSH1 0x1 PUSH1 0x1 PUSH1 0xA0 SHL SUB SWAP4 DUP5 AND DUP2 MSTORE SWAP2 SWAP1 SWAP3 AND PUSH1 0x20 DUP3 ADD MSTORE PUSH1 0x40 DUP2 ADD SWAP2 SWAP1 SWAP2 MSTORE PUSH1 0x60 ADD SWAP1 JUMP JUMPDEST PUSH1 0x0 PUSH1 0x20 DUP3 DUP5 SUB SLT ISZERO PUSH2 0xEE5 JUMPI PUSH1 0x0 DUP1 REVERT JUMPDEST DUP2 MLOAD DUP1 ISZERO ISZERO DUP2 EQ PUSH2 0xE8F JUMPI PUSH1 0x0 DUP1 REVERT JUMPDEST PUSH1 0x20 DUP1 DUP3 MSTORE PUSH1 0xE SWAP1 DUP3 ADD MSTORE PUSH14 0x92869E40DCDEE840CCD2DCD2E6D PUSH1 0x93 SHL PUSH1 0x40 DUP3 ADD MSTORE PUSH1 0x60 ADD SWAP1 JUMP JUMPDEST PUSH1 0x20 DUP1 DUP3 MSTORE PUSH1 0xC SWAP1 DUP3 ADD MSTORE PUSH12 0x24A1A7903737BA1037B832B7 PUSH1 0xA1 SHL PUSH1 0x40 DUP3 ADD MSTORE PUSH1 0x60 ADD SWAP1 JUMP JUMPDEST PUSH1 0x20 DUP1 DUP3 MSTORE PUSH1 0x10 SWAP1 DUP3 ADD MSTORE PUSH16 0x12185C990810D85C081C995858DA1959 PUSH1 0x82 SHL PUSH1 0x40 DUP3 ADD MSTORE PUSH1 0x60 ADD SWAP1 JUMP JUMPDEST PUSH4 0x4E487B71 PUSH1 0xE0 SHL PUSH1 0x0 MSTORE PUSH1 0x11 PUSH1 0x4 MSTORE PUSH1 0x24 PUSH1 0x0 REVERT JUMPDEST DUP1 DUP3 MUL DUP2 ISZERO DUP3 DUP3 DIV DUP5 EQ OR PUSH2 0xE04 JUMPI PUSH2 0xE04 PUSH2 0xF6D JUMP JUMPDEST DUP1 DUP3 ADD DUP1 DUP3 GT ISZERO PUSH2 0xE04 JUMPI PUSH2 0xE04 PUSH2 0xF6D JUMP INVALID LOG2 PUSH5 0x6970667358 0x22 SLT KECCAK256 PUSH27 0x9D176F00985B3BC5A8B51CDBC71DA1391807CD5CC0FF68C0418388 0xC2 0xAE ISZERO BASEFEE PUSH5 0x736F6C6343 STOP ADDMOD GT STOP CALLER NUMBER PUSH13 0x6F73696E6754696D65206E6565 PUSH5 0x20746F2062 PUSH6 0x207375706572 PUSH10 0x6F720000000000000000 "},"methodIdentifiers":{"balances(address)":"27e235e3","balancesToken1(address)":"cfa1a7ec","balancesToken2(address)":"e7e879df","balancesToken3(address)":"bbda36c5","buyTokensRound1()":"bbce0059","buyTokensRound2()":"5badf43a","buyTokensRound3()":"d9c9ce10","changeClosingTimeRound1(uint256)":"521ff4ce","changeClosingTimeRound2(uint256)":"fe6154df","changeClosingTimeRound3(uint256)":"7a09fc70","closingTimeRound1()":"a680abcf","closingTimeRound2()":"8dadc69f","closingTimeRound3()":"5b9c476f","getBalance()":"12065fe0","getBalanceToken1()":"46fc8a77","getBalanceToken2()":"0af0e796","getBalanceToken3()":"1b3057cf","hardCapRound1()":"102cc3ea","hardCapRound2()":"dc372b5a","hardCapRound3()":"e744e9c6","openingTimeRound1()":"7c6186f9","openingTimeRound2()":"eccbaf7e","openingTimeRound3()":"5f7add42","owner()":"8da5cb5b","raisedAmount()":"c59ee1dc","rateRound1()":"5d41363f","rateRound2()":"0a564a03","rateRound3()":"118ab178","renounceOwnership()":"715018a6","tokenAmountRound1()":"2eb795d9","tokenAmountRound2()":"dbabeb25","tokenAmountRound3()":"90d98d75","transferOwnership(address)":"f2fde38b","withdraw(uint256)":"2e1a7d4d","withdrawTokensRound1()":"514d5071","withdrawTokensRound2()":"2e58e582","withdrawTokensRound3()":"ec0be958"}}}}}