{
  "_format": "hh-sol-artifact-1",
  "contractName": "ICO",
  "sourceName": "contracts/ICO.sol",
  "abi": [
    {
      "inputs": [
        {
          "internalType": "address",
          "name": "_token",
          "type": "address"
        },
        {
          "internalType": "address",
          "name": "_usdc",
          "type": "address"
        },
        {
          "internalType": "address",
          "name": "_team",
          "type": "address"
        },
        {
          "internalType": "uint256",
          "name": "_openingTimeRound1",
          "type": "uint256"
        },
        {
          "internalType": "uint256",
          "name": "_closingTimeRound1",
          "type": "uint256"
        },
        {
          "internalType": "uint256",
          "name": "_openingTimeRound2",
          "type": "uint256"
        },
        {
          "internalType": "uint256",
          "name": "_closingTimeRound2",
          "type": "uint256"
        },
        {
          "internalType": "uint256",
          "name": "_openingTimeRound3",
          "type": "uint256"
        },
        {
          "internalType": "uint256",
          "name": "_closingTimeRound3",
          "type": "uint256"
        }
      ],
      "stateMutability": "nonpayable",
      "type": "constructor"
    },
    {
      "anonymous": false,
      "inputs": [
        {
          "indexed": true,
          "internalType": "address",
          "name": "previousOwner",
          "type": "address"
        },
        {
          "indexed": true,
          "internalType": "address",
          "name": "newOwner",
          "type": "address"
        }
      ],
      "name": "OwnershipTransferred",
      "type": "event"
    },
    {
      "anonymous": false,
      "inputs": [
        {
          "indexed": true,
          "internalType": "address",
          "name": "claimer",
          "type": "address"
        }
      ],
      "name": "TokenClaim",
      "type": "event"
    },
    {
      "anonymous": false,
      "inputs": [
        {
          "indexed": true,
          "internalType": "address",
          "name": "purchaser",
          "type": "address"
        },
        {
          "indexed": false,
          "internalType": "uint256",
          "name": "amount",
          "type": "uint256"
        }
      ],
      "name": "TokenPurchase",
      "type": "event"
    },
    {
      "inputs": [
        {
          "internalType": "address",
          "name": "",
          "type": "address"
        }
      ],
      "name": "balances",
      "outputs": [
        {
          "internalType": "uint256",
          "name": "",
          "type": "uint256"
        }
      ],
      "stateMutability": "view",
      "type": "function"
    },
    {
      "inputs": [
        {
          "internalType": "address",
          "name": "",
          "type": "address"
        }
      ],
      "name": "balancesToken1",
      "outputs": [
        {
          "internalType": "uint256",
          "name": "",
          "type": "uint256"
        }
      ],
      "stateMutability": "view",
      "type": "function"
    },
    {
      "inputs": [
        {
          "internalType": "address",
          "name": "",
          "type": "address"
        }
      ],
      "name": "balancesToken2",
      "outputs": [
        {
          "internalType": "uint256",
          "name": "",
          "type": "uint256"
        }
      ],
      "stateMutability": "view",
      "type": "function"
    },
    {
      "inputs": [
        {
          "internalType": "address",
          "name": "",
          "type": "address"
        }
      ],
      "name": "balancesToken3",
      "outputs": [
        {
          "internalType": "uint256",
          "name": "",
          "type": "uint256"
        }
      ],
      "stateMutability": "view",
      "type": "function"
    },
    {
      "inputs": [],
      "name": "buyTokensRound1",
      "outputs": [],
      "stateMutability": "payable",
      "type": "function"
    },
    {
      "inputs": [],
      "name": "buyTokensRound2",
      "outputs": [],
      "stateMutability": "payable",
      "type": "function"
    },
    {
      "inputs": [],
      "name": "buyTokensRound3",
      "outputs": [],
      "stateMutability": "payable",
      "type": "function"
    },
    {
      "inputs": [
        {
          "internalType": "uint256",
          "name": "_closingTimeRound1",
          "type": "uint256"
        }
      ],
      "name": "changeClosingTimeRound1",
      "outputs": [],
      "stateMutability": "nonpayable",
      "type": "function"
    },
    {
      "inputs": [
        {
          "internalType": "uint256",
          "name": "_closingTimeRound2",
          "type": "uint256"
        }
      ],
      "name": "changeClosingTimeRound2",
      "outputs": [],
      "stateMutability": "nonpayable",
      "type": "function"
    },
    {
      "inputs": [
        {
          "internalType": "uint256",
          "name": "_closingTimeRound3",
          "type": "uint256"
        }
      ],
      "name": "changeClosingTimeRound3",
      "outputs": [],
      "stateMutability": "nonpayable",
      "type": "function"
    },
    {
      "inputs": [],
      "name": "closingTimeRound1",
      "outputs": [
        {
          "internalType": "uint256",
          "name": "",
          "type": "uint256"
        }
      ],
      "stateMutability": "view",
      "type": "function"
    },
    {
      "inputs": [],
      "name": "closingTimeRound2",
      "outputs": [
        {
          "internalType": "uint256",
          "name": "",
          "type": "uint256"
        }
      ],
      "stateMutability": "view",
      "type": "function"
    },
    {
      "inputs": [],
      "name": "closingTimeRound3",
      "outputs": [
        {
          "internalType": "uint256",
          "name": "",
          "type": "uint256"
        }
      ],
      "stateMutability": "view",
      "type": "function"
    },
    {
      "inputs": [],
      "name": "getBalance",
      "outputs": [
        {
          "internalType": "uint256",
          "name": "",
          "type": "uint256"
        }
      ],
      "stateMutability": "view",
      "type": "function"
    },
    {
      "inputs": [],
      "name": "getBalanceToken1",
      "outputs": [
        {
          "internalType": "uint256",
          "name": "",
          "type": "uint256"
        }
      ],
      "stateMutability": "view",
      "type": "function"
    },
    {
      "inputs": [],
      "name": "getBalanceToken2",
      "outputs": [
        {
          "internalType": "uint256",
          "name": "",
          "type": "uint256"
        }
      ],
      "stateMutability": "view",
      "type": "function"
    },
    {
      "inputs": [],
      "name": "getBalanceToken3",
      "outputs": [
        {
          "internalType": "uint256",
          "name": "",
          "type": "uint256"
        }
      ],
      "stateMutability": "view",
      "type": "function"
    },
    {
      "inputs": [],
      "name": "hardCapRound1",
      "outputs": [
        {
          "internalType": "uint256",
          "name": "",
          "type": "uint256"
        }
      ],
      "stateMutability": "view",
      "type": "function"
    },
    {
      "inputs": [],
      "name": "hardCapRound2",
      "outputs": [
        {
          "internalType": "uint256",
          "name": "",
          "type": "uint256"
        }
      ],
      "stateMutability": "view",
      "type": "function"
    },
    {
      "inputs": [],
      "name": "hardCapRound3",
      "outputs": [
        {
          "internalType": "uint256",
          "name": "",
          "type": "uint256"
        }
      ],
      "stateMutability": "view",
      "type": "function"
    },
    {
      "inputs": [],
      "name": "openingTimeRound1",
      "outputs": [
        {
          "internalType": "uint256",
          "name": "",
          "type": "uint256"
        }
      ],
      "stateMutability": "view",
      "type": "function"
    },
    {
      "inputs": [],
      "name": "openingTimeRound2",
      "outputs": [
        {
          "internalType": "uint256",
          "name": "",
          "type": "uint256"
        }
      ],
      "stateMutability": "view",
      "type": "function"
    },
    {
      "inputs": [],
      "name": "openingTimeRound3",
      "outputs": [
        {
          "internalType": "uint256",
          "name": "",
          "type": "uint256"
        }
      ],
      "stateMutability": "view",
      "type": "function"
    },
    {
      "inputs": [],
      "name": "owner",
      "outputs": [
        {
          "internalType": "address",
          "name": "",
          "type": "address"
        }
      ],
      "stateMutability": "view",
      "type": "function"
    },
    {
      "inputs": [],
      "name": "raisedAmount",
      "outputs": [
        {
          "internalType": "uint256",
          "name": "",
          "type": "uint256"
        }
      ],
      "stateMutability": "view",
      "type": "function"
    },
    {
      "inputs": [],
      "name": "rateRound1",
      "outputs": [
        {
          "internalType": "uint256",
          "name": "",
          "type": "uint256"
        }
      ],
      "stateMutability": "view",
      "type": "function"
    },
    {
      "inputs": [],
      "name": "rateRound2",
      "outputs": [
        {
          "internalType": "uint256",
          "name": "",
          "type": "uint256"
        }
      ],
      "stateMutability": "view",
      "type": "function"
    },
    {
      "inputs": [],
      "name": "rateRound3",
      "outputs": [
        {
          "internalType": "uint256",
          "name": "",
          "type": "uint256"
        }
      ],
      "stateMutability": "view",
      "type": "function"
    },
    {
      "inputs": [],
      "name": "renounceOwnership",
      "outputs": [],
      "stateMutability": "nonpayable",
      "type": "function"
    },
    {
      "inputs": [],
      "name": "tokenAmountRound1",
      "outputs": [
        {
          "internalType": "uint256",
          "name": "",
          "type": "uint256"
        }
      ],
      "stateMutability": "view",
      "type": "function"
    },
    {
      "inputs": [],
      "name": "tokenAmountRound2",
      "outputs": [
        {
          "internalType": "uint256",
          "name": "",
          "type": "uint256"
        }
      ],
      "stateMutability": "view",
      "type": "function"
    },
    {
      "inputs": [],
      "name": "tokenAmountRound3",
      "outputs": [
        {
          "internalType": "uint256",
          "name": "",
          "type": "uint256"
        }
      ],
      "stateMutability": "view",
      "type": "function"
    },
    {
      "inputs": [
        {
          "internalType": "address",
          "name": "newOwner",
          "type": "address"
        }
      ],
      "name": "transferOwnership",
      "outputs": [],
      "stateMutability": "nonpayable",
      "type": "function"
    },
    {
      "inputs": [
        {
          "internalType": "uint256",
          "name": "amount",
          "type": "uint256"
        }
      ],
      "name": "withdraw",
      "outputs": [],
      "stateMutability": "nonpayable",
      "type": "function"
    },
    {
      "inputs": [],
      "name": "withdrawTokensRound1",
      "outputs": [],
      "stateMutability": "nonpayable",
      "type": "function"
    },
    {
      "inputs": [],
      "name": "withdrawTokensRound2",
      "outputs": [],
      "stateMutability": "nonpayable",
      "type": "function"
    },
    {
      "inputs": [],
      "name": "withdrawTokensRound3",
      "outputs": [],
      "stateMutability": "nonpayable",
      "type": "function"
    }
  ],
  "bytecode": "0x608060405266016bcc41e9000060145566010334bbc2d00060155565b5e620f480006016553480156200003157600080fd5b5060405162001360380380620013608339810160408190526200005491620002a5565b6200005f3362000238565b6001600160a01b038916620000b05760405162461bcd60e51b81526020600482015260126024820152710546f6b656e206164647265737320697320360741b60448201526064015b60405180910390fd5b858511620000f05760405162461bcd60e51b815260206004820152601f6024820152600080516020620013408339815191526044820152606401620000a7565b838311620001305760405162461bcd60e51b815260206004820152601f6024820152600080516020620013408339815191526044820152606401620000a7565b818111620001705760405162461bcd60e51b815260206004820152601f6024820152600080516020620013408339815191526044820152606401620000a7565b60646014546200018191906200032a565b60045560155462000195906064906200032a565b600555601654620001a9906064906200032a565b600655600180546001600160a01b03199081166001600160a01b039b8c1617909155600280548216998b1699909917909855600380549098169690981695909517909555600792909255600855600955600a91909155600b55600c556a0f8277896582678ac00000600d556a094e47b8d6817153400000600e556a06342fd08f00f637800000600f556200034d565b600080546001600160a01b038381166001600160a01b0319831681178455604051919092169283917f8be0079c531659141344cd1fd0a4f28419497f9722a3daafe3b4186f6b6457e09190a35050565b80516001600160a01b0381168114620002a057600080fd5b919050565b60008060008060008060008060006101208a8c031215620002c557600080fd5b620002d08a62000288565b9850620002e060208b0162000288565b9750620002f060408b0162000288565b965060608a0151955060808a0151945060a08a0151935060c08a0151925060e08a015191506101008a015190509295985092959850929598565b6000826200034857634e487b7160e01b600052601260045260246000fd5b500490565b610fe3806200035d6000396000f3fe60806040526004361061021a5760003560e01c80637a09fc7011610123578063cfa1a7ec116100ab578063e7e879df1161006f578063e7e879df1461056c578063ec0be95814610599578063eccbaf7e146105ae578063f2fde38b146105c4578063fe6154df146105e457600080fd5b8063cfa1a7ec146104f5578063d9c9ce1014610522578063dbabeb251461052a578063dc372b5a14610540578063e744e9c61461055657600080fd5b806390d98d75116100f257806390d98d751461047e578063a680abcf14610494578063bbce0059146104aa578063bbda36c5146104b2578063c59ee1dc146104df57600080fd5b80637a09fc701461040a5780637c6186f91461042a5780638da5cb5b146104405780638dadc69f1461046857600080fd5b80632eb795d9116101a65780635b9c476f116101755780635b9c476f146103ab5780635badf43a146103c15780635d41363f146103c95780635f7add42146103df578063715018a6146103f557600080fd5b80632eb795d91461033e57806346fc8a7714610354578063514d507114610376578063521ff4ce1461038b57600080fd5b806312065fe0116101ed57806312065fe0146102965780631b3057cf146102b857806327e235e3146102da5780632e1a7d4d146103075780632e58e5821461032957600080fd5b80630a564a031461021f5780630af0e79614610248578063102cc3ea1461026a578063118ab17814610280575b600080fd5b34801561022b57600080fd5b5061023560055481565b6040519081526020015b60405180910390f35b34801561025457600080fd5b5033600090815260196020526040902054610235565b34801561027657600080fd5b50610235600d5481565b34801561028c57600080fd5b5061023560065481565b3480156102a257600080fd5b5033600090815260176020526040902054610235565b3480156102c457600080fd5b50336000908152601a6020526040902054610235565b3480156102e657600080fd5b506102356102f5366004610e66565b60176020526000908152604090205481565b34801561031357600080fd5b50610327610322366004610e96565b610604565b005b34801561033557600080fd5b50610327610684565b34801561034a57600080fd5b5061023560115481565b34801561036057600080fd5b5033600090815260186020526040902054610235565b34801561038257600080fd5b50610327610712565b34801561039757600080fd5b506103276103a6366004610e96565b610797565b3480156103b757600080fd5b50610235600c5481565b6103276107a4565b3480156103d557600080fd5b5061023560045481565b3480156103eb57600080fd5b50610235600b5481565b34801561040157600080fd5b50610327610945565b34801561041657600080fd5b50610327610425366004610e96565b610959565b34801561043657600080fd5b5061023560075481565b34801561044c57600080fd5b506000546040516001600160a01b03909116815260200161023f565b34801561047457600080fd5b50610235600a5481565b34801561048a57600080fd5b5061023560135481565b3480156104a057600080fd5b5061023560085481565b610327610966565b3480156104be57600080fd5b506102356104cd366004610e66565b601a6020526000908152604090205481565b3480156104eb57600080fd5b5061023560105481565b34801561050157600080fd5b50610235610510366004610e66565b60186020526000908152604090205481565b610327610afb565b34801561053657600080fd5b5061023560125481565b34801561054c57600080fd5b50610235600e5481565b34801561056257600080fd5b50610235600f5481565b34801561057857600080fd5b50610235610587366004610e66565b60196020526000908152604090205481565b3480156105a557600080fd5b50610327610c90565b3480156105ba57600080fd5b5061023560095481565b3480156105d057600080fd5b506103276105df366004610e66565b610d15565b3480156105f057600080fd5b506103276105ff366004610e96565b610d8e565b6002546003546040516323b872dd60e01b81526001600160a01b03928316926323b872dd9261063d923092909116908690600401610eaf565b6020604051808303816000875af115801561065c573d6000803e3d6000fd5b505050506040513d601f19601f820116820180604052508101906106809190610ed3565b5050565b600a5442116106ae5760405162461bcd60e51b81526004016106a590610ef5565b60405180910390fd5b33600090815260196020526040902054806106c857600080fd5b3360008181526019602052604080822091909155600154905163a9059cbb60e01b81526004810192909252602482018390526001600160a01b03169063a9059cbb9060440161063d565b60085442116107335760405162461bcd60e51b81526004016106a590610ef5565b336000908152601860205260409020548061074d57600080fd5b3360008181526018602052604080822091909155600154905163a9059cbb60e01b81526004810192909252602482018390526001600160a01b03169063a9059cbb9060440161063d565b61079f610d9b565b600855565b60095442101580156107b85750600a544211155b6107d45760405162461bcd60e51b81526004016106a590610f1d565b600d546011543491116107f95760405162461bcd60e51b81526004016106a590610f43565b6002546040516323b872dd60e01b81526001600160a01b03909116906323b872dd9061082d90339030903490600401610eaf565b6020604051808303816000875af115801561084c573d6000803e3d6000fd5b505050506040513d601f19601f820116820180604052508101906108709190610ed3565b61087957600080fd5b600061089060055483610df590919063ffffffff16565b6010549091506108a09083610e0a565b6010556012546108b09082610e0a565b601255336000908152601760205260409020546108cd9083610e0a565b336000908152601760209081526040808320939093556019905220546108f39082610e0a565b33600081815260196020526040908190209290925590517ff4b351c7293f3c20fc9912c61adbe9823a6de3162bde18c98eb6feeae232f861906109399084815260200190565b60405180910390a25050565b61094d610d9b565b6109576000610e16565b565b610961610d9b565b600c55565b600754421015801561097a57506008544211155b6109965760405162461bcd60e51b81526004016106a590610f1d565b600d546011543491116109bb5760405162461bcd60e51b81526004016106a590610f43565b6002546040516323b872dd60e01b81526001600160a01b03909116906323b872dd906109ef90339030903490600401610eaf565b6020604051808303816000875af1158015610a0e573d6000803e3d6000fd5b505050506040513d601f19601f82011682018060405250810190610a329190610ed3565b610a3b57600080fd5b6000610a5260045434610df590919063ffffffff16565b601054909150610a629083610e0a565b601055601154610a729082610e0a565b60115533600090815260176020526040902054610a8f9083610e0a565b33600090815260176020908152604080832093909355601890522054610ab59082610e0a565b33600081815260186020526040908190209290925590517ff4b351c7293f3c20fc9912c61adbe9823a6de3162bde18c98eb6feeae232f861906109399084815260200190565b600b544210158015610b0f5750600c544211155b610b2b5760405162461bcd60e51b81526004016106a590610f1d565b600d54601154349111610b505760405162461bcd60e51b81526004016106a590610f43565b6002546040516323b872dd60e01b81526001600160a01b03909116906323b872dd90610b8490339030903490600401610eaf565b6020604051808303816000875af1158015610ba3573d6000803e3d6000fd5b505050506040513d601f19601f82011682018060405250810190610bc79190610ed3565b610bd057600080fd5b6000610be760065483610df590919063ffffffff16565b601054909150610bf79083610e0a565b601055601354610c079082610e0a565b60135533600090815260176020526040902054610c249083610e0a565b33600090815260176020908152604080832093909355601a90522054610c4a9082610e0a565b336000818152601a6020526040908190209290925590517ff4b351c7293f3c20fc9912c61adbe9823a6de3162bde18c98eb6feeae232f861906109399084815260200190565b600c544211610cb15760405162461bcd60e51b81526004016106a590610ef5565b336000908152601a602052604090205480610ccb57600080fd5b336000818152601a602052604080822091909155600154905163a9059cbb60e01b81526004810192909252602482018390526001600160a01b03169063a9059cbb9060440161063d565b610d1d610d9b565b6001600160a01b038116610d825760405162461bcd60e51b815260206004820152602660248201527f4f776e61626c653a206e6577206f776e657220697320746865207a65726f206160448201526564647265737360d01b60648201526084016106a5565b610d8b81610e16565b50565b610d96610d9b565b600a55565b6000546001600160a01b031633146109575760405162461bcd60e51b815260206004820181905260248201527f4f776e61626c653a2063616c6c6572206973206e6f7420746865206f776e657260448201526064016106a5565b6000610e018284610f83565b90505b92915050565b6000610e018284610f9a565b600080546001600160a01b038381166001600160a01b0319831681178455604051919092169283917f8be0079c531659141344cd1fd0a4f28419497f9722a3daafe3b4186f6b6457e09190a35050565b600060208284031215610e7857600080fd5b81356001600160a01b0381168114610e8f57600080fd5b9392505050565b600060208284031215610ea857600080fd5b5035919050565b6001600160a01b039384168152919092166020820152604081019190915260600190565b600060208284031215610ee557600080fd5b81518015158114610e8f57600080fd5b6020808252600e908201526d092869e40dcdee840ccd2dcd2e6d60931b604082015260600190565b6020808252600c908201526b24a1a7903737ba1037b832b760a11b604082015260600190565b60208082526010908201526f12185c990810d85c081c995858da195960821b604082015260600190565b634e487b7160e01b600052601160045260246000fd5b8082028115828204841417610e0457610e04610f6d565b80820180821115610e0457610e04610f6d56fea26469706673582212207a9d176f00985b3bc5a8b51cdbc71da1391807cd5cc0ff68c0418388c2ae154864736f6c63430008110033436c6f73696e6754696d65206e65656420746f206265207375706572696f7200",
  "linkReferences": {},
  "deployedLinkReferences": {}
}